:2000000000802020015B00000D3E00000D3E0000000000000000000000000000000000002E
:200020000000000000000000000000000D3E000000000000000000000D3E00000D3E0000DF
:200040000D3E0000A94C00000D3E00000D3E00000D3E00000D3E00000D3E00000D3E00009E
:20006000000000000D3E00000D3E000000000000000000000D3E00000D3E00000D3E000009
:20008000355500000D3E00000D3E0000794200000D3E0000B1330000000000000000000056
:2000A0000D3E00000D3E000000000000000000000D3E0000000000000D3E00000D3E0000C9
:2000C000F0B5F3B007930592799A0E92789E0025EA4309927090139112950878934C20180F
:2000E0004378D80623D513984A1CDB0606D5481C117861184B78521C0146F6E7139070A82C
:20010000B0470746401C01D100F0B2FD05F07EFC03D570A8B0470746F8E770A805F0E8FC5B
:200120001298401E1290781C01D100F0A1FD0120069054A801466C310F9101460C310491D1
:200140000D30019014A8401C029010950B95119654A8702105F078FC0998559070A813A9EB
:2001600012AA079B984701280AD0002801D100F087FD401C01D100F07DFD0F98007878E0C2
:200180001398461C139641782A2905D1549901220A435492861C13960027F05D0146303915
:2001A000092907D8F019401C1390F05D71A9C8557F1CF2E771A90024CC550978F519002917
:2001C00004D071A804F07EFC559028784C282ED068281ED06A2809D06C280FD0742809D0FC
:2001E0007A282AD154980121090322E054980121C9021EE05498012149031AE0F019451CB1
:200200001395427854996C2A00D070E20122120209E0F019451C139542785499682A00D09C
:2002200067E20122520211435491851C05E05498802101435491F019451C691C1391287856
:200240000F9A10705B28119E13D108785E2806D15498022101435491A91C1391A8785D283C
:2002600000D0A8E0481C1390097854AA11730199ABE05B38132816D8012181402C480142A1
:2002800011D070AF3846B0470546384629460E9A90471299681C04D10029264D17D100F0BA
:2002A000E7FC244D13E0214C70A8B047074605F0ADFBF9D470A805F01BFC1298411E1291F4
:2002C000781C1C4D03D1002901D100F0D1FC0A910F9803781946583920294ED8012049000F
:2002E0007944898849008F447101B902B9023901B902B902B902B902B9025300B902ED0050
:200300002700530053005300B9022700B902B902B902B902600327002700B902B902ED00DB
:20032000B9022700B902B9022700C046205B000001010800FC6100001D46559C70A8B047F3
:20034000074605F0ACFB14AE002C4BD0214614AE2D2F02D02B2F00D0D3E014A8077070A82C
:20036000119C0E46A0473146074605F098FB711E00D1ECE00C91029EC5E018464138062836
:2003800000D9B3E0012181407120014200D1ADE0559C70A8B047074614AB401C09D005F0A6
:2003A0007EFB2B2F20D114AB002C22D12B2700242AE0099F28E00846049906E0421C139297
:2003C00000784B1C0870104619460278002A01D05D2AF3D10C7001785D2900D0CDE6401CF7
:2003E0001390CAE60024B4E014AB002C0CD02D2F0AD114A8077070A8B0470746401C01D038
:2004000005F04DFB641E029B384661381A2801D3384601E03846203800210A1D0C2A25D0AB
:200420006E58317888421146F7D10025AC423FD0705D00283BD0394661391A2901D3394693
:2004400001E039462039814231D1384627461C46585570A8119988470146401C01D005F02A
:200460001EFB6D1C23463C460F46DFE70020002C089035D0302F33D130201093187070A8F5
:20048000119EB0470746401C01D005F008FB109B5D1C601E002201210C91002800D12CE1BB
:2004A000394661391A2900D239E1394639E12C46E01E41424141083C6042604104460C43C6
:2004C0005D19B7E1549901250846284049061F4675D4002800D0B7E2059810C80590B4E217
:2004E0001D460C90024606990D912FE1252B00D0B4E170A8B047252800D00DE305F0CFFAD9
:200500000BE10C91119C0020FB4A2B46115C994204D0401C0728F9D1002000E01018801A9C
:20052000012811D1302F55D170A81090A0470446109821460E9A90472B4620208443583CA8
:20054000601E8441E00046E0EC49085C43E00024029E2246204606990D9162E0559D5498A7
:20056000022101400D9114AC002D00D1D3E070A8B0470146471C00D1C1E0109525460C467B
:20058000C8B2002304990E7886420A4600D01A46491C002E1346F6D10D9B59425941531E52
:2005A0009A419142119E21462C46109D00D0A6E0611C207005F073FA6D1E0C46D4E70028D3
:2005C00000D047E2059810C8059044E278230F980370B1E60A20109018466938C0B2102833
:2005E00001D3002100E00121EB4CC4400C406F2B06D1302F0AD0002006990D910C9A10E0E0
:2006000038463038414241410C42F4D03046761C077070A81199884705F0EAF900200D9038
:200620000698002C23D0002A21D000281FD020203946814358291AD10C9270AD2846119C06
:20064000A047014628460D460E9A9047D34840194078800701D40C9A09E0377070A8A0476F
:2006600005F0C6F900D10DE3761C10201090069C002A23D01098082803D1302F01DB382F96
:200680000EDB10980A2803D1302F01DB3A2F07DB1098102812D1C148C019407880070DD577
:2006A000751C377070A81199144688472246074605F0F5F9621E00242E46D9E770A805F09A
:2006C00017FA1298401E1290002131700D982040012809D112980A9A4240F8431043119E88
:2006E00000D1C9431091B9E00123119EBBE0402000E02020014354919FE5144623E070A8D3
:2007000010910E9A904712980A99814203D1002F00D1A3E009E2002020700123A3E0394691
:20072000203958290ED15F7070A8B0470746401C01D005F0B4F91098851CA41E0020069A3B
:200740000C9001E0044606980D900898064603901092002C63D02B2F36D02D2F34D02E2FFA
:200760002CD0452F01D0652F0AD10D9800283DD00C98002853D0002E51D101260C9641E0C6
:2007800038463A380A21C94388420BD8002A46D08248C0194078800704D420203843702838
:2007A000E6D03CE02B2F0FD02D2F0DD0702FDFD0502FDDD0652FD8D02E2F17D108983043E7
:2007C0002DD1012008901CE00D98002805D0681E007820210143652914D0002A1FD0681E30
:2007E00000782021014370290CD018E0002E06D0384630380126092811D8039602E00120C8
:200800000C9000262F7070A8119988470746401C01D005F044F96D1C641E109A99E70C9C5D
:20082000601E84410399481E8141002E069800D008460440119E70A805F05AF9781C02D00E
:200840001299491E129100222A701299002800D13A460A98884200D022461092109B581C9E
:20086000012800D80FE20F98017808465B381D28109359D8800002A2125818469746C0469D
:200880000309000001090000010900000109000001090000010900004309000001090000C4
:2008A000370C00004309000043090000430900004309000001090000430900000109000065
:2008C000010900000109000001090000AB090000430900004309000001090000010900009A
:2008E000370C00000109000043090000010900000109000043090000215C00001A62000006
:2009000026E45499C80700D022E405980068490600D550E114A94A1C0978431C0170002944
:2009200018461146F7D14FE108464138062801D9FFF70EFC012282407120024201D1FFF7B9
:2009400007FC14A80078002800D174E15498C20700D070E10B46613B172B4DD800225B006B
:200960007B449B885B009F44510066016601020151005100510066010301660166016601A2
:20098000660166011B00220166016601660166011B00660166011B0081800000205B00002F
:2009A000782900D1C4E00822C3E0549AD107109001D0FFF7CDFBB8490A40129901235C03E6
:2009C000A2423AD0402A38D01C02A24200D103E15C02A24200D136E1DC02A24200D1FBE068
:2009E0001B039A4229D0202A27D1059B04CB059311801090FFF7ACFB4139062900D91AE170
:200A000001228A4071210A4200D114E1C0210840802806D0402809D114A8002100F026FE6B
:200A2000FBE014A8002100F021FEF6E014A8002100F01CFE03F0ECF9F9E0059B04CB05937A
:200A400011601090FFF784FB00245598002833D4054632E000245598002800D40546632B8D
:200A600000D0054670A8B04704F0C9FF04D0894840184078C0060BD4481C022808D3002DA0
:200A800006D0002C01D002C400E000246D1EE9E770A80E9A90471298401E12900A998142B7
:200AA00000D1EFE00123732F00D0DCE6002C00D1D9E600202060D6E60125632B00D0054657
:200AC00070A8B04704F09BFF04D0724840184078C0060DD4481C02280AD3002D08D0002C98
:200AE00003D0601C2170044600E000246D1EE7E770A80E9A90471298401E12900A998142C8
:200B000000D1BFE00123732F00D0ACE6002C00D1A9E600202070A6E6014670A80E9A1091CD
:200B200090471098401C00D198E60020109095E61022752900D10A225749084001214B032B
:200B4000984252D040285AD00B02984252D04B0298427FD0CB0298424CD00903884244D0DB
:200B600020284CD114A8002101F07AFE1AE00A224949084001214B03984245D0402852D0E1
:200B80000B02984245D04B02984268D0CB0298423FD00903884237D0202844D114A800212D
:200BA00001F01EFD059A02CA0592088043E014A80021102225E014A90A78002A02D0491CC8
:200BC00004C0F9E7002101600598001D05900B98401C0B90FFF7BCFACA17059C08CC05946B
:200BE00019605A601090FFF7B3FA14A8002101F099FB1CE014A8002101F094FB0DE014A81B
:200C0000002101F02DFE12E014A8002101F01AF80DE014A8002101F015F8059B04CB0593F6
:200C20001060516007E014A8002101F0D9FC059A02CA059208605498012181430B9808180A
:200C40000B90FFF785FA059B04CB059311701090FFF77EFA14A8002101F002FE03E014A881
:200C6000002101F0BDFC059A02CA05920870E2E709980DE00B990029099809D0084607E05C
:200C80000B9805E0099B0B98002800D00346184673B0F0BD205B0000603F0000F0B5FFB0A8
:200CA0008EB0049306920646929802900025E84305908C913468204604F0B7FE21188B95B9
:200CC00003918C4200D3BBE00020879087A908738890059889902F46049D2078002800D1ED
:200CE000AFE0252805D0641C34600699A8477F1CF3E78B97601C306087AC2046314600F0FE
:200D0000A7F88CAA2046314600F0BFF8306801787A2925D0682919D06A2908D06C290ED079
:200D2000742908D04C2922D1879980221BE087990122D20217E087990122520313E04278C6
:200D400087996C2A64D10122120205E042788799682A60D10122520211438791801C05E08B
:200D60008799012212030A438792401C0178441C346087A8017373291FD06E2929D187980E
:200D800032490840202850D040283CD001214A03904238D04A02904242D0CA02904205D0C8
:200DA0000A0390422FD0090288422CD1F8178C9904C98C91176050603BE087A80078400636
:200DC00019D4009587A88CAA8BAB069900F01DF92FE007AD87A98CAA284600F06DF902461C
:200DE00028460699029B9847411C059D00D0C5198B9503991FE0009587A88CAA8BAB069933
:200E000000F09FF815E08C9802C88C900F6010E0401C402201E0401C202211438791A5E7B8
:200E20008C9802C88C900F7003E08C9802C88C900F8003998B9D681C00D042E7059F00E0E8
:200E40002F4638467FB00EB0F0BDC046603F000010B50A681378302B0FD0232B07D02B2BE9
:200E600009D02D2B05D0202B0ED1042306E0082304E0012302E0022300E0102304681C431D
:200E80000460521C0A60E5E710BDFEB516460D460446086802782A2A10D13068011D31606B
:200EA00000686060002805D54042606020680121014321602868471C2F6017E00021303A53
:200EC000092A08D84218531C2B60435C6F467B545278491CF3E76A4600235354127847181C
:200EE000002A03D0684603F0EDFD606038782E2826D1781C286079782A2908D13068011DBE
:200F000031600068A0602868401C2860FEBD00203039092908D839188A1C2A604A786B461A
:200F20001A548978401CF3E76A46002111541078002804D0684603F0C5FDA060FEBDA16033
:200F4000FEBDF0B587B01E460C9F13681C1D14601D68002D3BD0049106908468002C04D4EB
:200F6000284604F03DFD844203D3284604F038FD044606984068A042039000DC2046014614
:200F80003068019140180296306005940398A0420EDD06980078C0070AD1059801990E1A8F
:200FA0000024B44204DA20200499B847641CF8E70026049C069805998E420BDA2868010AAC
:200FC00019D12D1DC0B22146B847761CF2E70020B84718E00599039A8A4214DD0078C0074C
:200FE00011D00198451A0024AC420CDA20200499B847641CF8E70020C0430299086004F0CB
:2010000063FD5821016007B0F0BDF0B585B00C4606460A9D1068011D1160006804900028E8
:2010200044D00393B768002F04D4049804F0FDFC874203D3049804F0F8FC07460296726875
:20104000BA42114600DC3946039B18680091401818600192BA420FDD02980078C0070BD133
:201060000098C01B039000260398864204DA20202146A847761CF7E70026BE4205DA04985C
:20108000805D2146A847761CF7E70198B84210DD02980078C0070CD00098C61B0027B742DF
:2010A00007DA20202146A8477F1CF8E700202146A84705B0F0BDC046F0B589B001920F469B
:2010C0000446FF210846FA30251878680290002607960391FE3120222046009204F09EFC31
:2010E0007F20800006942118089104952E713D46387B0246613A172A2AD8012393402C4668
:20110000B44D2B42254608D007A908AA2846019B00F066F900260596B3E071252B422546A1
:2011200022D1022A14D1019B1868021D1A600068C2B2534253410593039AFC32069B9A183B
:20114000089208702868022188432860002698E001464539032907D3252860D0412803D055
:2011600058280596D0D08DE0019A1068C11D0720814308460830106005C9D1432F7B4900A0
:20118000490D0BD17B3F944911400143049C2CD01920C1438F4234D36E2033E0002A01D4A0
:2011A000114602E00121C9075140D60F002205923A46413A062A0BD9613F062F61D8C046B2
:2011C0007F443F797F00BF440B5C5C5C3B3631007A4412795200974403545454332E290052
:2011E00008AB2A4600F01EFC4BE0002311461A46059302F05BFF1921C9438F4225D3662242
:2012000024E04E20E0708F4201D3612100E04121A1700894607000200590022631E0002018
:2012200006994870252008700120A1E008AB2A4600F0F8FD25E008AB2A4603F02BF920E0B1
:2012400008AB2A4601F0A2FB1BE04622E2708F4201D36E2200E04E22A2708F4201D3692162
:2012600000E0492161703F21C900069A51180891002803D02D202070042602E02B202070C9
:201280000326287B012701466F39092904D801228A4052490A4201D158286BD1049B029CBE
:2012A00004972946069F3D1908980C460978C90707D1191D091A62689142069F01DC691A13
:2012C0004F1C411C0398430000263846324604F037F808900599002903D0411C089106708B
:2012E00000E00146A94206D8481E691A491C202204F094FB2E702078C00605D40698391A25
:20130000202204F08BFB2EE0069887422BD00698391A3026324604F081FB079841424141CE
:2013200004980140012905D12078400702D43846069905E03878069A511C1070781C3E709A
:20134000227B412A0CD0582A05D0612A08D0782A01D0702A07D123781B0701D4612A02D11A
:2013600042784A704670069804F05FFB0599401809B0F0BD002E09D0012E049B029C8FD128
:201380000120079029680220084007E0079A296802200840002A09D0049B029C08994A1ECE
:2013A00008922D220A704742474179E70028049B029C08D1480700D472E70898411E089107
:2013C000009901706CE70898411E08912B210170002765E708C19000FFFF0F00430200003D
:2013E000F8B514460F4605468068002804D4286810218843286001E00120A860287B102667
:20140000582808D0782806D0702804D06F2801D1082600E00A262846194600F055F8AA68CF
:20142000002A09D102460A4306D12878000749D52B7B0020024612E02B7B642B03D16423E7
:2014400000290BD504E0692B08D1002906D5692301223A60002240428A4100E00A460094B2
:201460001146324600F0B0F8A968884206DA401C21684A1E226030220A70F5E7287B5828B0
:2014800003D0782801D070280FD1297809070CD5702800D1782021684A1E2260087020688A
:2014A000411E216030210170287B6F280AD12878000707D520684178302903D0411E2160A5
:2014C00030210170F8BDC04610B5037B702B05D10868021D0A60006800226FE00068384A1F
:2014E000024001204403A24222D0402A20D00402A24230D04402A24246D0C402A2422AD044
:201500000403A24214D0202A12D100221C46643C142C06D8A0402B4C204204D12124204258
:201520003ED1582B49D10868031D0B60008845E000221C46643C142C06D8A040214C204266
:2015400004D1212420422BD1582B36D10868031D0B60006832E01A46643A142A06D890402A
:20156000184A104206D12122104203D10020582B024623D10868C21D0720824310460830CF
:2015800008601068526819E000221C46643C142C0CD8A0400B4C20420AD12124204205D080
:2015A0000868021D0A600068C21707E0582B04D10868031D0B60007800E01046114610BDE5
:2015C000603F000000081200FEB501920D460646582B01D0174800E01548009008980290BB
:2015E0003046284305D1029A1068411E116030210170019C3046284313D0304629462246E0
:2016000000F01AF807460D46224603F087FE301A0099085C029B19684A1E1A6008703E4605
:20162000E8E70298006804F000FA401EFEBDC0465A6100007C61000080B5102A06D0082ABD
:2016400009D1C0084A078018C90880BD00090A078018090980BD002904D1114603F0F2F9BD
:20166000002180BD002304F02DF980BDF0B58BB00A460346E24906463778C8194078761CC8
:20168000C006F9D42D2F01D02B2F01D1307801E0761E384604F007FA01D3014601E001468B
:2016A00020394E293FD0492959D1707804F0FBF900D220384E284CD1B07804F0F4F900D247
:2016C0002038462845D1002A01D0F01C1060F07804F0E9F900D2203849281FD1307904F051
:2016E000E2F900D220384E2818D1707904F0DBF900D22038492811D1B07904F0D4F900D29C
:20170000203854280AD1F07904F0CDF900D22038002A03D0592801D1083616602D2F00D19C
:20172000C7E0BA49C6E0707804F0BDF900D2203841280ED1B07804F0B6F900D220384E28EA
:2017400007D1B0490024002A00D127E1F01C106024E1002A00D01360002421461EE1AC4924
:201760000791002530280292049317D1707804F09AF900D22038582810D1B078A049091815
:201780004978890707D42E2808D1F0789C4908184078800702D5B61C9E4807902C469C4BC3
:2017A00004F085F9411E884108909A4B059504F07EF9411E884103900A9506952B46294638
:2017C00032782E2A03D1002939D1012135E009911446303C0A2C01D3002100E0012108989C
:2017E000084201D0284611E00398002827D0844881184978890722D528460A2C06D3114634
:2018000061391A2900D2203A1446373CE200824B99189D584C680A99059A079B01F036FBE3
:201820002A46234600F0F1FB05460A910999002902D00698401E06900123761CC0E7012060
:201840002D2F099003D1C0070A9941400A91069FBC0003980028204600D13846002B00D164
:2018600081E00899002909D01346613B1A2B01D3134601E01346203B452B09D0039900295A
:2018800012D01346613B1A2B00D2203A502A0DD172782D2A019501D02B2A0DD1B11C04916B
:2018A000B4780023DB430BE004963DE0049627463AE05549002471E0711C04910023144646
:2018C0002546303D092D25D800234D25AD00303C092C24D82D2A01D01E4600E05E423618C4
:2018E000F7177E40F61BAE42099F00D80027089939420AD10127B9028E4200D8002703992F
:20190000394202D10A2159430B19049C611C64780491DCE70499C918491E049100232D2A49
:20192000019D00D15B421F18002428460A992246234602F0B1FB002815D10898002817D003
:201940004D20800087421ADD04F0BEF822210160002428460A992246234602F0A7FB0028CA
:2019600016D12A4915E02C46029A049B0A9912E028460A993A4601F0D9FB044609E02748DE
:2019800087420EDC04F0A0F822210160214600E01D49029A049B002A00D0136020460BB0EE
:2019A000F0BD002F15D41E4C029A049B002F0ED0F80709D00CCC28460A99083C01F066FA5A
:2019C000049B029A05460A917F080834EEE72C46CCE728467C42124D029A049B002C0CD05B
:2019E000E10707D00CCD0A99083D01F05FF8049B029A0A9164080835F0E70446B6E7C046DC
:201A0000205B00000000F87F0000F0FF0000F07F0000244000003040285C0000CCFEFFFF56
:201A2000A85C0000F0B5A5B0049308920E46074600240A947E4D22462B4602F04BFB002810
:201A400013D100247B4D3846314622462B4602F037FB002809D1002238463146134602F060
:201A60001BFB00283C46354607D10AAA2046294602F030FC0A98401E0A900899087B0BAE35
:201A8000412801D06D4800E06B48099088680190302003903070002207922046294613463E
:201AA00002F004FB01210028029101D0C8074540771C20462946079A134602F0EDFA0028D0
:201AC0000DD124AA2046294602F004FC249801210A1A2046294601F029FB04460D462046A4
:201AE000294602F077FE06463946059702F0A6FC0690304603F020FB03F0BBFF04460D46B1
:201B00000198471C20D3059806994618002220462946134602F0C0FA002848D10022204677
:201B20002946474B01F0B2F904460D4602F052FE0999095C771C317003F0FEFA03F099FF78
:201B400004460D463E46E1E70BA806994618002F16D07F1E002220462946394B01F096F93F
:201B600004460D4602F036FE0999095C3246761C517003F0E1FA03F07CFF04460D46E6E72A
:201B80003178099C204603F0B1FE001B08280EDB0196741E089D079F099E2178304603F09E
:201BA000A5FE801B0E2805DD2770641EF5E7089D079F04E00999081840782070019E37705B
:201BC0000A98297B4129049C01D0702100E05021069E059F224602F05DFDAA68501C04D1B3
:201BE000384603F022FF421EAA6038463146234603F094F9A8680028029A02D128680007CD
:201C0000C20F38463146234602F012FA287B412801D0782000E0582021684A1E22600870DF
:201C20002068411E21600399017025B0F0BDC0460000F07F0000F0FF5A6100007C610000B1
:201C400000003040F0B58FB004910546734E01902F78F3195B786D1CDB06F9D47048002168
:201C6000CC43631C0E93034608464B412D2F029403D02B2F0E946A4B02D12978059102E0B0
:201C80006D1E05970E94242A00DC1046102812D0002831D10A21059A302A1FD16C7820227D
:201CA0002243782A1CD1A878059030184078800720D40C911BE010200C90059830281CD1BA
:201CC0006978302020220A43782A11D1A97805917218527892070BD5AD1C0EE00C910CE0FC
:201CE000302C02D3382C00D293E008200C903020059002E0AD1C10200C90039700270E9883
:201D00001C4619460C9E32463B4603F0DBFD0990089132460B973B4603F000FB0E9A101A07
:201D200006908C4107940A2E0A9601D30A200A900B990D910E91059F3E46303E0A9A964242
:201D40000B9C1CD3354AD219507843063B460BD51E46373EF417002305930C9BF31A234655
:201D6000059A93413B460AD382063DD5573BDC1700221E460C9BF31A2346934134D2099B52
:201D80000E981A1A089F3A468A4118D302465A400B467B40134304D1069A921B079AA241A2
:201DA0000DD300230C9A03F0B9FA30180E904C410D9A511CAA1857780D912146BCE703F021
:201DC00083FE222101600498002801D0019901600022029B581C12494A41039C2D2C00D06D
:201DE00018462D2C11D111E0049A002A039C05D00D9E002E019B00D0AB1913602D2C0E98A2
:201E000003D1002240428A4100E00A4611460FB0F0BD05946D1C08206EE7C046205B00006C
:201E2000FFFFFF7FF0B5A3B003930F46044604929168002903D0002904D5062100E0012143
:201E40000498816007910AA83021089101700025204639462A462B4602F028F90121002818
:201E6000059101D0C8074740624E20463946604A334602F039F9002809D0002220463946C1
:201E80005E4B00F013FE04460F466D1CEDE75A4E0022204639460992134602F0FDF80028EA
:201EA00011D1002220463946334602F0FFF8002809D0002220463946504B00F0E7FF044614
:201EC0000F466D1EE4E702950AA8451C2046394602F080FC0695294602F0B0FA079988424A
:201EE000019004DD481C0AA90A18085C1FE0C9430E180AA90D18681C07902046394602F0D8
:201F000069FC03F019F902460B462046394600F077F80022394B00F0B9FF04460F4602F09B
:201F200059FC079A30306870761C1546E3D3C0B23528039E049F029B099D0FD31446501ED0
:201F40000178491CCAB201703A2A03D330210170401EF5E70AA98842224640D00198C41816
:201F600015700220C043844202DBB868844207DD601E397B891EC9B2324602F08BFB0124E1
:201F8000069803F052FD401E0599A0421ADB0028089A01D4069A125C1346303B5D1EAB41B6
:201FA000C9431943C90705D13978090702D40025059905E031684B1E33600A70012500217E
:201FC000401EE2E73868082202402A43501E824106982146334602F02BF823B0F0BD501EAF
:201FE000002101700198C018441C0AA80690B8E70000C0FFFFFFDF410000F03F0000244027
:20200000FCB40124E407634002E0FCB40124E40708B41D03ED08D60D354356025F007F0D4C
:2020200006D12C00344300D0AEE001B0FCBC7047A408254307242402FF34A74205D1002031
:20204000190D090501B0FCBC7047002B03D50024A61BAC4125000B03DB08C20D13434202D8
:202060004800400D07D11C00144300D08CE00EBC1000F0BC704701246407234307242402C0
:20208000FF34A04205D10020090D090501B0FCBC7047002903D50024A21A9C412300C11B34
:2020A00008D51C002B0025001400320026000024611A3800362925D502B4393949420C007C
:2020C000203C03D22F008F40374301E03700A740002F01D040210E4302BC20290BD5002996
:2020E0000ED04C42203420B4A5402C0020BC0D41CE40361904E000292E000D4120390E4183
:2021000092196B411C0014433ED00024002B04D5012400218A1A99410B00401E52005B41A4
:20212000FBD50121890215000D400CD0521800277B4101D3401C0BE00721C90115000D4028
:2021400001D189008A43072109028A4352005B41801C19DD07210902FF31884209D30EBC04
:202160000020C90F0902FF31C900C91D0905F0BC7047190B00050143E40721431805120B16
:20218000104301B0FCBC70470021002001B0FCBC7047704780B584B0039003980290FFE7A5
:2021A00002980078002814D0FFE70298007861280ADBFFE7029800787A2805DCFFE702999F
:2021C000087820380870FFE7FFE70298401C0290E6E70398434901AA02F0B8FE012815D105
:2021E000FFE70199002001F0FBFA002809D1FFE7019802F047FC02460B46494802F098F8F7
:2022000003E0464802F094F8FFE769E00398364901F0FEFB002803D1FFE700F0CDFC5EE0C3
:202220000398324901F0F4FB002806D1FFE703F011FC394802F07CF850E003982C4901F0AB
:20224000E7FB002806D1FFE703F009FC314802F06FF842E00398274901F0DAFB002807D1FA
:20226000FFE7002002F06EF9294802F061F833E00398214901F0CCFB00280FD1FFE7002065
:2022800002F0CEFA002804D1FFE7204802F050F803E01D4802F04CF8FFE71CE003981749A4
:2022A00001F0B6FB002807D0FFE70398144901F0AFFB002803D1FFE701F01EFE0AE0039890
:2022C0000078002805D0FFE703990E4802F030F8FFE7FFE7FFE7FFE7FFE7FFE7FFE7FFE767
:2022E00004B080BD206200004F620000476200004D6200003F620000426200004962000072
:202300004B620000E35F00004A600000F160000020610000A0610000D7600000685F000053
:20232000BD600000F0B58BB014460391574D06463378E9184978761CC906F9D4242C00DDFA
:20234000002401272B2B02D02D2B02D10027337800E0761E102C10D0002C2BD10A24302BCB
:2023600028D1737820211943782916D1B378E9184978890717D430231CE01024302B19D124
:202380007378302120221A43782A04D1B378EA18527892070AD40B460CE0302B01D3382BAE
:2023A00006D3302305E0B61C102403E0B61C01E0761C08240197029020460A2C069401D37E
:2023C0000A20069000200A9007460590099004961D46303D06988542059811D32B48C1186C
:2023E00049784A0605D51D46373DA54201D2E81706E0890632D5573BA3422FD2D8171D461C
:202400000790E6170A98089739462246334602F085FF22460F462D180798474128463946FB
:20242000334603F04FFA089A51400A9A5040084307D10998411C049E301843780A95099181
:20244000C6E70020C44303F03FFB222101600398002801D002990160214614E00398002829
:20246000019A0A9C394605D0099D002D029B00D073190360002063428841002A00D11C46AD
:20248000002A00D1014620460BB0F0BD205B000080B58AB050480078002801D1FFE798E0DA
:2024A0000020029002F082FD01460298099102F0A9FD002801D0FFE78BE0099801F042F8D0
:2024C00046480079002805D0FFE744488079002801D0FFE77DE0414800680999401A0890CC
:2024E0000898002803D4FFE70898019003E0089840420190FFE7019807900798022814D8C5
:20250000FFE73648C079022805D8FFE73349C879401CC871FFE73148C079032804D3FFE75F
:202520002E4901204871FFE753E02C490020C8714871079801F056FF0690079801F040FE61
:2025400005900898012808DBFFE72448007E04A9087003A90120087009E02048007E4142AE
:20256000484104A9087003A9FF200870FFE704A80178002001F054FB002808D1FFE7069979
:20258000059A002000F0AAFE002804D0FFE7032002F0FEFD1DE01148C068002809D0FFE78D
:2025A0000E4809214056002203A98956884208D0FFE70998094948610020C8600398487297
:2025C000FFE7069A0549C8688018C86001200872FFE70AB080BDC046B60120205C01202025
:2025E000F0B585B016464D4B044625785A195278641CD206F9D44A4A2D2D02D1521C029201
:2026000002E02B2D029201D1277802E0641E2F460292242E00DD0026102E0191009011D078
:20262000002E27D10A26302F24D1677820223A43782A17D1A778D8194078800717D5A41CCD
:20264000102617E01026302F14D16178302020220A43782A04D1A778D9194978890708D466
:20266000074607E0302F01D3382F54D30826302700E0A41C0298314602F0E4F93146039056
:2026800041430A2E3046049601D30A220492029A511A0291002319463E46303E049A964254
:2026A0000ED31E4AD2195278560603D53E46373E864205D3920620D5573F87423E461CD2F1
:2026C000039A91420AD802D1029A964206D8414371185A1CE3185F781346DDE703F0F4F931
:2026E000222101600198002801D0009901602D2D0B4800D1401C05B0F0BD0198002804D0D9
:20270000002B009A00D0E21802602D2D01D00846F1E74842EFE7641C0826ABE7205B00005C
:20272000FFFFFF7FF0B587B01D4616463024059004700027104619463A463B4601F0B6FCA5
:202740000028019402D00120C00745400D9804900C9803903F4C304629463D4A234601F0BC
:20276000C3FC002809D00022304629463B4B00F09DF906460D467F1CEDE70598441C002259
:20278000304629460692134601F086FC002811D1002230462946304B01F088FC002809D0EE
:2027A0000022304629462D4B00F070FB06460D467F1EE4E70398C01903903046294602F05A
:2027C00009F8214601F03AFE02942418C019049908600398471C012F1ADB3046294601F0BF
:2027E000F9FF02F0A9FC02460B4630462946FFF707FC0022194B00F049FB06460D4601F089
:20280000E9FF3030611C20707F1E0C46E5D100E02146481E0278352A0DD3891E019C0A7892
:20282000521CD3B20A703A2B02D30C70491EF6E7059A914204D006990170029807B0F0BDDD
:202840000699017004990868401C08600598F5E70000C0FFFFFFDF410000F03F00002440AE
:20286000F0B585B002910546474B01902878191849786D1CC906F9D4242A00DD0022012454
:202880002B2802D02D2802D10024287800E06D1E102A12D01146002A0DD10A2230280AD1E2
:2028A000687820210143782917D1A87819184978890718D4302013461AE01026302816D184
:2028C0006878302120220243782A04D1A8781A18527892070AD4084609E0302801D3382873
:2028E0004FD330204EE0AD1C102301E0AD1C334600940A2B039301D30A21039100273C467E
:2029000001463039039A91420ED31F4909184A78510603D501463739994205D3910623D543
:202920005738984201461FD21846784304970F1838461E46194602F085F80499814205D135
:20294000611C281940780C463346D9E70020C74303F0BAF8222101600298002801D00199D6
:202960000160384605B0F0BD0298002804D0002C019900D02919016000980028F1D17F4204
:20298000EFE76D1C0823B3E7205B0000F0B5A1B0049305469068002801D506209060029022
:2029A000039200243D4F2846224606913B4601F091FB06990028264614D10026384F284634
:2029C00032463B4601F07CFB069900280AD1002228460592134601F05FFB069B00282E46EC
:2029E0001F4622D12F4D03F051F801F05FFB002809D00022304639462B4B00F047FA064671
:202A00000F46641EEFE7284D03F040F801F062FB002807D003F03AF800F048F806460F4626
:202A2000641CF1E735463B46059407A802990091019008A82A46FFF775FE0446079D022D97
:202A40000DD1059D6D1C204602F0EFFF2018401E0021017028460125049E039F02E0049EA3
:202A6000039F0598397B324601F014FEBA6820462946334602F052FA204602F0D6FF854246
:202A800003D138680007C20F00E0012220462946334601F0CDFA21B0F0BDC0460000F07FEE
:202AA0000000F0FF0000F03F00002440FCB40C005C40E40FE40710B41D032D0B56006D413E
:202AC0005F007F0D73D001246405254307242402FF34A74261D00B031B0B42005B414800DA
:202AE000400D64D001246405234307242402FF34A04252D0C01B002100273624AB4200D19E
:202B0000B24204D37F414941921BAB4101E07F414941641E06D0002B01D1002A02D0520039
:202B20005B41EBE7202C07D2162C0AD33900A7402026361BF1400BE0203C3900A140002773
:202B400006E0A1402026361B3D00F5402943A74001246405214202D17F004941401E002403
:202B60007F1C61410124A405214202D0401CA14301E06408A14303242402FF34001916DD18
:202B80002419A04209D8CC074908000501437808204310BC2143FCBC704702BC0020C90F90
:202BA0000902FF21C900C91D0905FCBC70470021002001B0FCBC7047F0B59DB000200A90B1
:202BC000169017A9119100F067FF0A9816A900F06FF815A908701B980D9001F053FF0B917A
:202BE0000C901A980E9001F04DFF02460D980B460E990F93109200F005FB01F043FF024618
:202C0000119812920A46129913921491407D002803D0FFE7214809900CE017A8017D1D48F4
:202C20001D4A07920029089001D10798089008980990FFE7149C139D099E17A8807D01F0F7
:202C4000D5FC0F990C9A0B9B07461098059704960395029401910090114801F069FB15A8C9
:202C60000078002809D0FFE7169801F00BFF02460B460D4801F05CFB03E00A4801F058FB9D
:202C8000FFE7002002F0FCFA0146084801F050FB1DB0F0BD0C62000026620000136200008E
:202CA000D25D0000D461000034610000C861000080B58AB0024608A80270079100780028E1
:202CC00009D1FFE70798002805D0FFE72E480078002804D1FFE709A9002008704FE02B48F5
:202CE000006804902A48006803900498002809D0FFE70398002805D0FFE703980499884268
:202D000004D3FFE709A90020087038E0039802F0CBFA0190049802F0C7FA0146019800F092
:202D2000FDFE069006981B49029100F02BFE1A4900F06DFA194900F025FE029900F0EEFEAE
:202D400005900598002101F0E3F9002803D0FFE700200590FFE70598104901F0EDF90028E2
:202D600006D0FFE705980E4900F051FA0590FFE705980799086009A901200870FFE709A866
:202D800000780AB080BDC046B9012020A8012020A001202000988045000080BF0000B44367
:202DA0000000B4C3B0B5364A80184A6842600A78222A56D8930001A4E3589F46592E0000F0
:202DC000632E0000592E0000632E0000632E0000632E0000632E0000632E0000632E000075
:202DE000632E0000632E0000632E0000632E0000632E0000632E0000632E0000492E000065
:202E0000632E0000492E0000632E0000632E0000632E0000632E0000632E0000632E000044
:202E2000632E0000632E0000632E0000632E0000632E0000632E0000632E0000492E000024
:202E4000632E0000492E0000036803242407A343012464071B1903E0036803242407A3437D
:202E600003600B69C360CB68C46A064D2540064C1C402B19C362097A11430160B0BDC0467D
:202E8000041800008888FDFF77770200FCB50C005C40E40FE40710B4DD02540D2543D6029F
:202EA0005F007F0D60D00124E407254307242402FF34A74250D0CB02440D2343C202480062
:202EC000400D51D00124E407234307242402FF34A04241D0C01901B41800290001F0AAFE2F
:202EE0000F0001B41800310001F0A4FE03000C001000310001F09EFE06001000290001F025
:202F000099FE05007618002202BC01BC55415141A419554151418024A4005B195141FF1878
:202F2000514100D564003F19514102D47F00494100E0401C03242402FF34001B14DD2419F8
:202F4000A04209D80305F80A4C0520434900090B194310BC2143FCBD0020FF21C900C91D5F
:202F6000090510BC2143FCBD0021002001B0FCBDF0B586B02F4A821811231B02C3180393FF
:202F80004F7A7B1EDCB201260025022C029501960CD84926F6017443A41904945BB29B009B
:202FA000254CE4580094254EF65802E00223009304954B6805925360CA683123DB01C318A2
:202FC000BF00DD598F24A5432240009C22432A43DA51CA68B4001D598E26B5433240521981
:202FE000019D2A431A51164A8018C259154B1A40154D5219521CC25102591A4052190251CD
:203000000398029A02600878012801D0049C02E02020049C0443087A059B19680B4A0A40B2
:20302000BD2101402143114302200843186006B0F0BDC04604180000BC610000B061000021
:20304000301800008888FDFF010002004000FFCFF0B584B03049314A0125AC0316682B02BE
:2030600003939E4316600E68264205D10E68264202D10E682642F6D06C02467E9769AF4336
:203080002E40BD1995612025455DD6690327BE433D407519D561224D2E680727374005268F
:2030A0002E60466A33681362736853622F60C3695B065B0CD5697F263602B543EB18D36165
:2030C000E8C8009707680197476802971B071B0B2D03ADB2ED1833071B0D007A009E35438C
:2030E0001D43019B1D43029B1D43054390690D4B03400D482840C01890611068039B1843A4
:2031000010600868204205D10868204202D108682042F6D004B0F0BD04020B4008010B4054
:20312000001340408D00F0FF72FF0F00F8B515462A4E0A0D771C3A40294B9A4213D00C46D7
:20314000002A18D10122D2079443044344D00022244BFFF79BFE0C4623498D4208DC234A30
:20316000234B214636E002460B46FEF74EFFF8BD220D3A40363A5119B1420ADD02F0A4FCE5
:20318000222101600120C00704401D4821180020F8BD012904DB174A144009052143F8BD07
:2031A0003522D24391420CDC02F08EFC2221016012488542E6DA0120C00704400020214634
:2031C000F8BD0C4A144009051B225205891821430022094BFFF75AFEF8BDC046FE07000065
:2031E000FF07000000005043AF3CFFFF59F3F8C21F6EA501FFFF0F800000903C51C30000A7
:203200000000F07FFCB40127FF07794002E0FCB40127FF070C024D002D0E03D1002C52D12F
:20322000FCBC70473C43FF2D50D0A408002900D56442020243001B0E04D1002A43D1080079
:20324000FCBC70473A43FF2B41D09208002800D552425E1B04D5170022003C0076422B0072
:20326000192E06D527003741D2191C27F71B7F42BC40002A27D002D55242012700E00027D5
:20328000013B5200FCD51500802635400FD01500202635402C43803208D215004026354005
:2032A0002C4304D101263602B24300E05B1C5200023308DDFF2B0BD2500ADB051843FF0711
:2032C0003843FCBC70470020FCBC70470800C70FFF07FF20C0053843FCBC704780B588B056
:2032E000034605A80370049103920078002809D1FFE70398102805D3FFE703982749884275
:2033000004D3FFE706A90120087042E00498002808D1FFE705A8007801F09AFD06A9002087
:20332000087036E0EFF3108007900798029072B61B48007800280AD0FFE70298002802D145
:20334000FFE762B6FFE706A90220087021E0039801F0F4FA04981349086013490020087071
:203360000F480121009101701048019002F050F90099019802F08AF8019802F09DF902984D
:20338000002802D1FFE762B6FFE706A900200870FFE706A8007808B080BDC0468913000064
:2033A000B0012020AC012020B10120200020864080B584B0FFE72B4802F0B4FA014603A803
:2033C00001700078062819D1FFE72648012102F0E7FA029024480078002808D0FFE72348DC
:2033E0000068029901F01AFD22490860FFE702981E4908601C49012008702BE003A8007874
:20340000052826D1FFE71748002102F0C9FA01901548007800281BD0FFE7144800680199B0
:2034200001F0FCFC009000981149086011480068009988420BD9FFE70098002807D0FFE74E
:203440000D49002008600D4901200870FFE7FFE7FFE7FFE7FFE703A800780028ABD1FFE774
:2034600004B080BD00008740B8012020A4012020A0012020A80120209C012020B901202015
:20348000F0B5294A8218294BC0180B79202B0DD0274C002B1CD10D686D1E4560C56E2540BA
:2034A0008835C5660646703688251CE00C68641E4460C46E1E4D2C401E4EA419C466046F20
:2034C0002C40A41904671C4C01256D0706460AE00525ED010E6876084660C66E2640761945
:2034E000C66606467036376827402F433760C46A124D2C40C462046B2C4004630024C464F2
:203500000465C46F8F25ED432C40C46714682C401460497919430268094B1340BD220A40E0
:20352000D118891C0160F0BD841800000418000024493E0001040000FFFFFFCF8888FDFFAF
:203540004000FFCF80B582B001902C48007A002801D1FFE750E0294800210172019942691D
:20356000891A009109214056012804DBFFE7009801280CDCFFE721480921405600280BD5A9
:20358000FFE700980121C943884205DCFFE71B490020C86008612FE0184809214056012881
:2035A00006DBFFE700980121C94388420ADBFFE7124809214056002815D5FFE70098032814
:2035C00011DBFFE70D48C2680169891801610021C16041720069402804D3FFE7022001F097
:2035E000D7FDFFE708E00548C068402804D3FFE7012001F0CDFDFFE702B080BD5C01202041
:20360000F0B58B4200D1824204D90B0002000021002040E0002B00D1002A0CD10B00020048
:2036200000210020002B00D1002A01D0C943C04300F0B5FA2FE01C0015000B0002000CB497
:20364000002126002F00FF19764102D2491C4029F9D100201E001700FF19764102D2401C65
:203660004028F9D10E1A21002800320001F0AAFE0C0005000CBC00200021A34200D1AA4220
:2036800001D3521BA341404149416D08E7073D436408761EF1D5059F002F01D03A607B6038
:2036A000F0BD704780B582B0184900200860184908601849086018490870184908701849B1
:2036C000087001F0D5FA174800F032FE1648019000F02EFE154800F02BFE154800F028FE3F
:2036E000019800F025FE1348102100F021FE124800F01EFE1148042100F01AFE104800F04F
:2037000017FE00F0F9FB02B080BDC046980120209001202094012020B2012020B301202055
:20372000B401202030620000095E0000625D00009A5D0000AD5E0000BC5F00004861000016
:203740006B61000080B588B03520082101F066FE0120059001062148069001F005FF05980F
:20376000072101F0FFFD00200390062101F0FAFD2F20052101F0F6FD14200221029101F03E
:203780004DFE0299152001F0EDFD222001F004FF212001F001FF039B0598009302043620A1
:2037A000194601F0D3FA069803210903049102F025F80499069801F0D7FE059906988904B0
:2037C00001F00EFF059906984906079101F00AFE0698079901F014FE08B080BD00000A404F
:2037E00080B584B0024602A802700191007800281FD1FFE71948007800281AD0FFE7019989
:20380000084601F0DBFF002813D1FFE70198144900F09CFC00280CD1FFE70198114900F051
:2038200077FC002805D1FFE70F488079002804D0FFE703A9012008700CE0019800F0A6FDA2
:20384000094908600120087100204871C87103A90870FFE703A8007804B080BDB6012020ED
:203860000050C3470050C3C75C01202080B584B0FFE71E4801F068FF002835D1FFE71B48F3
:2038800002F002F8014603A8017000780D2805D0FFE703A800780A2813D1FFE7144800787E
:2038A00000280DD0FFE71248019002781148002102918154FEF76EFC019902980870FFE7E5
:2038C00011E00B480078262808D8FFE70398084B1A78511C19700749885403E00449002026
:2038E0000870FFE7FFE7C4E704B080BD00801040B70120203401202080B588B01A4801904B
:2039000001F056FE1948029001F052FE1848039001F096FE1748049001F092FE164805904F
:2039200001F08EFE1548069001F08AFE1448079001F016FF019801F023FE029801F020FE51
:20394000039801F071FE049801F06EFE059801F06BFE069801F068FE079801F0DDFE1020EC
:2039600002F082F808B080BD00000A4000200A4000208640000009400000874000400840B4
:2039800000801040FCB40127FF0706004E4001D4002600E03E00020243001B0E30D03A43DF
:2039A000FF2B30D00C024D002D0E29D03C43FF2D29D05B194240504042404C4061404C40E9
:2039C00000B501F037F920BCAE464240504042404C4061404C4025001400002C01D4640056
:2039E000013B803401D3013364087E3B08DDFF2B09D2BC43200ADB0518433043FCBC70477A
:203A00000020FCBC7047FF20C0053043FCBC7047024670B50A4392072AD11E4DEE0104C8DD
:203A200008C9541B9443344017D0D0B2D9B2401A2106014310D190B299B2401A2104014311
:203A40000AD110021902000A090A401A2102014302D1100E190E401A70BD9A42DFD010BA8C
:203A600019BA884201D9012070BD0020C04370BD02780B7801300131002A09D09A4207D11A
:203A800002780B7801300131002A01D09A42EFD0D01A70BD0101010180B584B0024603A8B9
:203AA000027002910078002809D1FFE70298002805D0FFE717480078002801D1FFE726E067
:203AC000002001F073FA0299086013480190006802994860029948680A68801A88600298F5
:203AE000006801F009FC0299C8600298406801F003FC01460198029A11610179029A1175E9
:203B00004179029A5175807902998875FFE704B080BDC046B60120205C012020FCB40127AF
:203B2000FF0706004E40F60FF607020243001B0E2DD03A43FF2B2DD00C024D002D0E26D04C
:203B40003C43FF2D26D05B1B0020202164085208A2424041A24200D3121B013904D0002AA6
:203B600001D05200F4D18840384201D14000013B803001D3013300E040007F3307DDFF2B35
:203B800008D2400ADB0518433043FCBC70470020FCBC7047FF20C0053043FCBC70477047D8
:203BA00070B582B04A790B79002A25D0184A202B02D00524E40100E0164C8218002B00D1E3
:203BC0008824156C144E35402D191564556C35402C1954641468114D2C40146054682C400D
:203BE0005460002414625462146D8F25ED432C401465546D2C4054650A6800926A46137159
:203C0000897951711146FFF73BFC02B070BDC046381800000104000024493E008888FDFF6B
:203C200080B584B0024602A8027001AA11700078002805D1FFE701A80078022804D3FFE727
:203C400003A90120087020E012480078002804D0FFE703A90220087017E001A800780028E5
:203C600006D0FFE7012041030B4801F0ADFC05E001204103084801F0B7FDFFE70198074928
:203C8000087003A900200870FFE703A8007804B080BDC046B001202000000A40B501202037
:203CA00080B584B015490020029008601449086014490860144A6521116014490870144912
:203CC0000870FEF766FA01F06DFD02991148019001F0C6FD019801F0E3FC02980E490860C1
:203CE000486088608881086148610120039001F0B5F9039801F0F4F904B080BDA401202077
:203D0000A8012020A00120209C012020B8012020B90120200000094078012020F8B5451CF9
:203D200000780023082B32D02F78C2070CD16A780F241440E41C122C0BD102242E57F4B292
:203D4000002E08D4EE1C0EE06D1C4A1C0F7011461AE0AE1C08E02E1DED7800957F252C409B
:203D6000009DED012C1912343D0112095219094DAA420ED0D243002C05D08D5C4F1C0D7062
:203D8000641E3946F7E7354640085B1CCAE72846C5E7F8BDFF0F0000FEB502930F46194D79
:203DA0000024E143184E00973740019043422B46BB4101D20C4623E0084602990E405342D0
:203DC000B54101D204461BE0134601990B433E431E43029D009E13D02B46334004D401993C
:203DE0008B1A3346AB4103E00199531A2B46B341044605DB51406E400E43701E86413446E1
:203E00002046FEBD0000F07FFFFFFF7FFFE7FEE70CB41B4B4A00D21A1BD2000D0A03104315
:203E200001221202801802D3400812038918400A002902D50122D20710434900490D38224E
:203E40001201891A0CD4FF290DD2C90508430CBC7047DB431A40024305D0D8430CBC704701
:203E600000200CBC7047C90FC907FF20C00508430CBC7047C046C046C046C046C046C04629
:203E80000000E0FFF8B5009003680C68194D2678AF197F78FF060CD51E78AE197678F60637
:203EA00004D51668761C16605B1CF5E7641C0C60EDE70025F6B2002E13D0252E0CD0661904
:203EC000761C0E60605D5F5DB8420CD11068401C106036786D1CEDE75819009908600120B0
:203EE000F8BD0020F8BD0020002F00D0F8BDC043F8BDC046205B000080B50F4800F018FA9D
:203F00000E4800F015FA0E4800F012FA0D4800F00FFA0D4800F00CFA0C4800F009FA0C48C6
:203F200000F006FA0B4800F003FA0B4800F000FA0A4800F0FDF980BDF05C00003E5F0000B6
:203F4000775E0000405E00000660000087600000A2600000E25E000069600000295D000010
:203F600080B584B00390144801F022FD02A90880029812498A89821A01A80280029A8A8130
:203F80000022825E0868801808600D480068642806D8FFE7039A0A49086880180860FFE75C
:203FA00007480068652804D3FFE7064900200870FFE704B080BDC04600000940780120203A
:203FC0009C012020B9012020F8B50446164F174D0E462E400120009464423C46B4411AD3C9
:203FE0001D405442AF4116D31046009C20433543054311D00020C0431C460C400ED4009CB0
:20400000A41A0C469C4106DB0098504059400143481E81410846F8BD0020F8BD009C141B02
:204020001C468C41F0DAF6E70000F07FFFFFFF7FF8B51C4617460E46054601F0F6FC0021B0
:20404000012E03DBB04201DBA919491E002F04D02268531E23602E2313703246824206DDE8
:2040600023685F1E276030271F70521EF6E7B04200DB3046012808DBA9420BD3087822685C
:20408000531E23601070491EF6E72068411E216030210170F8BD704710B5FFF795FF00285B
:2040A00001D0002010BD012010BDC04610B5FFF78BFF002801DB002010BD012010BDC04624
:2040C00010B5FFF781FF002801DD002010BD012010BDC04610B5FFF75FFE002801DA002083
:2040E00010BD012010BDC04610B5FFF755FE002801DC002010BD012010BD000010B500F05C
:204100007BFD002801D0002010BD012010BDC04610B500F071FD002801DB002010BD012018
:2041200010BDC04610B500F067FD002801DD002010BD012010BDC04610B500F021FD0028B1
:2041400001DA002010BD012010BDC04610B500F017FD002801DC002010BD012010BD0000FA
:2041600080B584B013491448039001F0C7F903981249FFF715FD03980121029100910023D8
:20418000019319461A4601F067FA0199029A039801F0A6F9029A03987D21C90001F010FC7E
:2041A000039801F049FB0398022101F04FFB04B080BDC0468D610000002086400462000005
:2041C00082B0009000981349884203D3FFE7124801901BE00098C92804D3FFE7E120C000B6
:2041E000019013E00098332804D3FFE7E120800001900BE00098102804D3FFE7E1204000C0
:20420000019003E0192000010190FFE7019802B07047C04621030000B80B000080B586B01F
:20422000002304930093212019461A4600F05EFE01200290010301910D48039001F088F942
:204240000199039801F0C0F902990398490301F0CBFA04980749087000F02AFB1320059006
:2042600000F012FF059800F051FF06B080BDC04600000A40B501202080B5124801F05BFB51
:20428000012801D0FFE71CE00F480078002805D0FFE70E480078002801D0FFE711E00C489E
:2042A0000068002805D0FFE709490868401E0860FFE707480068002803D1FFE700F0F8FACA
:2042C000FFE780BD00208640B0012020B1012020AC01202070B514460F4D0B462B4000224C
:2042E00022600E4EB34215D81E46064312D01E0D07D100220A4BFEF7C9FD0D403522D24381
:204300002B461B0D9A18074BD2182260064A0A400649511870BDC046FFFFFF7FFFFFEF7F27
:204320000000504302FCFFFFFFFF0F800000E03F83B01EB505AC0EC401900F4800688047A2
:204340000E4A9069401C0DD005A902910C48009018320C4B01A8FCF7A1FC04460A480068D0
:20436000804704E00848006880470020C44320461EBC02BC03B00847B0022020BC012020FD
:20438000E15A0000D95A0000B402202080B584B0039003981149FFF7F5FA1149FFF7BEFBDA
:2043A000029002980021FFF7C7FE002809D0FFE702983F210906FEF72AFF00F091FC0190D9
:2043C00008E00298BF210906FEF721FF00F088FC0190FFE7019804B080BDC04600007A451D
:2043E0000000B44380B586B0059005981921CA0100230093194600F091FF009B03910290CE
:20440000039902980C4A801859417D22520101F059FA01900198002803D1FFE701200190EA
:20442000FFE70198092803D3FFE708200190FFE7019806B080BDC0469F0F0000F0B587B055
:204440000191064602AD0020E874123537460A243846214600F04AF84443391BCA175140FD
:20446000891A3031297009376D1E122F0746EED8002E01D46D1C01E02D20287002A8441B25
:20448000224614320198294601F022FB1334204607B0F0BDF0B5FFB086B01C4615460246B8
:2044A000A868002801D50620A8602368039304AB0090019305A80B46FEF734F90646049FBD
:2044C000AA683946234600F029FD20680399814201D0012202E028680007C20F30463946B2
:2044E0002346FFF7A5FD7FB006B0F0BD1CB5002922D04C08002900D5494242105440002852
:2045000000D5404200230A00904201D95200FBE790425B41904200D3801A914201D252088A
:20452000F6E71900002C00D54042640000D549420200080011001CBD01000020FFF7B1F88A
:204540001CBD000080B582B0014601A801700078002805D1FFE70E480078002801D1FFE7B0
:2045600013E001A8007800F073FC0020009000F01DFD0246009807490A60087101224A711D
:2045800088710872C8600861FFE702B080BDC046B60120205C01202010B585B000930B46CA
:2045A0000099049003A80380029201AB197004991A7892008A18094C094911510299049A32
:2045C0001B789B00D2183123DB01D1500088054908430499044A885005B010BD30180000C4
:2045E00001000200120000100418000082B00146684601700078002803D1FFE70F480190A0
:2046000012E068460078012803D1FFE70A4801900AE068460078022803D1FFE705480190EA
:2046200002E003480190FFE7019802B07047C046F3610000115F0000296000002B620000F4
:2046400080B582B010491148019001F07DF901980F4900F009F90198002100F0A3FE019882
:2046600015212D2200F090F8019801F049F80198202100F0DDFD0198022100F0EDFD01989F
:2046800001F07AF802B080BD4562000000801040E06100007CB515460C460646C017314698
:2046A0004140081A009200210A226423FCF78CFF30460930122808D8DF202040502804D0FF
:2046C0002868411E296030210170002E01D42B2000E02D2029684A1E2A6008702868411E3B
:2046E000296004707CBD000080B582B0014601A801700078002805D1FFE70D48007800286B
:2047000001D1FFE712E001A8007800F0A1FB0020009000F061FC009806490860087101225A
:204720004A7188710872C8600861FFE702B080BDB60120205C01202080B584B00F49104838
:20474000039000F0DBFE0398492149020191002302931A46FFF720FF0199029A03980123F9
:20476000FFF71AFF0398074900F08EFF039801F063F8039800F0ACFF04B080BD3962000019
:2047800000000940FFFF000080B584B003900291019203980B49401802990B4A00F020FD6C
:2047A00003980A49401801993F2200F019FD0399074A881889580122114000F011FD04B01E
:2047C00080BDC04610110000FFFF000014110000041100000CB54A00520D03231B02FF335E
:2047E000D21A13D31F239A1A12D98E46C9020123DB071943D1400B2A02D21532D040014350
:204800007346002B00D5494208000CBD00200CBD0B000120C007002B00D401380CBD0000A6
:2048200080B582B00146684601700078002807D1FFE76846007800F0E5FB002804D0FFE775
:2048400001A90120087009E00649087E4242504108760020086101A90870FFE701A8007812
:2048600002B080BD5C01202070B511221302C218C4580125AC43C4500C888D7825438C880B
:204880002C43C558084E2E40084D2540AC19C4508879CB790343087A184351687E23994397
:2048A00018400818506070BDE798FDFF1867000080B584B00C4801900121029100F0D8FDE1
:2048C000019800F011FF0198029A0021039101F077F800F0E3FF039804490860044908700E
:2048E0000449087004B080BD00208640AC012020B0012020B101202010B50E490E4A0123B4
:204900005C0590600868204205D10868204202D108682042F6D010681B04034313600868A1
:20492000C00605D40868C00602D40868C006F6D510BDC04604020B4004010B4080B584B0EE
:204940000390039800F01CF802900298401E01900A48009000F0C8FE00F0AAFF00980199A7
:2049600000F086FE0098019900F084FF009802994908012201F024F804B080BD0020864093
:2049800080B582B00190019948080C4A801800F059F800900098632803D8FFE7642000907E
:2049A000FFE768464088002803D0FFE704480090FFE76846008802B080BDC04640420F003C
:2049C000FFFF000080B582B00020019000F014FE0120400200F0D6FC019800F02DFD00F0F7
:2049E000CFFF00F015FF0648FEF732FB102000F031FD00F017FF0198FFF77EFF02B080BD26
:204A0000945F000080B5FEF777FFFEF79BFEFFF7D9FFFFF7A5FBFFF78FFE00F033FA00F081
:204A20004BFAFFF70DFE00F0D3FF0449B8220020885403497422885480BDC046000020200A
:204A4000BC0020201CB50A0017D000230124E407A04200D20400944201D95200FBE79042F7
:204A60005B41904200D3801A914201D25208F6E719000200080011001CBD01000020FEF75B
:204A800010FE1CBD08B443001B0E0FD0FF2B11D00721C9015B18C10FC9020B43010048077F
:204AA0004902090B1B05194308BC70470021002008BC704701004002C90DC900C91D09050E
:204AC00008BC704710B50E4902788B185B78401CDB06F9D400212D2A04D02B2A02D0401E74
:204AE000134600E00378303B092B04D80A244C431919401CF6E72D2A00D14942084610BD91
:204B0000205B000080B584B002900191FFE702980078002810D0FFE70298411C02910078A5
:204B2000019900F01FFB401C002804D1FFE70020C043039003E0EAE700200390FFE70398F4
:204B400004B080BD06B49E22002802D404D106BC7047414204D400E00100013A4900FCD50D
:204B6000803101D3013200E04900490AD2051143002802D50122D2071143080006BC704706
:204B800040B542004B005E08164301D006004E4000D4D01A04D20120C90F06D1404204E0A5
:204BA00003D90120C90F00D04042FF263606B24200D8B34201D90120404240BD70B50A48BB
:204BC0000A4C84420CD00A4D0A4EB54208D02A686968501C12789200A25890470835F4E78B
:204BE00000BF00BF70BDC046986200008C620000A0620000B062000040B542004B005E0820
:204C0000164301D006004E4000D4D01A04D20120C90F06D1404204E003D90120C90F00D067
:204C20004042FF263606B24200D8B34200D9012040BD0000FCB4020C0B0CFF242402FF3488
:204C4000204021400C00444315005D4306005E430F005743320C3B0CA818C01832043B0469
:204C60000025A1186841C9186841FCBC7047000080B582B00A4A0020106010710121019134
:204C800051719071D07110725072D06010615061117600F0A1F901980249087002B080BD1E
:204CA0005C012020B601202080B582B00A4800F027FE1A280DD1FFE700F096F80246074976
:204CC000019108698018086100F074F80199486100E0FFE702B080BD00000A407801202079
:204CE00006B54100090E7F390DD41F22511A0CD9864600020122D2071043C8407246002A70
:204D000000D5404206BD002006BD02000120C007002A00D4401E06BD80B582B0014601A836
:204D200001700078002801D0FFE70BE001A8007800F08EF804490020087148710872C860E8
:204D40000861FFE702B080BD5C01202010B584B0069C039002910192009302980199084312
:204D600000990843069908430349084303998900024A885004B010BD810004000480424079
:204D800080B584B000920A4601460098039102A90A7001AA10700398054BC0180978127837
:204DA00052001143032200F007FA04B080BDC0460411000080B582B0094800F0F9FD01A9E3
:204DC0000880019807498A89801A6A46108008680023D25E80184968401A02B080BDC0461A
:204DE000000009407801202080B584B00A4800F069FB01464842414103A80170017800209A
:204E0000C043012201920029029001D101980290029804B080BDC0460000094083B0019083
:204E2000009101980099884205D3FFE701980099401A029006E001980099401A03494018F3
:204E40000290FFE7029803B07047C04600093D0080B584B0014602A801700078002801D04E
:204E6000FFE70DE0EFF3108003900398019072B6FFF71EFD0198002802D1FFE762B6FFE77D
:204E800004B080BD80B582B008490948019000F035FB01980749FEF76BF80198302100F04C
:204EA00003FB019800F0C8FC02B080BD915F0000000087409061000080B582B00849094807
:204EC000019000F01BFB01980749FDF76BFF0198012100F0E9FA019800F0AEFC02B080BD44
:204EE0003C620000004008400C61000010B584B0069C0390029101920093029801990843B9
:204F000000990843069908438121084303998900014A885004B010BD04804240F8B51C46F8
:204F200015460646571800F080FD711E012D0CDB3022012F02DB874200DCCA5D23685E1E18
:204F400026601A707F1E6D1EF0E7F8BD82B0F8B50692079306AA0392054B0193054B009370
:204F6000054BFBF7ADF804B080BC02BC02B00847E95A0000D9580000853E000080B582B0FD
:204F800000200190FFF73EFDFFF748F9FEF788FEFEF788FB1020009000F04AF8009800F08B
:204FA00089F8FFE700F077FDFCE7000082B00146684601700078002803D0FFE700200190A1
:204FC00005E0044908684968401A0190FFE7019802B070477801202081B00146684601705B
:204FE0000078002801D0FFE707E00549086848600020886008614861FFE701B07047C0469F
:205000007801202082B0014601A801700078002804D1FFE705480078009002E00020009002
:20502000FFE70098C0B202B07047C046B001202081B001466846017000214056002809D4CD
:20504000FFE7684601781F2001400120884002490860FFE701B0704780E200E081B001461F
:205060006846017000214056002809D4FFE7684601781F2001400120884002490860FFE746
:2050800001B0704780E200E081B001466846017000214056002809D4FFE7684601781F20C7
:2050A00001400120884002490860FFE701B0704780E200E081B00146684601700021405635
:2050C000002809D4FFE7684601781F2001400120884002490860FFE701B0704700E100E093
:2050E00081B001466846017000214056002809D4FFE7684601781F2001400120884002499C
:205100000860FFE701B0704700E100E081B001466846017000214056002809D4FFE7684631
:2051200001781F2001400120884002490860FFE701B0704700E100E004B40422002802D1F2
:20514000002104BC704701D50832404212021F320100521E4900FCD30805090B12051143AB
:2051600004BC704780B582B001900091FFE7074800F0DEFA002801D0FFE7F8E701A8017852
:20518000024800F004FB019802B080BD0080104080B582B001A908700198064988710020F4
:2051A000087148710872C8600861FFF751FE02B080BDC0465C01202084B0039002910192EE
:2051C000039800680090009801998843009000980299019A114008430399086004B07047D6
:2051E00084B0039002910192039800680090009801998843009000980299019A1140084338
:205200000399086004B0704781B000900549042008600098401E0449086004490020086004
:2052200001B0704710E000E014E000E018E000E080B584B0019101460198039102A90870F8
:205240000398044A801809787022FFF7C9FF04B080BDC0460C11000080B584B001910146A6
:205260000198039102A908700398044A801809780722FFF7B5FF04B080BDC0460C110000F5
:2052800082B0014601A801700078002804D1FFE704480069009002E000200090FFE70098CB
:2052A00002B070477801202002B49E21002805D401D102BC704701394000FCD5803001D340
:2052C000013100E04000400AC905084302BC7047084880F3088800BF00BF00F01BFC0028A4
:2052E00001D0FFF76BFC0020FFF748FE012000F002FCC0460080202080B582B001900198BE
:20530000FFF720FC0349FEF73DFB0349FEF706FC02B080BD0000B44300007A4530B5140021
:205320004C4325001C0044436419050010002900FFF780FC001904000D002100280030BD89
:20534000B0B504460020002B08D0D2B20D782570954204D0641C491C5B1EF7D1B0BD601C23
:20536000B0BD000082B00190009100980349084301998900024A885002B070478000040009
:205380000480424080B582B0014601A8018001880F2002020248FFF723FF02B080BDC0461C
:2053A00004010B4080B582B001900091019811210902401800990322D203FFF711FF02B09B
:2053C00080BD000018B520239B1A04D8010000205B42994004E004009140DC40214390404F
:2053E00018BD000082B001900091009B0199034A88581843885002B07047C0464810000028
:2054000082B001900091009B0199034A88581843885002B07047C0462810000082B0019039
:20542000009100988021084301998900014A885002B070470480424080B582B0014601A84B
:205440000170017802480322FFF7CAFE02B080BD00010B4080B582B0014601A801700178B9
:2054600002483022FFF7BCFE02B080BD04010B4082B001900091009B0199034A8858984310
:20548000885002B07047C0462810000082B001900091009B0199034A88581843885002B0F2
:2054A0007047C0462810000082B001900091009B0199034A88581843885002B07047C0469F
:2054C0002810000082B001900198044940580121084000906846007802B07047BC180000F6
:2054E00010B592008018044A83580724A404A34321405918815010BD3018000010B501223B
:20550000120383180C789C604B7883508978014A815010BD0C11000080B505490868401D6E
:2055200008600520FEF71CFDFCF7B2FF80BDC0469801202080B5054800F0EBF9012803D1BD
:20554000FFE7FFF7E9FFFFE780BDC0460040084082B00190009100980199024A885002B07A
:205560007047C046D012000082B00190009100980199024A885002B07047C046D012000091
:2055800081B0009000990120C2020248885001B07047C0460100002681B00090009881003B
:2055A000024A8120885001B07047C0460480424081B000900099024A0248885001B0704782
:2055C00004080000030000B182B00190009100980199024A885002B07047C0469012000050
:2055E00082B001900091009B01999D20420188581843885002B0704781B00146684601700F
:2056000000780249086001B07047C04608030B4082B00190009100980199024A885002B03F
:205620007047C0464810000081B0009000990120C2020248885001B07047C046010000265F
:2056400081B000900099024A0248885001B0704704080000030000B110B5029CA40000193A
:2056600011431943014A815010BDC0465018000082B00190009100980199024A885002B0C7
:205680007047C0460818000082B00190009100980199024A885002B07047C04608180000F4
:2056A00081B000900099034A885801231843885001B070470418000081B000900099034AE1
:2056C000885801231843885001B070470418000081B000900099034A885801231843885031
:2056E00001B070470418000081B000900099034A885801239843885001B070470418000044
:2057000081B00090009911200202885801235B041843885001B0704781B000900099012081
:20572000C2020248885001B07047C0460100002681B000900098034940580121084001B096
:205740007047C0460811000081B0009000980349405804210840800801B0704708110000C0
:2057600081B000900099024A0248885001B0704704080000030000B181B0009000991120AE
:205780000202885801231843885001B0704782B0019068460170007801998922520188509C
:2057A00002B0704780B582B015200190FFF756FC0198FFF795FC02B080BD000042004B006F
:2057C0000020FF2109068A4200D88B4200D90120704703228058002805D0401E4A1C002377
:2057E0000B701146F7E7704782B0019000910098019995225201885002B0704782B00190AE
:2058000000910098019995225201885002B070470349086801221202904308607047C0468F
:2058200008010B400349086801221203104308607047C04604010B4081B000900099024AB2
:205840000120885001B070470811000082B0019000910098019911221202885002B07047C0
:2058600082B001900091009801990322D202885002B0704782B001900091009801990322BD
:20588000D202885002B0704781B00090009802494058C0B201B070472411000080B5034828
:2058A00001221146FFF76CFA80BDC0460020864080B5034800221146FFF762FA80BDC0465B
:2058C0000020864040B584B002AE0096FDF798FE029A039B04B040BD01460068421C007879
:2058E0000A60002801D10020C0437047C9B202788A4204D0002A01D0401CF8E700207047C8
:2059000081B000900098812149014058C0B201B0704781B000900098812149014058C0B281
:2059200001B0704781B000900098812149014058C0B201B0704781B0009000988121490103
:205940004058C0B201B0704710B50122120383180C789C604978815010BD10B500239A429A
:2059600003D0CC5CC4545B1CF9E710BD80B50B4603214258C11D184600F0AAF880BD0000A1
:2059800002490868012290430860704708010B4002490868052210430860704710E000E0BF
:2059A00089004018014940587047C0461018000081B0009000980321C902405801B07047F7
:2059C00092008018014A81507047C0461018000080B501200006FFF717FCFFF7D9FF80BD2C
:2059E00000214258091D002AFBD1081F8010704707461298401C12900C9A521E7047014659
:205A00001298401C12903846632F70471298401C1290E0194078C006704700000B46114699
:205A20001A4680B500F008F880BD0021425C491C002AFBD1481E704700239A4202D0C15487
:205A40005B1CFAE7704700000A46002180B5FFF7F3FF80BD80B50020FEF746FE80BD80B56C
:205A60000020FFF759F980BD811E091F00BFFCD2704702460B4620462946FFE782B000945C
:205A8000014C019410BD00BF012000000022304639462B46704780B5FDF7E8FE80BD129842
:205AA000401C12907047014661391A297047284607992A4600E0000082B00094014C019450
:205AC00010BD00BF9940000000487047AC02202080B5FFF742FF80BD80B5FFF743FB80BD25
:205AE00080B5FFF70FF880BD0168491E0160704739460E9A104700F001F8FEE700BF70478D
:205B000000E0704782B00094014C019410BD00BFD1520000012070470000000000000000BF
:205B2000008080808080808080809090909090808080808080808080808080808080808095
:205B4000801804040404040404040404040404040402020202020202020202040404040449
:205B6000040443434343434341414141414141414141414141414141414141410404040467
:205B8000040423232323232321212121212121212121212121212121212121210404040487
:205BA000800000000000000000000000000000000000000000000000000000000000000065
:205BC0000000000000000000000000000000000000000000000000000000000000000000C5
:205BE0000000000000000000000000000000000000000000000000000000000000000000A5
:205C0000000000000000000000000000000000000000000000000000000000000000000084
:205C20000064696F757870000000000000000000000000000000F03F00000000000000405C
:205C4000000000000000084000000000000010400000000000001440000000000000184000
:205C60000000000000001C40000000000000204000000000000022400000000000002440A2
:205C8000000000000000264000000000000028400000000000002A400000000000002C4060
:205CA0000000000000002E4000000000000024400000000000005940000000000088C340EE
:205CC0000000000084D797410080E03779C34143176E05B5B5B89346F5F93FE9034F384DC8
:205CE000321D30F94877825A3CBF737FDD4F15750D0A3D3D3D3D3D3D3D3D3D3D3D3D3D3D81
:205D00003D3D20CAB5D1E93420B4AEBFDAD6B8C1EECBB5C3F7203D3D3D3D3D3D3D3D3D3D68
:205D20003D3D3D3D3D3D0D0A003D3D3D3D3D3D3D3D3D3D3D3D3D3D3D3D3D3D3D3D3D3D3D63
:205D40003D3D3D3D3D3D3D3D3D3D3D3D3D3D3D3D3D3D3D3D3D3D3D3D3D3D3D3D3D0D0A0D36
:205D60000A002A20204D5334324347202B204433364120B2BDBDF8B5E7BBFAB1D5BBB7BF7A
:205D8000D8D6C620D0A1B0D7C0FDB3CC202020202020202020202A0D0A002A2020D6F7BFC4
:205DA000D83A204D53504D3047333530372020B4AEBFDA3A203131353230302D382D4E2D63
:205DC00031202020202020202020202020202A0D0A00D6E1313A20C4BFB1EA3D252E326629
:205DE000B6C820CAB5BCCA3D252E3266B6C820CEF3B2EE3D252E3266B6C8205B25735D20A3
:205E0000B9CAD5CF3A257320002A2A2A2A2A2A2A2A2A2A2A2A2A2A2A2A2A2A2A2A2A2A2AA3
:205E20002A2A2A2A2A2A2A2A2A2A2A2A2A2A2A2A2A2A2A2A2A2A2A2A2A2A2A2A2A0D0A0089
:205E400020205320202020202020202020B2E9D1AFD6E131D7B4CCAC28BAAC50574DBEF831
:205E6000B6D4BDC7B6C8BACDD3D0B7FBBAC55AC8A6CAFD290D0A0020204131203CBDC7B624
:205E8000C83E2020D6E131D7AAB5BDD6B8B6A8BDC7B6C82C20C0FD3A20413120393020BBBA
:205EA000F2204131202D34352E350D0A00B5B1C7B0CFB8B7D6C9E8D6C320443336415F4D39
:205EC0004943524F53544550203D2025752028CEF1B1D8BACDB2A6C2EBD2BBD6C221290DAA
:205EE0000A0020204431202020202020202020B7ADD7AAD6E131D5FDB7BDCFF2B5E7C6BDD0
:205F000028B7BDCFF2B7B4C1CBCAB1D3C3290D0A00B7BDCFF2B7B4C1CB21C7EBB8C44158C8
:205F200049535F585F504F5349544956455F4449525F4C4556454CBBF2B7A2443100D3C316
:205F4000B4AEBFDAD6FACAD6B7A2CBCDD2D4CFC2D6B8C1EE28BDE1CEB2BCD3BBD8B3B5BBE6
:205F6000BBD0D0293A0D0A00CAA7B0DC2120B8C3D6E1BFC9C4DCD3D0B9CAD5CF2C20CFC807
:205F8000B7A220433120C7E5B3FDB9CAD5CF0D0A0008000001000000000000000000000051
:205FA0004000000000000000000000000200000004000000010000002C00C441B5E7BBFA18
:205FC000CAFDC1BF204D4F544F525F434F554E54203D20312028D6BBCAB9D3C3D6E1312930
:205FE0000D0A00CEB4D6AAD6B8C1EE3A2025732028B7A2204820B2E9BFB4D6B8C1EECBB565
:20600000C3F7290D0A0020205A20202020202020202020D6E131B5B1C7B0CEBBD6C3C9E814
:20602000CEAAC1E3B5E30D0A00CEDEB1E0C2EBC6F7B7B4C0A121C7EBB2E9B1E0C2EBC6F7B9
:20604000BDD3CFDF2FB9A9B5E700CAA7B0DC2120B5E7BBFAD4CBB6AFD6D0B2BBC4DCB7AD2B
:20606000D7AAB7BDCFF20D0A0020204820202020202020202020D6D8D0C2B4F2D3A1B1BEC2
:20608000CBB5C3F70D0A0020205820202020202020202020C1A2BCB4CDA3D6B9D6E1310D10
:2060A0000A0020204331202020202020202020C7E5B3FDD6E131B9CAD5CF0D0A004F4B3AAC
:2060C00020D6E13120C4BFB1EABDC7B6C820252E3266B6C80D0A004F4B3A20D6E131D2D159
:2060E000D4DAB5B1C7B0CEBBD6C3C7E5C1E30D0A004F4B3A20D6E131D5FDB7BDCFF2B5E70D
:20610000C6BDD2D1B7ADD7AA0D0A00000200000069180000010000000000000000000000D9
:206120004F4B3A20D6E131B9CAD5CFD2D1C7E5B3FD0D0A0050574DBEF8B6D4BDC7B6C83DD3
:20614000252E3266B6C82000B5B1C7B0D4CBD0D03A20CAB5D1E9256420003031323334352F
:2061600036373839414243444546002D20B4AEBFDAD6B8C1EECAB5D1E90D0A003031323311
:206180003435363738396162636465660008004F00000000FF083D000100000000000000C7
:2061A0004F4B3A20D6E131D2D1CDA3D6B90D0A000000000003000000020000000000000045
:2061C00002000000000000005AC8A6CAFD3D256C640D0A0050574DCEDED0C5BAC520000011
:2061E00000001800000000300000494E46494E49545900C7FDB6AFB4EDCEF300EA61000017
:2062000035620000E803000000010000D4CBB6AFD6D000D2D1B5BDCEBB000A00080A101077
:20622000413120256600BFD5CFD000D5FDB3A3000D0A0D0A004E414E0008000008001F4369
:20624000310044310008005A0048003F005800530000000000000000000000000000000004
:20626000005500000F0112014001018F012202C01502030F01240440FF000004BF02017F1A
:206280007E060EF197400033FFF000001D3D00006D590000D357000002000000BA0100007B
:1062A00060620000BC0120209862000000002020F5
:00000001FF
