:1000000000802020513100004D3100004D310000B2
:1000100000000000000000000000000000000000E0
:100020000000000000000000000000004D31000052
:1000300000000000000000004D3100001D1800000D
:100040004D3100004D3100004D3100004D310000B8
:100050004D3100004D3100004D3100004D310000A8
:10006000000000004D3100004D3100000000000094
:1000700000000000251800004D3100004D31000047
:100080004D3100004D3100004D3100004D31000078
:100090004D3100004D310000000000000000000064
:1000A0004D3100004D310000000000000000000054
:1000B0004D310000000000004D3100004D310000C6
:1000C000002243088B4274D303098B425FD3030A97
:1000D0008B4244D3030B8B4228D3030C8B420DD3AA
:1000E000FF22090212BA030C8B4202D31212090238
:1000F00065D0030B8B4219D300E0090AC30B8B4276
:1001000001D3CB03C01A5241830B8B4201D38B0323
:10011000C01A5241430B8B4201D34B03C01A5241C8
:10012000030B8B4201D30B03C01A5241C30A8B420B
:1001300001D3CB02C01A5241830A8B4201D38B02F6
:10014000C01A5241430A8B4201D34B02C01A52419A
:10015000030A8B4201D30B02C01A5241CDD2C3090C
:100160008B4201D3CB01C01A524183098B4201D388
:100170008B01C01A524143098B4201D34B01C01A73
:10018000524103098B4201D30B01C01A5241C308EB
:100190008B4201D3CB00C01A524183088B4201D35A
:1001A0008B00C01A524143088B4201D34B00C01A46
:1001B0005241411A00D20146524110467047FFE7B2
:1001C00001B5002000F0F0F802BDC0460029F7D0CC
:1001D00076E7704703460B437FD4002243088B42E7
:1001E00074D303098B425FD3030A8B4244D3030BBE
:1001F0008B4228D3030C8B420DD3FF22090212BA83
:10020000030C8B4202D31212090265D0030B8B42FE
:1002100019D300E0090AC30B8B4201D3CB03C01AE8
:100220005241830B8B4201D38B03C01A5241430BC3
:100230008B4201D34B03C01A5241030B8B4201D3B3
:100240000B03C01A5241C30A8B4201D3CB02C01A1E
:100250005241830A8B4201D38B02C01A5241430A96
:100260008B4201D34B02C01A5241030A8B4201D385
:100270000B02C01A5241CDD2C3098B4201D3CB012C
:10028000C01A524183098B4201D38B01C01A5241DB
:1002900043098B4201D34B01C01A524103098B42DF
:1002A00001D30B01C01A5241C3088B4201D3CB00CA
:1002B000C01A524183088B4201D38B00C01A5241AD
:1002C00043088B4201D34B00C01A5241411A00D25D
:1002D00001465241104670475DE0CA0F00D04942C6
:1002E000031000D34042534000229C4603098B4236
:1002F0002DD3030A8B4212D3FC22890112BA030ABE
:100300008B420CD3890192118B4208D3890192113F
:100310008B4204D389013AD0921100E08909C309C4
:100320008B4201D3CB01C01A524183098B4201D3C6
:100330008B01C01A524143098B4201D34B01C01AB1
:10034000524103098B4201D30B01C01A5241C30829
:100350008B4201D3CB00C01A524183088B4201D398
:100360008B00C01A5241D9D243088B4201D34B00B3
:10037000C01A5241411A00D20146634652415B10F5
:10038000104601D34042002B00D5494270476346D6
:100390005B1000D3404201B5002000F005F802BD1B
:1003A0000029F8D016E770477047C0468446080019
:1003B0006146FFE71FB500F0B1FC002801D4002121
:1003C000C8421FBD10B500F03DFC4042013010BDD9
:1003D00010B500F0A3FC002801DB002010BD0120B7
:1003E00010BDC04610B500F099FC002801DD0020CA
:1003F00010BD012010BDC04610B500F049FC00281A
:1004000001DC002010BD012010BDC04610B500F079
:100410003FFC002801DA002010BD012010BDC046BD
:10042000002B15D1002A13D1002906DB01DC00289E
:1004300006D00020C043410802E0802109060020C8
:1004400007B4024801A14018029003BD5DFFFFFF01
:1004500003B4684601B5029800F020F9019B9E465E
:1004600002B00CBC7047C046002B11D1002A0FD13E
:10047000002900D1002802D00021C943080007B498
:10048000024802A14018029003BDC0461DFFFFFFB5
:1004900003B4684601B5029800F034F8019B9E460B
:1004A00002B00CBC7047C046F0B5CE46474680B59A
:1004B000070099463B0C9C4613041B0C1D000E00C4
:1004C00061460004140C000C45434B4360436143F8
:1004D000C0182C0C20188C46834203D980235B0261
:1004E0009846C444494679437243030C63442D043F
:1004F0002D0CC918000440198918C0BCB946B04673
:10050000F0BDC046F0B557464E464546DE46E0B51E
:1005100004000D009246994683B08B4230D82DD00E
:100520004946504600F0B4FF29000600200000F0C4
:10053000AFFF331A9846203B9B4633D45A46534666
:10054000934042461F00534693401E00AF423AD8A4
:10055000AF4200D178E05B46A41BBD41002B00DA1E
:1005600075E0002200230092019301235A46934034
:100570000193012342469340009328E08242CFD961
:1005800000220023009201930C9B002B01D01C60E1
:100590005D600098019903B0F0BCBB46B246A94625
:1005A000A046F0BD424620239B1A5246DA404146FF
:1005B00013004A468A40170042461F435346934061
:1005C0001E00AF42C4D9002200230092019343468B
:1005D000002BD9D0FB0772081A4346467B080EE071
:1005E000AB4201D1A2420CD8A41A9D41012024198A
:1005F0006D410021013E24184D41002E06D0AB4232
:10060000EED9013E24196D41002EF8D100980199D0
:100610005B4600196941002B24DB2B005A464446F7
:10062000D3402A00E2401C005B461500002B2ADB69
:1006300026009E40330026004746BE403200801A06
:100640009941009001919FE7A342BCD883E74246BD
:10065000202300219B1A0022009101920122DA40FE
:10066000019286E7424620239B1A2A0046469A407A
:100670002300F340444613432A00E2401C005B463B
:100680001500002BD4DA42462F0020232600974085
:100690009B1ADE403B003343CDE7C046F8B5CE465B
:1006A000474680B59146984604000D0000F0FCFED8
:1006B00007000E0002000B0048464146FFF7F4FE1B
:1006C000241A8D41089B380031001C605D60C0BC5D
:1006D000B946B046F8BDC046F0B5C64643025B0A0F
:1006E0004E0245004F00DA00C40F9C46700A904647
:1006F00000B52D0E3F0EC90FB6098C424BD0EA1B38
:10070000002A36DD002F61D0FF2D00D1ADE080231F
:10071000DB041E431B2A00DCD3E001204346181AE9
:10072000430100D48CE080018709380000F092FE7C
:1007300005388740854200DCB6E02D1AB3483840C2
:10074000430704D00F230340042B00D0043043019F
:1007500000D478E06A1CFE2D65D08001430A9C46D7
:10076000D2B26346D0051843E407204380BCB846A4
:10077000F0BD002A35D07A1B002D00D0AFE04346F3
:10078000002B00D1A7E0531E012A00D12FE1FF2A40
:1007900069D01A00AAE0E91B002970DD002F37D0CC
:1007A000FF2D62D08023DB041E431B2900DCB0E058
:1007B00001204044430143D50135FF2D33D00123AF
:1007C000934A0340400810401843B9E7002E00D177
:1007D00083E0511E012A00D1D8E0FF2A45D00A004B
:1007E00098E7FE276A1C174200D086E0002D00D053
:1007F000B7E04346002B00D1F3E00022002EB0D03A
:10080000981B430100D4FAE043460C00F01A97E726
:10081000002E00D1C8E04A1E012900D1AEE0FF2918
:1008200023D01100C1E70023FF229C4699E7FE2157
:100830006A1C114277D0FF2AF5D015004644700893
:10084000430700D07EE7C308FF2D0ED05B025B0A92
:100850009C46EAB285E7002E07D08022D2031342DD
:1008600003D0104201D10C000300002BDBD080200C
:10087000C00318434002430A9C46FF2271E7002947
:10088000D5D07A1B002D60D14346002B24D0531EB7
:10089000012A73D0FF2AE7D01A001B2A00DC85E06A
:1008A00001203D00801985E720233A00451B3800D0
:1008B0000135EA405D1BA840431E984100251043C6
:1008C0003EE7202330009B1A31009840D140431E60
:1008D0009841084322E70C0003001500B4E7FF2FFE
:1008E000C1D080234046DB04184380461B2A51DDDB
:1008F00001200C003D00301A12E743469F1B7B018C
:100900002BD4002F00D010E70023002400229C46A7
:1009100027E7202332003000CA40591A8840431E7E
:100920009841104345E7002D4AD14346002B63D040
:100930000022002E00D114E730004044430100D4CF
:100940007EE7324B013518407AE7FF2F8CD08023A9
:100950004146DB04194388469FE743460C00F71ADB
:10096000E3E64246002A00D075E7002E00D07AE781
:100970008023DB0300249C46FF22F2E63000404443
:100980000125430100D45BE7022518E74346012512
:10099000981BC5E6202344464046D4409A1A90400E
:1009A000431E98412043A4E70D004DE72023414614
:1009B0004046D1409A1A9040431E9841084370E740
:1009C0004246002A00D14FE7002E00D14DE7802299
:1009D000D203134200D148E7104200D045E703009C
:1009E00043E7002E90D00C0084460022B9E643462F
:1009F0000C00F01A013593E684460022B1E6002887
:100A000000D01DE7002300249C46AAE6FFFFFFFB61
:100A1000FFFFFF7DF0B54F464646D6464502C0B5BE
:100A200047000C1C6D0A3F0EC60F002F00D170E06E
:100A3000FF2F00D175E0EB008025ED041D4300235E
:100A400099469A467F3F6002430A984663001B0E10
:100A5000E40F002B4ED0FF2B46D04246D000802220
:100A6000D2040243904600227F3B3100FF1A4B46DE
:100A70006140C9B213430F2B00D9B5E06E489B000B
:100A8000C3589F4600239846260045469246534643
:100A9000022B00D189E0032B00D19EE0012B18D05E
:100AA0003B007F33002B69DD6A0704D00F222A4008
:100AB000042A00D004352A0103D5604B1D403B00B9
:100AC0008033FE2B00DD70E0AD016D0AD8B202E08C
:100AD0000E0000200025C0052843F6073043E0BC87
:100AE000BA46B146A846F0BD4346002B3FD102228C
:100AF000FF3F03E04346002B2DD1012231004B463E
:100B00006140C9B213430F2B34D84D489B00C358E2
:100B10009F46002D13D104239946033B00279A4694
:100B200091E7002D05D108239946063BFF279A46F9
:100B300089E70C239946093BFF279A4683E728005B
:100B400000F088FC7627431F9D4000237F42994692
:100B50009A463F1A77E7404600F07CFC4246431F26
:100B60009A4076235B4290461B1A00227DE7FF23C2
:100B700003227AE70E00FF200025ACE70120C01A0F
:100B80001B28A6DC9E372A00BD40C2406B1E9D413B
:100B900015436B0704D00F232B40042B00D00435E2
:100BA0006B0144D50120002595E7FF20002592E741
:100BB00080250026FF20ED038DE700239846802046
:100BC000C003054209D04346034206D145460543CA
:100BD0006D022600FF206D0A7DE78020C0030543DB
:100BE0006D02FF206D0A76E742466B015001834299
:100BF00019D21B220025013F01261C006D005B005D
:100C0000002C01DB984201D81B1A3543013A002A17
:100C1000F3D15A1E93411D433B007F330E00002B3E
:100C200000DD41E7AAE71A2201251B1AE4E7AD011E
:100C300000206D0A4FE7C04694350000FFFFFFF724
:100C4000D435000070B5420045024E024C00C30F7F
:100C50006D0A0120120E760A240EC90FFF2A06D053
:100C6000FF2C03D0A24201D1B54206D070BD002DA9
:100C7000FCD1FF2CFAD1002EF8D18B4206D00120F6
:100C8000002AF3D12800431E9841EFE70020EDE74A
:100C900070B5420045024E024C00C30F6D0A120EA1
:100CA000760A240EC80FFF2A1BD0FF2C0ED0002A74
:100CB0001BD1002C01D1002E1CD0002D0CD0834262
:100CC0001CD00221581E0840013870BD002E22D1D0
:100CD000002AF4D1002DF2D10028F6D101204042A3
:100CE000F3E7002D17D1FF2CF0D0002CE7D1002E18
:100CF000E5D1E6E70020002DE7D0E2E7A24205DCDF
:100D0000EADBB54202D8E7D30020DEE74342584190
:100D100040000138D9E702204042D6E770B54200D2
:100D200045024E024C00C30F6D0A120E760A240EC5
:100D3000C80FFF2A0BD0FF2C0DD0002A1FD1002C8A
:100D400016D1002E14D10020002D10D009E0002D66
:100D50000CD1FF2C13D1002E08D1002A08D08342D9
:100D600012D00221581E0840013800E0022070BD58
:100D7000002DF4D10028FAD101204042F7E7002CE1
:100D8000EDD1002EEBD1ECE7A24205DCF2DBB5425F
:100D900002D8EFD30020EAE743425841400001382F
:100DA000E5E7C046F0B54F464646D6464402450004
:100DB000C0B5640A0F1C2D0EC60F002D00D18DE0AA
:100DC000FF2D00D192E00023802099469A46E4004E
:100DD000C00404437F3D7802430A98467B001B0E03
:100DE000FF0F002B00D170E0FF2B00D186E04246C0
:100DF000D00080227F3BED180023D20402439046AE
:100E00009C4631004B467940681C0F2B1CD8764A13
:100E10009B00D3589F4639004446E2465346022B76
:100E20000FD0032B00D1D7E0012B37D100200024B5
:100E3000C0052043C9070843E0BCBA46B146A846EE
:100E4000F0BDFF200024F3E7260C2404220C4446C6
:100E50002404240C434627001B0C574374435A4375
:100E60005E4312193B0C9B189C4203D9802252020C
:100E7000944666443F041A043F0CD2199401671E3D
:100E8000BC411B0C920E9B1914439B011C431B017C
:100E900000D49BE0012362081C40144302007F320F
:100EA000002A64DD630704D00F232340042B00D005
:100EB0000434230103D502004C4B80321C40FE2A2F
:100EC000BFDCA401640AD0B2B2E74346002B3DD197
:100ED0004A4601331A4391469C4692E7002C29D199
:100EE00004239946033B00259A4674E7002C1BD146
:100EF00008239946063BFF259A466CE74346FF3593
:100F0000002B0BD102234A461A4391469C4678E7B0
:100F100053463100022B00D083E792E703234A4671
:100F20001A4391469C466CE70C239946093BFF25E2
:100F30009A4650E7200000F08DFA7625431F9C402A
:100F400000236D4299469A462D1A44E7404600F028
:100F500081FA4246431F9A4000232D1A90469C4630
:100F6000763D4EE780240021FF20E40360E7012363
:100F70009B1A1B2B00DD59E722009E30DA4084408B
:100F80001300621E94411C43630704D00F232340C7
:100F9000042B00D0043463011AD50120002447E754
:100FA0008020C003044209D04346034206D1444690
:100FB000044364023900FF20640A39E78020C0033B
:100FC000044364023100FF20640A31E7280065E72A
:100FD000A4010020640A2BE78020C00304436402BC
:100FE000FF20640A24E7C04614360000FFFFFFF725
:100FF000F8B5CE46474643025B0A4E02DA009446F5
:10100000720A914645004A0080B52D0E1F00C40F9C
:10101000120EC90FB609FF2A5BD0012041408C4255
:1010200039D0A81A00285ADD002A6AD0FF2D00D135
:10103000D9E08022D20416431B2800DCE9E001201D
:101040006346181A430100D4B4E0800187093800D0
:1010500000F000FA05388740854200DCCCE02D1A0C
:10106000B5483840430704D00F230340042B00D079
:101070000430430100D4A0E06A1CFE2D00D18DE0B5
:101080008001470AD2B2D0053843E4072043C0BCF0
:10109000B946B046F8BDA81A8046002845DD002AAA
:1010A00070D0FF2D00D19EE08023DB041E43434619
:1010B0001B2B00DCD2E00120604443017AD50135CE
:1010C000FF2D6BD001239D4A034040081040184378
:1010D000C8E7002E20D08C4223D02800FF380028FB
:1010E00039D0571B002D00D09DE06346002B00D166
:1010F000DBE07B1E012F00D10DE1FF2F71D01F001F
:1011000098E0002E00D1A7E0421E012800D1E6E0C1
:10111000FF2868D010008FE701204140A14200D095
:101120007FE7FF2040428046A8444046002838D050
:10113000511B002D00D1AEE0FF2A00D1DFE080235B
:101140006046DB04184384461B2900DCD9E00120FB
:1011500015008019B1E7FE206A1C104271D1002DE4
:1011600000D0A6E06346002B00D1D9E00022002E7B
:1011700000D188E7981B430100D4E1E063460C00EE
:10118000F01A6FE7002E00D1B7E00200013A012803
:1011900000D19CE0FF2826D0904688E7FF22002758
:1011A00071E7FE206A1C104264D0FF2AF6D01500B9
:1011B00066447008430700D056E7C308FF2D12D0DD
:1011C0005B025F0AEAB25EE76246002A00D196E05F
:1011D000002E08D08022D203134204D04846104289
:1011E00001D10C004B46002BD8D08027FF031F43B2
:1011F0007F02FF227F0A46E720233A00451B380082
:101200000135EA405D1BA840431E9841002510436C
:1012100028E720231B1A32009E40C2403000431EA4
:10122000984110430CE7FF2ADBD080236046DB04A3
:10123000184384461B2F56DD01200C001500301A80
:1012400000E763469F1B7B013DD4002F00D0FEE6E4
:1012500000240022002716E70500AFE732004346CE
:101260004146DA4020235B1A9E403000431E9841DD
:10127000104321E7002DA7D16346002B59D000224F
:10128000002E00D1FFE630006044430192D52A4B86
:10129000013518408EE76346002B47D04B1E0129CD
:1012A00015D0FF292BD019004EE70C004B463D000E
:1012B00084E76246002A8BD1002E92D18027002439
:1012C000FF22FF03DFE663460C00F71ABFE630009B
:1012D00060440125430100D46CE70225F2E6634631
:1012E0000125981BAEE6202364466046FC40DF1BC8
:1012F000B840431E984120439FE705005EE74B46F8
:1013000071E7202365466046CD40591A8840431E48
:10131000984128431CE763460C000125F01A91E62A
:10132000002E95D00C004F460022ACE64B460D0037
:1013300044E74F460022A6E6FFFFFFFBFFFFFF7DCD
:10134000002800D036E7002400279CE643024A022A
:10135000400049005B0A520A090E000EFF2806D021
:101360000020FF2902D1531E9A4110007047FE3819
:10137000002BFBD1F4E7C04641024200C30F490AEB
:101380000020120E7E2A03DD9D2A02DD094A9818EC
:101390007047802000040143952A07DC9620821ABA
:1013A000D1404842002BF3D10800F1E7963A914032
:1013B000F7E7C046FFFFFF7FF8B5002813D0C3173B
:1013C000C6185E40C40F300000F044F89E230500AC
:1013D0001B1A962B0FDC082801DD083DAE40760273
:1013E000760AD8B202E0002400200026C00530436F
:1013F000E4072043F8BD992B0CDD05223100121AB9
:10140000D1400A00010030001B318840411E884154
:1014100002431600052D12DC31000D4F39407207D2
:1014200009D00F203040042805D004314A0102D5EC
:101430009F2339405B1B89014E0AD8B2D6E76A1F49
:1014400096403100024F39407207F4D0E9E7C046B8
:10145000FFFFFFFB1C2101231B04984201D3000C5A
:1014600010391B0A984201D3000A08391B09984217
:1014700001D30009043902A2105C40187047C0462D
:10148000040302020101010100000000000000004D
:1014900010B5002903D1FFF7DDFF203002E008007E
:1014A000FFF7D8FF10BDC046F0B557464E4645463B
:1014B000DE46E0B50F001900002306009846100034
:1014C00083B0002F07DA33003C0000275E42A741BB
:1014D00001235B429846002907DA4346DB430C00B0
:1014E0009846030000215842A14134003D00824645
:1014F0008946B9426AD867D049465046FFF7C8FFC7
:10150000834639003000FFF7C3FF5B461B1A9C4639
:10151000203B9B466BD458465146814060460B00A9
:10152000514681400A00BB4200D972E0BB4200D163
:1015300079E034003D005946A41A9D41002900DAA3
:1015400074E00021002001260090019159468E4050
:101550000196614601268E406146009600295FD0C3
:10156000D90756080E435F086146012200230CE0AC
:10157000AF4201D1A6420AD8A41BBD4124196D4136
:101580000139A4185D41002906D0AF42F0D90139D4
:1015900024196D410029F8D1009801995B46001982
:1015A0006941002B4DDB2E002C00DE406346DC4001
:1015B0005B46002B55DB34009C4023006446A6406C
:1015C0003200801A994103E0B04295D900200021F1
:1015D0004346002B04D003000C0000215842A141D7
:1015E00003B0F0BCBB46B246A946A046F0BD624679
:1015F00048462023514690409B1AD9400300009151
:10160000009960460B43514681400A00BB4200D816
:101610008CE70021002000900191614600299FD1B4
:1016200000980199D4E7B142F3D882E761462026B9
:101630000127761A00200021F740009001910197C0
:1016400087E7624620239B1A2A009A40260013004F
:101650006246D6402C001E436346DC405B46002BAE
:10166000A9DA62462023350094409B1ADD4023000E
:101670002B43A3E770B50C4D0C4E761BB61005D06E
:10168000002408CD01349847A642FAD101F09CFD10
:10169000074D084E761BB61005D0002408CD013446
:1016A0009847A642FAD170BD00370000003700000D
:1016B0000037000000370000F0B5C64600B50F2A1D
:1016C00041D903270D003E0005430C0003002E40C6
:1016D0002F423DD11500103D2D09A8462D01AC46E5
:1016E000844427681D001F6067685F60A7689F606B
:1016F000E7681034DF6010336545F2D145460F23AB
:101700000C2401352D01491913404519144222D0EA
:101710008C59AC5104369C1B032CF9D8043B9B0814
:1017200001339B00ED18C91803231A40561E002AE6
:1017300006D00023CC5C1A00EC5401339642F9D158
:1017400080BCB846F0BD0500561E002AF1D1F7E76F
:101750000500561EEDE71A00F6E7C046F0B5050095
:10176000830749D0541E002A45D003000326CAB27D
:1017700002E00135013C3ED301332A703342F8D1F7
:10178000032C30D9FF220A40150215432A041543C1
:101790000F2C34D92700103F3F093E01B4461E00EC
:1017A0001A0010366644156055609560D560103299
:1017B000B242F8D101373F01DB190F270C22274035
:1017C00022403C00002A0ED03E1FB608B400A446BA
:1017D0001A001C1D644420C2A242FCD1032401361D
:1017E000B6009B193C40002C05D0C9B21C191970D9
:1017F00001339C42FBD1F0BD03001400C0E7270079
:10180000E2E7C0460000000010B501F08BFC01F0DB
:1018100031F801F0F9F830BFFBE7C04610B500F031
:10182000C5F810BD10B5024800F04CF910BDC04617
:101830000000104030B5002833D0002931D080247A
:101840001F4A240283582343835080231D4A5B0090
:1018500085582B431C4D83504359234207D11B4BC2
:1018600002E0013B002B1ED042592242F9D09423C2
:1018700095225B015201164CC31885181A5904337E
:101880000A8002319D42F9D180230D4A1B02815802
:101890000B4301218350B83283580B4383500020FF
:1018A00030BD0120FCE7074A0A4983580B408350AA
:1018B000043A83580331FF310B4383500220EFE792
:1018C000481000000411000030100000A086010044
:1018D00000505500FFFEFFFF014BC1507047C0464E
:1018E0009012000095235B01C15070470121024A0C
:1018F00083580B43835070470418000070B50400F0
:101900000D0000281ED0114BC058411C1AD0E658BB
:10191000731C17D0FA210130131C89008A4212D897
:101920009AB200210023FEF7BFFDFA2200239200A5
:10193000FEF79AFD0136B04204D8311A2A00200081
:1019400001F08CFC70BD0B1CEAE7C04608180000D3
:10195000F8B504000D0010001A00002C1DD000285E
:101960001BD000230021FEF79FFD0D4B00268B426C
:1019700001D23000F8BD0B4BE7587B1CF9D0002397
:10198000094AFEF771FD0137B842F2D8391A2A0028
:10199000200001F063FC0136EBE70026E9E7C046D2
:1019A0003F420F000818000040420F00094A136828
:1019B00001331360084A13780133DBB2092B01D8D5
:1019C0001370704700231370044A136801331360C7
:1019D000F7E7C04608002020000020200400202057
:1019E000014B18687047C04608002020014B18685A
:1019F0007047C0460400202010B501F04DFD10BD19
:101A000070B505000C1E04D106E0280001F044FD6D
:101A1000013421780029F8D170BDC046F0B5CE461A
:101A2000474680B581460E0085B0002927D00323A4
:101A30006B440127984630000A21FEF7C7FB434656
:101A40003031CCB2DC5530000A21FEF739FB3500CD
:101A50003B0006000137092DEDD89D1E01AB9C46C9
:101A6000654401E02C78013D2100484601F014FD59
:101A7000A845F7D105B0C0BCB946B046F0BD30218D
:101A800001F00AFDF6E7C04670B505000C1E04DB48
:101A900028002100FFF7C2FF70BD2D2101F0FCFCE2
:101AA0006442F5E70023044A1380044A13800022AD
:101AB000034B1A707047C0464C0020205000202075
:101AC0004E00202081235B01F0B5C258DE46574608
:101AD0004E464546FF23E0B513400B2B05D0F0BC26
:101AE000BB46B246A946A046F0BD144C03595B075D
:101AF000F5D4134B13499C46134B144F9846144B83
:101B00009A46012399460BE00D88D2B2ADB2AB469E
:101B100045465E46AA550B80042203591A42DED17F
:101B20003F25C2590B8801332B4065462D889D42C5
:101B3000EAD153464A461A70EEE7C0460811000043
:101B4000500020204C0020200C00202024110000F8
:101B50004E002020002811D0094B1988094B1A8803
:101B600091420BD01A88084992B28A5C1988027097
:101B70003F22012001310A401A8070470020FCE713
:101B80004C002020500020200C00202070B50400C4
:101B900082B0002827D0058F002D24D0C36B002BE6
:101BA00021D00822002168462600FFF7D7FD230038
:101BB000012008361A78072A15D86946895C002959
:101BC00011D1694601338854B342F3D11834198ACC
:101BD00018880A1A00D5421AAA4204DB02339C4232
:101BE000F5D1012000E0002002B070BD70B5040006
:101BF0000E0000281AD00800FFF7C8FF051E13D0FA
:101C0000402231002000FFF757FD20002022002154
:101C10004030FFF7A3FD0023682223666366A354C8
:101C2000E366673A7033E254280070BD0025FBE795
:101C3000F8B54E46DE4657464546E0B5061E68D026
:101C40007023C35C9846002B5CD0002961D0020051
:101C5000340040320830237801345B005B5A138033
:101C600002328442F7D1182335009946FA275035BD
:101C7000B144BF0006E0FA2002348000288002351B
:101C80004C4515D02188228F521A53019B1A980077
:101C9000238A8018C000591AFEF79CFAB842EADC81
:101CA000C343DB1718400234288002354C45E9D184
:101CB00038239B46002337009A4600240025283706
:101CC000B3443B8D99460023F85E4A460023C11772
:101CD000FEF7EAFB023724184D41CA445F45F0D1B4
:101CE00053467366002B17D0F36B9A4514D35246B4
:101CF000002320002900FEF793FB682301223066B1
:101D0000F254F0664046F0BCBB46B246A946A04637
:101D1000F8BD00239846F5E768230022F254F36EDD
:101D20003366EFE7002805D07023C35C002B01D099
:101D3000403070470020FCE7F8B504000D00012694
:101D4000002903DC0E00731E9E417642A37E002B09
:101D500001D0764276B2EB17EF185F402F23E35C99
:101D6000BFB2002B22D1E168A068012E17D0FFF787
:101D7000B9FD61692069FFF7AFFD3A00217920685C
:101D8000FFF7BCFD2C230022691E65840D43E65439
:101D9000ED0F0333E2540135023BE554F8BDFFF784
:101DA0009BFD61692069FFF79DFDE6E7002221792F
:101DB0002068FFF7A3FDD6E7F8B5058B04001700F0
:101DC000A94202DC6D428D4239DB2EB22684002D01
:101DD0003AD00123002D2DDDA27E002A1AD12C221B
:101DE000A15600291CD099421AD02F23E35C002B66
:101DF00047D02D23E35C032B43D0A36AFF1A0123B2
:101E000030250521A68463552C33E154E369BB4298
:101E10004FD9F8BD2C22A1565B425BB20029E2D11A
:101E200000230022A384303331002000E254FFF766
:101E300083FFEEE7A27E023B002AD0D0EAE70D0046
:101E40002EB22684002DC4D130230022A584E25472
:101E5000217900222068FFF751FDE168A068FFF7B3
:101E60003BFD61692069FFF737FD2F236584E25C44
:101E7000002A02D10132A762E2542D230422E25447
:101E8000C7E7002221792068FFF738FDE168A068E4
:101E9000FFF722FD61692069FFF71EFD00236384BF
:101EA0002F33E25C002AA8D10122A7620027E25466
:101EB000A5E731002000FFF73FFF0023A38463550F
:101EC000A7E7C046F8B504001500002843D0002954
:101ED00041D0086800283ED08B68002B3BD00A69AF
:101EE000002A38D0CE68002E35D04F69002F32D06E
:101EF00093422ED0FA230A8B9B009A422BD8CB69AF
:101F0000002B28DB2300C4C9C4C3C4C9C4C344C94B
:101F100044C382235B020026E36200223023266250
:101F2000A684A562E25421790022FFF7E7FCE1686C
:101F3000A068FFF7D1FC20696169FFF7CDFC2F2372
:101F40006684E05C002807D10122A5620130E254DA
:101F500002E03742CED00020F8BDC04610B50028C0
:101F600005D02E23C35C002B01D0FFF725FF10BD49
:101F700070B5041E0CD02E23C35C002B08D0302576
:101F8000435D002B04D0836AC91AC369994200D209
:101F900070BD2423C15EFFF7CFFE0023A3846355E9
:101FA000F6E7C04670B504000D00002803D02E23CC
:101FB000C35C002B00D170BD3023002600220684B4
:101FC0008684C254017900220068FFF797FCE1681B
:101FD000A068FFF781FC61692069FFF77DFC2F2372
:101FE0006684E25C002A02D10132A562E2542D230C
:101FF0000422E254DFE7C046002802D02E23C05C52
:1020000070470020FCE7C046030010B500200C001C
:102010001100002B03D0002C01D0002A00D110BDEC
:102020005A60012220001C601A81FFF75BFC01202E
:10203000F5E7C04610B5041E02D0037A002B00D18C
:1020400010BD41680068FFF747FC01236372F7E7A2
:1020500010B5041E02D0037A002B00D110BD4168D8
:102060000068FFF73FFC00236372F7E7031E04D00C
:10207000007A002800D0587A70470020FCE7C0465C
:10208000F0B5C646040000B5002827D0002925D0A9
:102090000B689C46002B21D08B6800209846002BB3
:1020A0001DD0CB898D899D4219D20D8A9D4216D9AA
:1020B0000D002300C4CDC4C344CD44C3A082CB894A
:1020C000802149002183424660462179E382FFF75F
:1020D0003FFC002803D10023637600E0002080BC91
:1020E000B846F0BD70B5041E02D0437E002B02D16D
:1020F0000025280070BDC38A017982680068FFF757
:1021000027FC051EF4D02068FFF7F0FB012323769F
:10211000EFE7C046F8B5041E02D0437E002B01D184
:102120000020F8BD134B0D00994200DA1D00FA2380
:102130009B009D4200DD1D00A17C2A00A089E6894C
:10214000278A002900D06A42301A002A00DBB81B17
:10215000FA2150438900FEF73DF8861933042179AE
:10216000A26820681B0CFFF7F3FB0028D8D0A582DB
:10217000E682D6E718FCFFFF70B5041E02D0437E4E
:10218000002B01D1002070BDC589017982682B0028
:102190000068FFF7DDFB0028F4D00023E582A3826E
:1021A000F1E7C046F8B54546DE4657464E460C00B8
:1021B000E0B5051E00D1ACE0002900D1A9E00B6814
:1021C00057495E007608301CFFF7C0F8002800D0A1
:1021D0009FE05349301CFEF70FF9002800D098E02B
:1021E00063684F495E007608301CFFF7AFF800289F
:1021F00000D08EE04A49301CFEF7FEF8002800D0DF
:1022000087E0A36846495E007608301CFFF79EF819
:1022100000287ED14249301CFEF7EEF8002878D124
:10222000E7683F497E007608301CFFF78FF80028EA
:102230006FD13B49301CFEF7DFF8002869D12369D4
:1022400037495E007608301C9846FFF77FF8002873
:102250005FD13349301CFEF7CFF8002859D16369AC
:102260002F495E007608301C9A46FFF76FF8002869
:102270004FD12B49301CFEF7BFF8002849D1A36984
:1022800027495E007608301C9B46FFF75FF8002860
:102290003FD12349301CFEF7AFF8002839D1E3695C
:1022A0001F495E007608301C9946FFF74FF800285A
:1022B0002FD11B49301CFEF79FF8002829D1414639
:1022C000381CFEF78FF8002823D059465046FEF7F9
:1022D00089F800281DD000264846311CFEF796F8E4
:1022E000002817D0FE2148468905FEF77BF8002814
:1022F00010D02B0007CC07C307CC07C306CC06C3FE
:1023000080235B0001202E626E62AE62EE622B863D
:1023100000E00020F0BCBB46B246A946A046F8BD8E
:10232000FFFF7F7F00280BD03123C35C002B07D039
:1023300000230022036243628362C3623023C254DB
:102340007047C046F8B54746CE46040080B50D1C20
:10235000171C002800D186E03123C35C002B00D17C
:1023600081E04E0076084A49301CFEF7EFFF002856
:1023700079D14749301CFEF73FF8002873D17E0021
:1023800076084349301CFEF7E1FF00286BD1404935
:10239000301CFEF731F8002865D10021381CFEF70B
:1023A00021F8002865D1391C281CFEF7FBFC216AA6
:1023B000FEF792F9E368061C99462369191C9846B2
:1023C000FEF71AF800285DD14946301CFEF700F8E8
:1023D000002800D04E4630232662E25C002A4AD014
:1023E000E3690021181C9846FEF706F8002844D03F
:1023F000A36A616A9946281CFEF7FAFD391CFEF7AC
:1024000009FB4946FEF7F4FD4146FEF7CBFC494681
:10241000FEF762F9071CA06221686562281CFEF7BE
:10242000C1FC6168051C301CFEF7BCFC011C281CAB
:10243000FEF752F9A168051C381CFEF7B3FC011C1D
:10244000281CFEF749F9A6696769311C051CFDF7D0
:10245000D3FF002813D1391C281CFDF7B9FF002831
:1024600012D1E56200E00025281CC0BCB946B04688
:10247000F8BDE56AF8E70122E254A76ACCE7351C0B
:10248000E562F1E74646A6E73D1CE562ECE7C0469B
:10249000FFFF7F7FF8B505000C00002838D0002929
:1024A00036D00F6A1C497E007608301CFEF74EFFBE
:1024B00000282DD1301C1849FDF79EFF061E27D19C
:1024C0000021381CFDF798FF002821D02422A35EAC
:1024D000002B1DDD2723E35C002B19D022002B00ED
:1024E00083CA83C383CA83C383CA83C32F0012688A
:1024F0002837210038001A60FFF754FE041E07D069
:10250000602301223800EA54FFF70CFFEE6500E07B
:1025100000242000F8BDC046FFFF7F7F10B5041ED9
:1025200003D06023C35C002B00D110BD2830FFF71F
:10253000F9FE0023E365F8E7F8B504000F00151C69
:10254000002832D06023C35C002B2ED0002927D076
:10255000560076083949301CFEF7F8FE00281FD1D6
:102560003649301CFDF748FF002819D10021281CEE
:10257000FDF738FF002813D12823FB5C002B16D170
:102580005E22A35CFF2B51D00133DBB2A354272280
:10259000A25C9A424AD95F2301220120E25403E05F
:1025A0005F2303220320E254F8BD0320FCE75E23EF
:1025B000E054386AFEF700FF216AFEF72BFA802309
:1025C0001B06C11820002A1C2830FFF7BBFE24235D
:1025D000E55E2623061C2800E75CFEF7EDFE311CB5
:1025E000FEF7E0FB0021061CFDF710FFFC2189052A
:1025F000002815D0301CFEF76FF8FEF7BDFE002F47
:1026000000D04042854204DB6D42854200DA05007D
:102610002DB25C230022E55203330020E254C3E7CD
:10262000301CFEF7E5FCFEF7A7FEE8E75C2300227E
:10263000E252033302320220E254B5E7FFFF7F7F0C
:10264000002806D06023C35C002B02D05C23C05E50
:1026500070470020FCE7C04670B505000C0000285C
:1026600039D0002937D00868002834D04B68002BB7
:1026700031D098422FD08B68002B2CD0CB68002B08
:1026800029D0FFF7B9FC002825D06068FFF7B4FC1B
:10269000002820D0A3681B7A002B1CD0E368587E4A
:1026A000002818D0FA23228A9B009A4213D8628A03
:1026B0009A4210D8A28A9A420DD8E28A9A420AD83F
:1026C0002B0046CC46C346CC46C30023AB61013346
:1026D000FF33AB8300E0002070BDC04670B504003E
:1026E0000D00002802D0437F002B01D1002070BDD7
:1026F0000068FFF757FC60682900FFF753FCE068AB
:10270000FFF73AFD0028F1D0E068FFF7EBFC002866
:10271000ECD023681868FFF7E9F863681868236845
:102720001B68984201D0FFF7E1F8A068FFF782FC30
:102730000023A068A361FFF799FC2077D7E7C04684
:10274000F8B5CE46474604001E0080B5002835D0B7
:10275000437F002B32D0037F002B2FD0058AA94264
:1027600003DC6D428D4200DA0D00678A2BB2984679
:10277000BA4203DC7F42974200DA1700FA21E08A6E
:1027800089006843FDF726FDFA2103B2A08A89007B
:1027900068439946FDF71EFD320001B22068FFF73D
:1027A000DDFB3FB2320049466068FFF7D7FB3900D6
:1027B000E068FFF7AFFC434667832383C0BCB9469C
:1027C000B046F8BD70B504000D00002802D0437F6C
:1027D000002B00D170BD0068FFF7E4FB29006068A2
:1027E000FFF7E0FB00232383F4E7C04610B5041E87
:1027F00002D0437F002B00D110BDC068FFF7BCFCA6
:1028000000236383F8E7C04670B504000D0000287C
:1028100002D0437F002B00D170BD0068FFF7A8FBFA
:1028200029006068FFF7A4FBF6E7C04670B50C000E
:1028300001000E48FFF7E4F8012505E021880B4868
:10284000FFF7ECF801350234012DF7D02C210748B1
:10285000FFF7D2F821880548FFF7E0F8082DF1D1FD
:1028600003490248FFF7CCF870BDC0460000104095
:102870007C360000F0B54E4657464546DE46E0B58C
:102880004E49B7B00CAC0A00230061CA61C361CAEB
:1028900061C321CA21C31D000B002A002033C1CB14
:1028A000C1C2C1CBC1C241CB41C20B0001AA40335E
:1028B000C1CBC1C2543141CB41C21CAF402226A87A
:1028C000FEF7FAFE39003E4B9C46143345CB45C11A
:1028D00045CB45C145CB45C11B680B6006AB98464F
:1028E000634642463C3343CB43C243CB43C2FFF72C
:1028F00077F8344B81469A460423524613700023DE
:10290000314A1360314A1360314A1370314A1380DF
:10291000FFF7C8F8304B8022180030499B46FFF77C
:1029200073FB002809D15846FFF792FB37B0F0BC83
:10293000BB46B246A946A046F0BD4A4621002848FB
:10294000FFF7C0FA0028EED04A4629002548FFF7D5
:10295000B9FA0028E7D0244801A9FFF791FB002825
:10296000E1D0224826A9FFF741F90028DBD0390041
:102970001F48FFF78FFD0028D5D01E4C4146200090
:10298000FFF76AFE0028CED049462000FFF7A6FEDA
:102990000028C8D0FFF72AF8174B524618600023CA
:1029A000C02113708022154B920149005A501A60C1
:1029B00013491448FFF724F8B8E7C046C0340000B4
:1029C00040350000D0012020880120205400202024
:1029D000F0012020780020208C01202000000A40F7
:1029E0007C0020209C012020D401202014012020E4
:1029F000B0002020580020209801202000E100E0B5
:102A00005836000000001040F0B5C64600B584B04E
:102A1000FEF7E6FF8D4D010004002800FFF7F4FEED
:102A20008B4B8C4F98468C4E6846FFF793F80028E6
:102A300017D06B461B78742B53D0782B44D0732B54
:102A4000F2D13378002BEFD18148FFF767FDB42234
:102A5000824B68461A8001233370FFF77BF8002809
:102A6000E7D1FEF7C3FF7E490B68C21A984224D013
:102A7000012A0BD07B4B013A1E689846F3439A42D9
:102A800000D88DE00122434652421A60086080203F
:102A90006946C005FEF7CEFE002800D071E0724EF8
:102AA00069463000FFF7C4F86B4B002800D1C2E044
:102AB00098461B78012B00D181E03B78002B13D185
:102AC00004B080BCB846F0BD21002800FFF77AFEB4
:102AD0002800FFF78BFE4046FFF720FD00233370F0
:102AE000A2E701233B709FE700235F483B70FFF79D
:102AF00019F95E4905005E48FEF782FF21005C4837
:102B0000FEF78CFF5B495A48FEF77AFF524B584854
:102B10001978FEF783FF58495548FEF771FF002DDD
:102B200066D0296A5248FEF7AFFF54495048FEF775
:102B300067FF2823EB5C0121002B3ED04C48FEF7B9
:102B40006DFF4F494A48FEF75BFF4E4B48481968F6
:102B5000FEF764FF4C494648FEF752FF414B44489C
:102B60001968FEF75BFF49494148FEF749FF290014
:102B70004748FFF75BFE290046481031FFF756FE35
:102B80009EE7404A1368013313600322324B1A70E8
:102B900028002100FFF716FE2800FFF727FE8CE72C
:102BA00008608020434692196946C0051A60FEF706
:102BB00041FE002800D172E7E3E70021BEE73000C4
:102BC000FFF7B0F8224E0100334A3000FFF7B4FCA3
:102BD000022833D0032834D03000FFF731FD1F4BDB
:102BE00002000021595E28002300FFF7A9FD64E7D9
:102BF00000211F48FEF748FF20491D48FEF700FF4F
:102C000000211B48FEF70AFF1D491948FEF7F8FE90
:102C10001C4B17481968FEF701FF1B491448FEF7C3
:102C2000EFFE104B12481968FEF7F8FE17491048DE
:102C3000FEF7E6FE44E704221A70A9E7434618703F
:102C4000A6E7042342461370A2E7C046580020209E
:102C5000B0002020F0012020D0012020780020208A
:102C600098012020880120201401202080360000B7
:102C700000001040843600008C36000098360000BA
:102C8000B436000054002020C03600007C3600001E
:102C9000A0360000A83600000AD7233C134BF0B53D
:102CA0009C46C6466146124B124A00B5CA50802166
:102CB000114F124E124D134C1348C905FA50884655
:102CC000F250EA50E250C250CA5061460F4A043BEB
:102CD000CA504146FA50F250EA50E250C250102019
:102CE000CA5000F093FA80BCB846F0BD00000A401C
:102CF00004080000030000B100200A400040084022
:102D00000000874000000F40000010400100002636
:102D100088228421284B30B5995080222749284C9D
:102D2000520162508C2085221A5080208001605010
:102D30008020DA67234AC0015050234858605D68FC
:102D40005D6098609868986080205D6880040543A5
:102D50005D609D68284398608220D8641B48186590
:102D60008120D86618675867986798631848D863B1
:102D7000DD6BDD6318641D6C1D6458645D6C5D64FF
:102D80009864986C98649520802340012350635088
:102D9000F0239B0113505350FF230E491B01505841
:102DA00003433C2053500C4BD1580143D1500B49A5
:102DB00053580343535030BD00804240D0120000AE
:102DC00000000A4000200A4083000C00820004003A
:102DD00081000C0090130000481000002810000033
:102DE000002103200C4B0D4A99500D490A6882437B
:102DF0000A600C4A023899588143995099580A48F8
:102E0000014099503021094B1A688A431A601A68A8
:102E100021398A431A60704700F00A400813000005
:102E200000010B4008110000FFFEFFFF04010B40F2
:102E300070B51D4C82B020001C4900F001FA200042
:102E40001B4900F033FA1B4A1B49A358C8260B4004
:102E5000A35000230125009320000022002100F050
:102E600017FAF60020000022002100F001FA3100DC
:102E70002000002200F0F2F90023200000220021AF
:102E8000009500F005FA20000122002100F0F0F981
:102E900001223100200000F0E1F90322074BE55048
:102EA000083BE25002B070BD00400840E43600002C
:102EB000E8360000041800007F00FFFF0811000042
:102EC00030B5164C83B02000154900F0B9F9200048
:102ED000144900F0EBF992230125134A1348A15835
:102EE0009B014B4003404B40A35020000023002295
:102EF0000021009500F0CCF920000122002100F013
:102F0000B7F9012220000A4900F0A8F90222094B72
:102F1000E550083BE25003B030BDC046000087409A
:102F2000F4360000F83600000418000080FF0000AE
:102F300000C409000811000010B5174C1749200003
:102F400000F06AF99023C0225B01E158D2000A43E5
:102F5000E2508022E15852000A43E2500022072149
:102F60000F4BE2500F4BE1500F4BE2588A43E250B7
:102F7000E2580E490A400421E2500D4BE2580A4340
:102F80000C49E25060580C4A024362500121E25859
:102F90000A43E25010BDC04600000F40F03600006A
:102FA000141200002412000038120000FFF8FFFF86
:102FB00028120000281000008704000070B5194C8A
:102FC0001949200000F05EFA2000184900F036FA96
:102FD00088225201A35816490B40A35011231549CA
:102FE000605843401B041B0C4340635017213F2390
:102FF0001148255869400B4001216B4023500F4870
:10300000235825580B406B400B406B4023508023C6
:103010000B48DB0025582B432350A3580B43A350E8
:1030200070BDC04600001040CC360000D036000015
:10303000FF7FFEFF101100001411000004110000BA
:103040002810000070B58024E40520001D4900F020
:10305000BDF88022520213001B491C4D60584340AA
:103060002B4043406350E02319491A4D6058DB045C
:1030700043402B40434063508C23002102205B01DE
:10308000E150154B0131E150144BE050144B01302D
:10309000E050144B0130E050134B0130E050134B23
:1030A0000130E050124B0130E0509C3BE0580243AD
:1030B000FA20E2500F4A4000A050E2580A43E25082
:1030C00070BDC046DC360000041100000100130092
:1030D0000811000007001F1F841100008811000064
:1030E0008C11000090110000941100009811000054
:1030F0009C11000014110000C021074A074B08482A
:103100005360036A09061B021B0A0B430362002378
:10311000936007331360704710E000E0FF7C00000D
:1031200000ED00E010B5FFF7B9FDFFF7F1FDFFF787
:1031300057FEFFF77DFEFFF7C3FEFFF7FDFEFFF72B
:103140003DFFFFF77FFFFFF7D7FF10BDFEE7C0464B
:103150001548164B10B5984207D2013B1A1A92082F
:10316000013213499200FEF7A7FA1248124B984217
:1031700007D2013B1A1A9208013210499200FEF759
:103180009BFA0F480F4B984207D2013B1A1A92083C
:10319000013200219200FEF7E1FAFEF76BFAFEF72A
:1031A00033FBFFF7D3FF10BD0000202000002020DC
:1031B000083700000000202000002020C03400005C
:1031C00000002020F80120207047C046A9230C4AA7
:1031D00030B50D7884581B062B430A4D63402B40B5
:1031E000634083508822E025520184584B68ED04E7
:1031F00063402B40634083504A78034BC25030BD3C
:1032000008080000030000FF10110000831E043BAB
:10321000C046FCD27047C0460C2330B5074C0A7834
:1032200005596A4013406B4003510723043C05597C
:103230004A786A4013406B40035130BD04100000CF
:103240000A78044BC2504A78083BC2508A78024B35
:10325000C2507047081000000C110000034B920090
:103260009C466044801801607047C04610180000FA
:10327000064B92009C4660448218E020136840038D
:1032800059400140594011607047C0463018000055
:1032900030B5054D03ACAC4624786044A4001A4315
:1032A00000190A43026030BD50180000F0B54B7998
:1032B000002B2CD00B79002B00D18FE0202B00D0DD
:1032C00087E0494C494B06591A007240484D2A4044
:1032D00072400251474A845863402B4063408350F8
:1032E000454B464CC2582240C250454A8358234061
:1032F000835000238F24434A8350434A8350434AD8
:103300008358A3438350424A8358A34383500B7985
:103310000A688C79002B53D0202B13D03D495208DA
:103320004250A022920011003B4D47597940304E47
:10333000314079404151394945586A4032406A40EC
:1033400042501BE03349013A4250284A324D1100A5
:103350004759274E79403140794041512F494558CE
:103360006A4032406A4042508022C0262C49920571
:103370004558B6056A4032406A404250294A1F4DBE
:10338000815823432940815027490224425823432E
:103390002A40425000228F252449254C425025497D
:1033A00042502C314258AA43425023494258AA4322
:1033B00042501B4A81584B4023404B408350F0BD44
:1033C0001449013A144D425047598822390051405E
:1033D000ADE7A023044C9B00065975E7024C8823F7
:1033E000065932005A4071E77818000001040000C5
:1033F000DBB6C1FF7C180000381800008888FDFF8C
:103400003C180000581800005C18000088180000E4
:103410008C180000081800007018000074180000D4
:103420000418000030180000341800005018000084
:10343000BFFF00305418000084180000882230B507
:10344000012452018358A34383508D780B888458FC
:103450002B438D882B43094D63402B4063408350A1
:10346000CA798B79064C13430A7A055913437E2295
:103470006B4013406B40035130BDC04618670200DB
:10348000041100000A78034BC2504A78083BC2502E
:103490007047C04608100000802210B5064C035942
:1034A0001A42FCD1892301225B01C15002494358D1
:1034B0001A42FCD110BDC0460811000000000000F7
:1034C000004008400000000000200A400004000006
:1034D00000200A40000800005E0100000500000016
:1034E000004008400100000000200A4000100000D9
:1034F00000200A40002000005E01010005000000DD
:1035000000008740010000000048E801B004DC052D
:10351000080700000001020304050607B80BB80BFA
:10352000B80BB80BB80BB80BB80BB80BE803E80333
:10353000E803E803E803E803E803E80354F23CF691
:1035400024FA0CFEF401DC05C409AC0D6400000093
:103550002C0100006666263F00000000000000000D
:10356000000080BF0000803F000080BF0000803F5F
:10357000CDCC4C3E00C05A45200300037C002020E7
:103580009C0120208C012020D40120205E012003FA
:10359000E803E803E80B0000740B0000D00A000009
:1035A000880A0000D00A0000B00B0000D00A00001A
:1035B000880A0000740B0000740B0000B00B0000C0
:1035C000880A00008E0A00008E0A00008E0A0000A1
:1035D000BE0B0000740B0000740B0000D00A00004A
:1035E000840A0000D00A0000B00B0000D00A0000DE
:1035F000840A0000740B0000740B0000B00B000084
:10360000840A00008E0A00008E0A00008E0A000064
:10361000BA0B0000480E0000180E0000180E000043
:10362000160E00001C0E00001C0E0000640F0000AF
:10363000160E00001C0E0000640F00001C0E00009F
:10364000160E0000100F0000100F0000100F0000F9
:10365000A00F00000000000072656164793A2073D9
:103660003D73746172742C20783D6272616B652CBD
:1036700020743D74656C656D657472790D0A000087
:103680006D733D002C73746174653D002C706F7315
:103690006974696F6E3D00002C76616C69643D0051
:1036A0007261773D00000000737472656E67746824
:1036B0003D0000002C6164634572726F72733D00BF
:1036C0002C6D69737365643D000000000800000004
:1036D000000018000000003000000000000500009D
:1036E0000000000308000000400600000000000089
:1036F000080000000800000000C4090000000000ED
:0837000004CEFF7F0100000070
:04000003000000C039
:00000001FF
