:1000000000802020B1030000AD030000AD0300001C
:1000100000000000000000000000000000000000E0
:10002000000000000000000000000000AD03000020
:100030000000000000000000AD030000AD03000060
:10004000AD030000AD030000AD030000AD030000F0
:10005000AD030000AD030000AD030000AD030000E0
:1000600000000000AD030000AD0300000000000030
:1000700000000000C1000000AD030000AD0300005F
:10008000AD030000AD030000AD030000AD030000B0
:10009000AD030000AD030000000000000000000000
:1000A000AD030000AD0300000000000000000000F0
:1000B000AD03000000000000AD030000AD03000030
:1000C00010B5024800F084F810BDC0460000104092
:1000D00010B500F05DFB10BD70B5060000290AD018
:1000E000002A08D00C008D1821783000013400F06F
:1000F0004FFBAC42F8D170BD70B505000C1E04D1A9
:1001000006E0280000F044FB013421780029F8D1F2
:1001100070BDC046F0B5CE46474680B581460E005C
:1001200085B0002927D003236B440127984630006F
:100130000A2100F001FA43463031CCB2DC553000E0
:100140000A2100F073F935003B0006000137092D44
:10015000EDD89D1E01AB9C46654401E02C78013D25
:100160002100484600F014FBA845F7D105B0C0BCFB
:10017000B946B046F0BD302100F00AFBF6E7C046B4
:1001800070B505000C1E04DB28002100FFF7C2FF3C
:1001900070BD2D2100F0FCFA6442F5E770B5074E02
:1001A0000B090D00F15C040000F0F2FA0F210D4084
:1001B000715D200000F0ECFA70BDC046B807000089
:1001C0000022024B1A805A801A71704704002020C6
:1001D00081235B01F0B5C258C646FF2300B513402A
:1001E0000B2B02D080BCB846F0BD0F4D43595B07C6
:1001F000F8D40E4B3F279C460123042698460C4A10
:1002000007E01488C9B214192172138043591E42A1
:10021000E8D16346C1581388548801333B409C425F
:10022000EFD143461371F1E70811000024110000DB
:1002300004002020034B18885B88C01A431E984195
:10024000C0B270470400202000280FD0084B198846
:100250005A8891420AD05A889A18127A598802709C
:100260003F22012001310A405A8070470020FCE7FC
:1002700004002020014B1879C0B2704704002020F0
:100280000022014B1A7170470400202010B5084B62
:10029000084A0949094C0A48E250C250CA50094A62
:1002A000043BE250C2501020CA5000F03DFA10BD8D
:1002B00004080000030000B10000104000000A40E4
:1002C00000200A40010000268222024BDA64024A22
:1002D0001A65704700804240820004000021094AEC
:1002E000094BD150094A033113688B431360084B03
:1002F0002D311A688A431A601A6821398A431A60B4
:100300007047C04600F00A400813000000010B408F
:1003100004010B4070B5194C194D2000290000F064
:100320002DFA2000291D00F005FA88225201A35859
:1003300014490B40A35011231349605843401B0438
:100340001B0C4340635017213F2310482558694038
:100350000B4001216B4023500D48235825580B407A
:100360006B400B406B40235080230A48DB0025582C
:100370002B432350A3580B43A35070BD00001040E3
:10038000CC070000FF7FFEFF1011000014110000D9
:10039000041100002810000010B5FFF777FFFFF7E9
:1003A00093FFFFF79BFFFFF7B5FF10BDFEE7C046C9
:1003B0001548164B10B5984207D2013B1A1A9208FD
:1003C00001321349920000F0DFF81248124B9842B4
:1003D00007D2013B1A1A920801321049920000F02C
:1003E000D3F80F480F4B984207D2013B1A1A9208D4
:1003F00001320021920000F019F900F0A3F800F09A
:100400006BF9FFF7D3FF10BD000020200000202073
:10041000080800000000202000002020B80700008D
:1004200000002020500020207047C04600224308D2
:100430008B4274D303098B425FD3030A8B4244D3AC
:10044000030B8B4228D3030C8B420DD3FF220902EE
:1004500012BA030C8B4202D31212090265D0030BAD
:100460008B4219D300E0090AC30B8B4201D3CB03A3
:10047000C01A5241830B8B4201D38B03C01A5241E5
:10048000430B8B4201D34B03C01A5241030B8B42E7
:1004900001D30B03C01A5241C30A8B4201D3CB02D2
:1004A000C01A5241830A8B4201D38B02C01A5241B7
:1004B000430A8B4201D34B02C01A5241030A8B42BA
:1004C00001D30B02C01A5241CDD2C3098B4201D3D2
:1004D000CB01C01A524183098B4201D38B01C01A50
:1004E000524143098B4201D34B01C01A52410309C7
:1004F0008B4201D30B01C01A5241C3088B4201D376
:10050000CB00C01A524183088B4201D38B00C01A22
:10051000524143088B4201D34B00C01A5241411A49
:1005200000D20146524110467047FFE701B5002056
:1005300000F006F802BDC0460029F7D076E7704704
:100540007047C04670B50C4D0C4E761BB61005D0EA
:10055000002408CD01349847A642FAD1FFF764FF82
:10056000074D084E761BB61005D0002408CD013487
:100570009847A642FAD170BD08080000080800009C
:100580000808000008080000F0B5C64600B50F2AAC
:1005900041D903270D003E0005430C0003002E4007
:1005A0002F423DD11500103D2D09A8462D01AC4626
:1005B000844427681D001F6067685F60A7689F60AC
:1005C000E7681034DF6010336545F2D145460F23EC
:1005D0000C2401352D01491913404519144222D02C
:1005E0008C59AC5104369C1B032CF9D8043B9B0856
:1005F00001339B00ED18C91803231A40561E002A28
:1006000006D00023CC5C1A00EC5401339642F9D199
:1006100080BCB846F0BD0500561E002AF1D1F7E7B0
:100620000500561EEDE71A00F6E7C046F0B50500D6
:10063000830749D0541E002A45D003000326CAB2BE
:1006400002E00135013C3ED301332A703342F8D138
:10065000032C30D9FF220A40150215432A04154302
:100660000F2C34D92700103F3F093E01B4461E002D
:100670001A0010366644156055609560D5601032DA
:10068000B242F8D101373F01DB190F270C22274076
:1006900022403C00002A0ED03E1FB608B400A446FB
:1006A0001A001C1D644420C2A242FCD1032401365E
:1006B000B6009B193C40002C05D0C9B21C1919701A
:1006C00001339C42FBD1F0BD03001400C0E72700BA
:1006D000E2E7C0460000000010B582B0FFF75CFE04
:1006E000FFF76EFD0C490D48FFF706FD8022C02183
:1006F0000B4B920149005A501A600A4C6B46D81DA8
:10070000FFF7A2FD0028F9D06B46D9790348217084
:10071000FFF7DEFCF2E7C046E007000000001040F3
:1007200000E100E000002020831E043BC046FCD214
:100730007047C046882230B5012452018358A34334
:1007400083508D780B8884582B438D882B43094D1B
:1007500063402B4063408350CA798B79064C134326
:100760000A7A055913437E226B4013406B400351B4
:1007700030BDC04618670200041100000A78034B20
:10078000C2504A78083BC2507047C046081000006B
:10079000802210B5064C03591A42FCD1892301224C
:1007A0005B01C150024943581A42FCD110BDC046FA
:0807B000081100000000000028
:1007B800303132333435363738394142434445468F
:1007C80000000000080000000000180000000030D1
:1007D80000000000000000000D0A4D53504D30206D
:1007E80048432D30352072656164792E2045636851
:1007F8006F206D6F64652E0D0A0000000000000078
:04000003000000C039
:00000001FF
