:1000000000802020C1020000BD020000BD020000EF
:1000100000000000000000000000000000000000E0
:10002000000000000000000000000000BD02000011
:100030000000000000000000BD020000C100000040
:10004000BD020000BD020000BD020000BD020000B4
:10005000BD020000BD020000BD020000BD020000A4
:1000600000000000BD020000BD0200000000000012
:1000700000000000BD020000BD020000BD02000043
:10008000BD020000BD020000BD020000BD02000074
:10009000BD020000BD0200000000000000000000E2
:1000A000BD020000BD0200000000000000000000D2
:1000B000BD02000000000000BD020000BD02000003
:1000C000024A1368013313607047C04600002020C5
:1000D000014BC1507047C0469012000095235B0150
:1000E000C1507047002A02D0034BC150704795237E
:1000F0005B01C150FAE7C04690120000014BC150AD
:100100007047C046B01200000121024A83580B43D9
:1001100083507047041800000121024A83588B4322
:1001200083507047041800000D4B70B5C558FA2372
:1001300004000E00101C9B009A4200D9181C2A00D3
:100140000023002180B200F0C9F9FA2200239200B6
:1001500000F0A4F93200291A200000F023FD70BD40
:100160000818000010B5084B084A0949094C0A480C
:10017000E250C250CA50094A043BE250C25010201B
:10018000CA5000F0FBFC10BD04080000030000B1E1
:100190000040084000000A4000200A4001000026FC
:1001A0008823842280200B4910B5CA500A4B0B4A81
:1001B0004001985085248C200C508020800198505C
:1001C0009020043C0C5080219520C9014001195019
:1001D000995010BD0080424000000A40D01200003B
:1001E0000021094A094BD150094A033113688B4356
:1001F0001360084B2D311A688A431A601A68213936
:100200008A431A607047C04600F00A400813000095
:1002100000010B4004010B4070B51E4C1E4D82B016
:100220002900200000F0B0FC2000291D00F0E2FCB5
:100230001A4A1B49A358FA260B40A3500023012554
:10024000009320000022002100F0C6FCF6012000EF
:100250000022002100F0B0FC31002000002200F05C
:10026000A1FC0023200000220021009500F0B4FC36
:1002700020000122002100F09FFC0122310020001B
:1002800000F090FC0322074BE550083BE25002B01F
:1002900070BDC04600400840880D000004180000F2
:1002A0007F00FFFF0811000010B5FFF75BFFFFF7AD
:1002B00077FFFFF795FFFFF7AFFF10BDFEE7C046E2
:1002C0001548164B10B5984207D2013B1A1A9208EE
:1002D00001321349920000F04BFB1248124B984236
:1002E00007D2013B1A1A920801321049920000F01D
:1002F0003FFB0F480F4B984207D2013B1A1A920856
:1003000001320021920000F085FB00F00FFB00F0AD
:10031000D7FBFFF7D3FF10BD0000202000002020F6
:10032000A00D00000000202000002020880D00000B
:1003300000002020080020207047C046002243080B
:100340008B4274D303098B425FD3030A8B4244D39D
:10035000030B8B4228D3030C8B420DD3FF220902DF
:1003600012BA030C8B4202D31212090265D0030B9E
:100370008B4219D300E0090AC30B8B4201D3CB0394
:10038000C01A5241830B8B4201D38B03C01A5241D6
:10039000430B8B4201D34B03C01A5241030B8B42D8
:1003A00001D30B03C01A5241C30A8B4201D3CB02C3
:1003B000C01A5241830A8B4201D38B02C01A5241A8
:1003C000430A8B4201D34B02C01A5241030A8B42AB
:1003D00001D30B02C01A5241CDD2C3098B4201D3C3
:1003E000CB01C01A524183098B4201D38B01C01A41
:1003F000524143098B4201D34B01C01A52410309B8
:100400008B4201D30B01C01A5241C3088B4201D366
:10041000CB00C01A524183088B4201D38B00C01A13
:10042000524143088B4201D34B00C01A5241411A3A
:1004300000D20146524110467047FFE701B5002047
:1004400000F006F802BDC0460029F7D076E77047F5
:100450007047C046002B15D1002A13D1002906DBB6
:1004600001DC002806D00020C043410802E08021C2
:100470000906002007B4024801A14018029003BDFC
:10048000D1FFFFFF03B4684601B5029800F020F9E0
:10049000019B9E4602B00CBC7047C046002B11D198
:1004A000002A0FD1002900D1002802D00021C94321
:1004B000080007B4024802A14018029003BDC046DC
:1004C00091FFFFFF03B4684601B5029800F034F8CD
:1004D000019B9E4602B00CBC7047C046F0B5CE46AC
:1004E000474680B5070099463B0C9C4613041B0CFD
:1004F0001D000E0061460004140C000C45434B43E4
:1005000060436143C0182C0C20188C46834203D9E9
:1005100080235B029846C444494679437243030CE6
:1005200063442D042D0CC918000440198918C0BC5F
:10053000B946B046F0BDC046F0B557464E464546B2
:10054000DE46E0B504000D009246994683B08B422A
:1005500030D82DD04946504600F0D8F82900060082
:10056000200000F0D3F8331A9846203B9B4633D442
:100570005A465346934042461F00534693401E003E
:10058000AF423AD8AF4200D178E05B46A41BBD41F0
:10059000002B00DA75E00022002300920193012372
:1005A0005A4693400193012342469340009328E02A
:1005B0008242CFD900220023009201930C9B002B92
:1005C00001D01C605D600098019903B0F0BCBB468F
:1005D000B246A946A046F0BD424620239B1A524689
:1005E000DA40414613004A468A40170042461F43FC
:1005F000534693401E00AF42C4D90022002300920C
:1006000001934346002BD9D0FB0772081A43464694
:100610007B080EE0AB4201D1A2420CD8A41A9D4146
:10062000012024196D410021013E24184D41002E66
:1006300006D0AB42EED9013E24196D41002EF8D10F
:10064000009801995B4600196941002B24DB2B00BF
:100650005A464446D3402A00E2401C005B4615003F
:10066000002B2ADB26009E40330026004746BE4072
:100670003200801A9941009001919FE7A342BCD8B3
:1006800083E74246202300219B1A00220091019219
:100690000122DA40019286E7424620239B1A2A0073
:1006A00046469A402300F340444613432A00E24062
:1006B0001C005B461500002BD4DA42462F00202395
:1006C000260097409B1ADE403B003343CDE7C046EF
:1006D000F8B5CE46474680B59146984604000D00D1
:1006E00000F020F807000E0002000B0048464146CB
:1006F000FFF7F4FE241A8D41089B380031001C607E
:100700005D60C0BCB946B046F8BDC04610B5002912
:1007100003D100F0EDF8203002E0080000F0E8F826
:1007200010BDC046F0B557464E464546DE46E0B5DC
:100730000F001900002306009846100083B0002F18
:1007400007DA33003C0000275E42A74101235B42E9
:100750009846002907DA4346DB430C00984603001D
:1007600000215842A14134003D0082468946B942E9
:100770006AD867D049465046FFF7C8FF834639001C
:100780003000FFF7C3FF5B461B1A9C46203B9B468D
:100790006BD458465146814060460B00514681401B
:1007A0000A00BB4200D972E0BB4200D179E03400BC
:1007B0003D005946A41A9D41002900DA74E0002149
:1007C000002001260090019159468E400196614615
:1007D00001268E406146009600295FD0D907560851
:1007E0000E435F086146012200230CE0AF4201D1B5
:1007F000A6420AD8A41BBD4124196D410139A41891
:100800005D41002906D0AF42F0D9013924196D416C
:100810000029F8D1009801995B4600196941002B25
:100820004DDB2E002C00DE406346DC405B46002B97
:1008300055DB34009C4023006446A6403200801AF9
:10084000994103E0B04295D9002000214346002B96
:1008500004D003000C0000215842A14103B0F0BCB9
:10086000BB46B246A946A046F0BD62464846202394
:10087000514690409B1AD940030000910099604670
:100880000B43514681400A00BB4200D88CE700214F
:10089000002000900191614600299FD100980199A4
:1008A000D4E7B142F3D882E7614620260127761AC1
:1008B00000200021F74000900191019787E76246F0
:1008C00020239B1A2A009A40260013006246D64035
:1008D0002C001E436346DC405B46002BA9DA6246CF
:1008E0002023350094409B1ADD4023002B43A3E7CF
:1008F0001C2101231B04984201D3000C10391B0A50
:10090000984201D3000A08391B09984201D3000913
:10091000043902A2105C40187047C046040302026A
:1009200001010101000000000000000070B50C4D45
:100930000C4E761BB61005D0002408CD0134984724
:10094000A642FAD1FFF7F8FC074D084E761BB61009
:1009500005D0002408CD01349847A642FAD170BDD5
:10096000980D0000980D0000980D0000980D0000F3
:10097000F0B5C64600B50F2A41D903270D003E0049
:1009800005430C0003002E402F423DD11500103DC1
:100990002D09A8462D01AC46844427681D001F6020
:1009A00067685F60A7689F60E7681034DF60103396
:1009B0006545F2D145460F230C2401352D01491917
:1009C00013404519144222D08C59AC5104369C1B5B
:1009D000032CF9D8043B9B0801339B00ED18C91880
:1009E00003231A40561E002A06D00023CC5C1A00AE
:1009F000EC5401339642F9D180BCB846F0BD0500F5
:100A0000561E002AF1D1F7E70500561EEDE71A0041
:100A1000F6E7C046F0B50500830749D0541E002A0A
:100A200045D003000326CAB202E00135013C3ED3A3
:100A300001332A703342F8D1032C30D9FF220A4007
:100A4000150215432A0415430F2C34D92700103FF3
:100A50003F093E01B4461E001A0010366644156078
:100A600055609560D5601032B242F8D101373F0130
:100A7000DB190F270C22274022403C00002A0ED011
:100A80003E1FB608B400A4461A001C1D644420C2D0
:100A9000A242FCD103240136B6009B193C40002C35
:100AA00005D0C9B21C19197001339C42FBD1F0BDAD
:100AB00003001400C0E72700E2E7C0460000000082
:100AC000F8B5FFF7F1FB0422264B02211A60264AF3
:100AD00026485A6000229A601A68FA260A431A6069
:100AE0001A6803310A431A6000210022FFF71CFB39
:100AF000002201211D48FFF717FB1C48FFF704FBEC
:100B000000231B4D36012C68A342FCD0FA212000A3
:100B10000901FFF799FCFA239B0099420CD80027A2
:100B20008AB200211148FFF7FFFA3A0001210F486D
:100B3000FFF7FAFA2300E6E7FA22D200914203D245
:100B4000521A002792B2ECE70A4B994205D80A4B99
:100B500000229C4661448FB2E3E7711A00228FB2F3
:100B6000DFE7C04610E000E0FF7C000000400840E6
:100B700000002020B80B000030F8FFFF831E043B6C
:100B8000C046FCD27047C0460A78044BC2504A782F
:100B9000083BC2508A78024BC250704708100000D0
:100BA0000C110000034B92009C46604480180160C9
:100BB0007047C04610180000064B92009C466044E7
:100BC0008218E020136840035940014059401160E9
:100BD0007047C0463018000030B5054D03ACAC4638
:100BE00024786044A4001A4300190A43026030BD0F
:100BF00050180000F0B54B79002B2CD00B79002B4E
:100C000000D18FE0202B00D087E0494C494B06599A
:100C10001A007240484D2A4072400251474A845897
:100C200063402B4063408350454B464CC2582240A2
:100C3000C250454A83582340835000238F24434A9F
:100C40008350434A8350434A8358A3438350424AC4
:100C50008358A34383500B790A688C79002B53D0B7
:100C6000202B13D03D4952084250A022920011007F
:100C70003B4D47597940304E3140794041513949D7
:100C800045586A4032406A4042501BE03349013ABD
:100C90004250284A324D11004759274E7940314081
:100CA000794041512F4945586A4032406A4042508C
:100CB0008022C0262C4992054558B6056A4032402C
:100CC0006A404250294A1F4D815823432940815090
:100CD00027490224425823432A40425000228F25AC
:100CE0002449254C4250254942502C314258AA43B0
:100CF000425023494258AA4342501B4A81584B4014
:100D000023404B408350F0BD1449013A144D4250EA
:100D10004759882239005140ADE7A023044C9B007D
:100D2000065975E7024C8823065932005A4071E78C
:100D30007818000001040000DBB6C1FF7C18000039
:100D4000381800008888FDFF3C1800005818000083
:100D50005C180000881800008C18000008180000BB
:100D6000701800007418000004180000301800000B
:100D70003418000050180000BFFF00305418000065
:080D80008418000000000000CF
:100D880008000000007D00000000000000000000D6
:080D9800A0F7FF7F010000003D
:04000003000000C039
:00000001FF
