:10000000008020207D0200007902000079020000BB
:1000100000000000000000000000000000000000E0
:100020000000000000000000000000007902000055
:1000300000000000000000007902000079020000CA
:1000400079020000790200007902000079020000C4
:1000500079020000790200007902000079020000B4
:10006000000000007902000079020000000000009A
:10007000000000007902000079020000790200000F
:100080007902000079020000790200007902000084
:10009000790200007902000000000000000000006A
:1000A000790200007902000000000000000000005A
:1000B00079020000000000007902000079020000CF
:1000C00010B582B06A4600235071137120221A4C79
:1000D0001A4963581A42FCD00222174801A900F0BD
:1000E00087FA022802D0002002B010BD7823144AFB
:1000F0001448A1584B405B055B0D4B40A350124A7E
:10010000124BA1584B4003404B400320A35000F03A
:1001100055FA01200849094A8B581842FCD18B58DE
:1001200012221A42DFD1044804490E3243581A42BF
:10013000FCD00120D8E7C04600000F401812000094
:10014000101200000700FF0F141200000700020049
:1001500010B5084B084A0949094C0A48E250C250F8
:10016000CA50094A043BE250C2501020CA5000F065
:1001700025FA10BD04080000030000B100000F4084
:1001800000000A4000200A4001000026084B094AEE
:100190005A60596859609A609A689A6080225968D2
:1001A00092041143596099680A439A607047C046A7
:1001B0000080424083000C000021094A094BD150C5
:1001C000094A033113688B431360084B2D311A68B9
:1001D0008A431A601A6821398A431A607047C046F8
:1001E00000F00A400813000000010B4004010B401E
:1001F00010B5154C1549200000F0E6F99023C022F7
:100200005B01E158D2000A43E2508022E1585200DB
:100210000A43E250002207210D4BE2500D4B1F32E2
:10022000E2500D4BE2588A43E250E2580B490A4033
:100230000421E2500A4BE2580A43E250E2580339E3
:100240000A43E25010BDC04600000F4038060000CF
:10025000141200002412000038120000FFF8FFFF03
:100260002812000010B5FFF773FFFFF78FFFFFF7AD
:10027000A3FFFFF7BDFF10BDFEE7C0461548164BB4
:1002800010B5984207D2013B1A1A9208013213495D
:10029000920000F053F81248124B984207D2013BEB
:1002A0001A1A920801321049920000F047F80F48DC
:1002B0000F4B984207D2013B1A1A920801320021D3
:1002C000920000F08DF800F017F800F0DDF8FFF76D
:1002D000D3FF10BD000020200000202040060000B9
:1002E0000000202000002020380600000000202010
:1002F000000020207047C04670B50C4D0C4E761B98
:10030000B61005D0002408CD01349847A642FAD192
:10031000FFF7F0FF074D084E761BB61005D00024FE
:1003200008CD01349847A642FAD170BD40060000BE
:10033000400600004006000040060000F0B5C6463A
:1003400000B50F2A41D903270D003E0005430C00DC
:1003500003002E402F423DD11500103D2D09A84627
:100360002D01AC46844427681D001F6067685F60EC
:10037000A7689F60E7681034DF6010336545F2D1ED
:1003800045460F230C2401352D0149191340451909
:10039000144222D08C59AC5104369C1B032CF9D842
:1003A000043B9B0801339B00ED18C91803231A4036
:1003B000561E002A06D00023CC5C1A00EC540133F0
:1003C0009642F9D180BCB846F0BD0500561E002A01
:1003D000F1D1F7E70500561EEDE71A00F6E7C04633
:1003E000F0B50500830749D0541E002A45D003000C
:1003F0000326CAB202E00135013C3ED301332A7024
:100400003342F8D1032C30D9FF220A40150215439C
:100410002A0415430F2C34D92700103F3F093E0111
:10042000B4461E001A00103666441560556095608B
:10043000D5601032B242F8D101373F01DB190F27E6
:100440000C22274022403C00002A0ED03E1FB60856
:10045000B400A4461A001C1D644420C2A242FCD170
:1004600003240136B6009B193C40002C05D0C9B2CC
:100470001C19197001339C42FBD1F0BD030014001C
:10048000C0E72700E2E7C04610B5FFF7EBFE4A4899
:1004900000F094F8AE20FFF713FE002800D1FEE72D
:1004A000D520FFF70DFE002800D1FEE78020FFF7E2
:1004B00007FE002800D1FEE7A820FFF701FE002874
:1004C00000D1FEE73F20FFF7FBFD002800D1FEE74B
:1004D000D320FFF7F5FD002800D1FEE70020FFF74D
:1004E000EFFD002800D1FEE74020FFF7E9FD0028DE
:1004F00000D1FEE78D20FFF7E3FD002800D1FEE7E5
:100500001420FFF7DDFD002800D1FEE7A120FFF752
:10051000D7FD002800D1FEE7C820FFF7D1FD002855
:1005200000D1FEE7DA20FFF7CBFD002800D1FEE77F
:100530001220FFF7C5FD002800D1FEE78120FFF75C
:10054000BFFD002800D1FEE77F20FFF7B9FD00289E
:1005500000D1FEE7D920FFF7B3FD002800D1FEE768
:10056000F120FFF7ADFD002800D1FEE7DB20FFF70B
:10057000A7FD002800D1FEE74020FFF7A1FD0028DD
:1005800000D1FEE7A420FFF79BFD002800D1FEE785
:10059000A620FFF795FD002800D1FEE7AF20FFF76A
:1005A0008FFD002800D1FEE7A520FFF789FD002878
:1005B00000D1FEE7FEE7C04600D43000831E043BB6
:1005C000C046FCD27047C0460C2330B5074C0A78B1
:1005D00005596A4013406B4003510723043C0559F9
:1005E0004A786A4013406B40035130BD041000004C
:1005F000F0B5C646050000B5002A19D0F0270D4811
:10060000002484461C38002380463F0108E046460B
:10061000085D01330134A85198B2A3B29A4204D9BB
:100620006646AE5918003E42F1D104BC9046F0BD7A
:080630000020FAE73C12000073
:080638000800000000000000B2
:04000003000000C039
:00000001FF
