:1000000000802020150A0000110A0000110A0000DB
:1000100000000000000000000000000000000000E0
:10002000000000000000000000000000110A0000B5
:100030000000000000000000110A0000110A00008A
:10004000110A0000110A0000110A0000110A000044
:10005000110A0000110A0000110A0000110A000034
:1000600000000000110A0000110A0000000000005A
:100070000000000041020000110A0000110A000007
:1000800015020000110A0000110A0000110A000008
:10009000110A0000110A000000000000000000002A
:1000A00039020000110A00000000000000000000FA
:1000B000110A000000000000110A0000110A0000EF
:1000C000F0B557464E46DE464546E0B506000F0001
:1000D00089B0002966DB2B213A4800F0B9F83400DA
:1000E0003D00642200232000290000F06BFE200068
:1000F0000193904600236422290000F063FE06006D
:100100000F00002D56D001239946300039000A22F5
:10011000002300F057FE3032D4B24A464D46BA466C
:1001200002AB03339C543000002339000A2200F054
:1001300049FE6B1C99465346B3460F000600002B40
:10014000E3D15B46092BE0D802E002AB03335C5DF0
:10015000013D21001B4800F07BF8002DF5D12E2138
:10016000184800F075F8019C0A220023404621003F
:1001700000F028FE03003033D9B2124800F068F8CE
:10018000404621000A22002300F01CFE30320D48B8
:10019000D1B200F05DF809B0F0BCBB46B246A9464A
:1001A000A046F0BD2D21074800F052F8002574420A
:1001B000BD4196E7632CA6D83021024800F048F8EC
:1001C000CDE7C04600001040F8B50D4B0D4C1D6842
:1001D00020009E68DF680C4900F04EF82800E917FF
:1001E000FFF76EFF2000094900F046F830003900A3
:1001F000FFF766FF2000064900F03EF8F8BDC04654
:100200000000202000001040F8180000FC1800003A
:100210000C1900008123064A5B01D258FF231340CA
:10022000012B03D1034A13690A3313617047C04697
:10023000004008400000202010B500F07DFA10BDFD
:1002400010B5024800F084F810BDC0460000104010
:1002500010B501F0FDFA10BD70B5060000290AD0F6
:10026000002A08D00C008D1821783000013401F0EC
:10027000EFFAAC42F8D170BD70B505000C1E04D188
:1002800006E0280001F0E4FA013421780029F8D1D1
:1002900070BDC046F0B5CE46474680B581460E00DB
:1002A00085B0002927D003236B44012798463000EE
:1002B0000A2100F073FC43463031CCB2DC553000EB
:1002C0000A2100F0E5FB35003B0006000137092D4F
:1002D000EDD89D1E01AB9C46654401E02C78013DA4
:1002E0002100484601F0B4FAA845F7D105B0C0BCDA
:1002F000B946B046F0BD302101F0AAFAF6E7C04693
:1003000070B505000C1E04DB28002100FFF7C2FFBA
:1003100070BD2D2101F09CFA6442F5E770B5074EDF
:100320000B090D00F15C040001F092FA0F210D4061
:10033000715D200001F08CFA70BDC0467818000095
:100340000022024B1A805A801A7170474400202004
:1003500081235B01F0B5C258C646FF2300B51340A8
:100360000B2B02D080BCB846F0BD0F4D43595B0744
:10037000F8D40E4B3F279C460123042698460C4A8E
:1003800007E01488C9B214192172138043591E4220
:10039000E8D16346C1581388548801333B409C42DE
:1003A000EFD143461371F1E708110000241100005A
:1003B00044002020034B18885B88C01A431E9841D4
:1003C000C0B270474400202000280FD0084B198885
:1003D0005A8891420AD05A889A18127A598802701B
:1003E0003F22012001310A405A8070470020FCE77B
:1003F00044002020014B1879C0B2704744002020EF
:100400000022014B1A717047440020200C4BF0B5BC
:100410001A680F250B4E0C4F04E0D45918795979FE
:10042000884203D391590D42F7D1F0BD1979E4B256
:1004300059180C7219790131C9B21971F2E7C04625
:100440008C0020203C1200001C12000030B583B04C
:100450006B46184CD8712068073300280FD0A27D56
:10046000D5B2002A0BD1144A8258920607D5617181
:1004700001221900257101F013F9012802D0002092
:1004800003B030BD022322680C49E5752576A375BB
:10049000637E50585B0043405B055B0D4340535007
:1004A0000749084B5058084C4340234043405350A1
:1004B0000120E5E78C002020181200001012000037
:1004C00014120000030001000F00FF0F70B500259B
:1004D000114C1600E5752060257661766571A5766C
:1004E0002571E561A575002802D06839012903D975
:1004F00020230422E25470BD084B6436C55001F03D
:10050000F3F8206801F00AF928230122E554083B9A
:100510006662E254EFE7C0468C002020141200000F
:1005200070B5654C82B0237ED9B2002B1FD120223A
:10053000A35C012B06D0032B02D1E37D002B2AD133
:1005400002B070BD2825665D002E4DD0012E6AD008
:10055000022E5DD0032E74D0042E4AD0052EEFD18A
:10056000636AC01AECD428230322E254E8E700258A
:100570002268524B10002576E575D55001F0B4F88D
:10058000206801F0CBF82023E25CA575032A3CD05B
:100590000422E254D4E7E175237A617A1B020B430B
:1005A000A385A37AE17A1B020B43E385237B617B5E
:1005B0001B020B432386A37BE17B1B020B43638659
:1005C000237C617C1B020B43A386A37CE17C1B0282
:1005D0000B43E386237D617D1B020B4323870123AD
:1005E000A3760133A354ABE7626A801AA8D463559B
:1005F000A6E7E37D002BA3D0E369E1750133E36156
:10060000012B54D0042BAED920230222E25497E7C9
:10061000E37D002B00D193E7E175237A682B0CD0A2
:100620000423A3548CE701217520FFF70FFF002856
:1006300000D185E70223635582E70323E161635517
:100640007EE72068002800D17AE7A37D002B00D048
:1006500076E71B4BC3581A4200D171E7E369194A88
:100660005B00D1189B5C6A46497813715171022274
:1006700001A901F015F8022800D061E700232268E3
:10068000E375114923760133A375637E50585B00EF
:1006900043405B055B0D4340535008490B4B50589A
:1006A0000B4D43402B4043405350282370E76430A8
:1006B00004336062635543E78C002020141200006D
:1006C00018120000BC180000101200000700020001
:1006D0000700FF0F2023014AD05C70478C002020C8
:1006E00070B52025094C635D022B02D1A67E002E39
:1006F00001D0002070BD0E213B20FFF7A7FE00288F
:10070000F7D00323A6766355F4E7C0468C0020207B
:1007100070B500280CD0074DAC7E002C06D0290007
:100720000E222C3100F0B8FD0023AB76200070BD06
:100730000024FBE78C002020812370B5234C5B0153
:100740002268D158FF230B400B2B08D820499B006F
:10075000CB589F4600230122E3752276A37570BD16
:10076000FFF754FEFBE7A37D022B15D0A37DDAB281
:10077000012BF4D10023A375E275F0E7FFF746FEE5
:100780000023A375227963799A4202D0012323764C
:10079000E5E70123E375E2E70133A3756179637E41
:1007A00001240C485B00155823436B405B055B0D2F
:1007B0006B4013500B04072107480B43145807499B
:1007C00063400B4063401350C9E7C0468C002020B3
:1007D0008C18000010120000141200000F00FF0F10
:1007E000642310B58321584300F0DCF910BDC046E6
:1007F00070B50B4B0B4A0C4E0C4D0D490D4C0E4871
:10080000F250EA50E250C250CA500C4A043BF25037
:10081000EA50E250C2501020CA5000F027FF70BDCD
:1008200004080000030000B100000A4000200A4054
:10083000000010400040084000000F40010000266A
:100840000A4B0B4A5A60596859609A609A689A60D4
:100850008022596892041143596099680A439A604A
:100860008222DA64034A1A657047C046008042401B
:1008700083000C00820004000021094A094BD1507A
:10088000094A033113688B431360084B2D311A68F2
:100890008A431A601A6821398A431A607047C04631
:1008A00000F00A400813000000010B4004010B4057
:1008B00070B5094C094D2000290000F047FF291DA3
:1008C000200000F051FF0122054963581343635093
:1008D000044BE25070BDC04600400840C8180000FC
:1008E000281000000811000010B51749174C1831E6
:1008F000200000F0C1FE9023C0225B01E158D2002D
:100900000A43E2508022E15852000A43E25000229A
:1009100007210F4BE2500F4BE1500F4BE2588A4337
:10092000E250E2580D490A400421E2500C4BE258D3
:100930000A430C49E25060580B4A024362500121BD
:10094000E2580A43E25010BDC818000000000F40F2
:10095000141200002412000038120000FFF8FFFFFC
:1009600028120000281000008704000070B51A4DFE
:100970001A4C290020001C3100F060FF29002000E3
:10098000203100F037FF88225201A35814490B4050
:10099000A35011231349605843401B041B0C4340D0
:1009A000635017213F231048255869400B4001210F
:1009B0006B4023500D48235825580B406B400B408B
:1009C0006B40235080230A48DB0025582B432350DB
:1009D000A3580B43A35070BDC8180000000010407E
:1009E000FF7FFEFF10110000141100000411000031
:1009F0002810000010B5FFF7FBFEFFF721FFFFF7FF
:100A00003BFFFFF755FFFFF76FFFFFF7AFFF10BD8D
:100A1000FEE7C0461548164B10B5984207D2013B79
:100A20001A1A920801321349920000F035FC12485C
:100A3000124B984207D2013B1A1A92080132104910
:100A4000920000F029FC0F480F4B984207D2013B5F
:100A50001A1A920801320021920000F06FFC00F097
:100A6000F9FB00F0C1FCFFF7D3FF10BD0000202010
:100A700000002020481B0000000020200000202053
:100A80007818000000002020C80020207047C046D1
:100A9000002243088B4274D303098B425FD3030ABD
:100AA0008B4244D3030B8B4228D3030C8B420DD3D0
:100AB000FF22090212BA030C8B4202D3121209025E
:100AC00065D0030B8B4219D300E0090AC30B8B429C
:100AD00001D3CB03C01A5241830B8B4201D38B034A
:100AE000C01A5241430B8B4201D34B03C01A5241EF
:100AF000030B8B4201D30B03C01A5241C30A8B4232
:100B000001D3CB02C01A5241830A8B4201D38B021C
:100B1000C01A5241430A8B4201D34B02C01A5241C0
:100B2000030A8B4201D30B02C01A5241CDD2C30932
:100B30008B4201D3CB01C01A524183098B4201D3AE
:100B40008B01C01A524143098B4201D34B01C01A99
:100B5000524103098B4201D30B01C01A5241C30811
:100B60008B4201D3CB00C01A524183088B4201D380
:100B70008B00C01A524143088B4201D34B00C01A6C
:100B80005241411A00D20146524110467047FFE7D8
:100B900001B5002000F0F0F802BDC0460029F7D0F2
:100BA00076E7704703460B437FD4002243088B420D
:100BB00074D303098B425FD3030A8B4244D3030BE4
:100BC0008B4228D3030C8B420DD3FF22090212BAA9
:100BD000030C8B4202D31212090265D0030B8B4225
:100BE00019D300E0090AC30B8B4201D3CB03C01A0F
:100BF0005241830B8B4201D38B03C01A5241430BEA
:100C00008B4201D34B03C01A5241030B8B4201D3D9
:100C10000B03C01A5241C30A8B4201D3CB02C01A44
:100C20005241830A8B4201D38B02C01A5241430ABC
:100C30008B4201D34B02C01A5241030A8B4201D3AB
:100C40000B02C01A5241CDD2C3098B4201D3CB0152
:100C5000C01A524183098B4201D38B01C01A524101
:100C600043098B4201D34B01C01A524103098B4205
:100C700001D30B01C01A5241C3088B4201D3CB00F0
:100C8000C01A524183088B4201D38B00C01A5241D3
:100C900043088B4201D34B00C01A5241411A00D283
:100CA00001465241104670475DE0CA0F00D04942EC
:100CB000031000D34042534000229C4603098B425C
:100CC0002DD3030A8B4212D3FC22890112BA030AE4
:100CD0008B420CD3890192118B4208D38901921166
:100CE0008B4204D389013AD0921100E08909C309EB
:100CF0008B4201D3CB01C01A524183098B4201D3ED
:100D00008B01C01A524143098B4201D34B01C01AD7
:100D1000524103098B4201D30B01C01A5241C3084F
:100D20008B4201D3CB00C01A524183088B4201D3BE
:100D30008B00C01A5241D9D243088B4201D34B00D9
:100D4000C01A5241411A00D20146634652415B101B
:100D5000104601D34042002B00D5494270476346FC
:100D60005B1000D3404201B5002000F005F802BD41
:100D70000029F8D016E770477047C046002B15D100
:100D8000002A13D1002906DB01DC002806D0002050
:100D9000C043410802E080210906002007B4024850
:100DA00001A14018029003BDD1FFFFFF03B46846C4
:100DB00001B5029800F0F2F8019B9E4602B00CBC0F
:100DC0007047C046002B11D1002A0FD1002900D155
:100DD000002802D00021C943080007B4024802A13C
:100DE0004018029003BDC04691FFFFFF03B4684660
:100DF00001B5029800F006F8019B9E4602B00CBCBB
:100E00007047C046F0B557464E464546DE46E0B50B
:100E100004000D009246994683B08B4230D82DD005
:100E20004946504600F0D8F829000600200000F09E
:100E3000D3F8331A9846203B9B4633D45A46534640
:100E4000934042461F00534693401E00AF423AD89B
:100E5000AF4200D178E05B46A41BBD41002B00DA15
:100E600075E0002200230092019301235A4693402B
:100E70000193012342469340009328E08242CFD958
:100E800000220023009201930C9B002B01D01C60D8
:100E90005D600098019903B0F0BCBB46B246A9461C
:100EA000A046F0BD424620239B1A5246DA404146F6
:100EB00013004A468A40170042461F435346934058
:100EC0001E00AF42C4D90022002300920193434682
:100ED000002BD9D0FB0772081A4346467B080EE068
:100EE000AB4201D1A2420CD8A41A9D410120241981
:100EF0006D410021013E24184D41002E06D0AB4229
:100F0000EED9013E24196D41002EF8D100980199C7
:100F10005B4600196941002B24DB2B005A464446EE
:100F2000D3402A00E2401C005B461500002B2ADB60
:100F300026009E40330026004746BE403200801AFD
:100F40009941009001919FE7A342BCD883E74246B4
:100F5000202300219B1A0022009101920122DA40F5
:100F6000019286E7424620239B1A2A0046469A4071
:100F70002300F340444613432A00E2401C005B4632
:100F80001500002BD4DA42462F002023260097407C
:100F90009B1ADE403B003343CDE7C046F8B5CE4652
:100FA000474680B59146984604000D0000F04EF883
:100FB00007000E0002000B004846414600F018F8FA
:100FC000241A8D41089B380031001C605D60C0BC54
:100FD000B946B046F8BDC04610B5002903D100F0AF
:100FE0001BF9203002E0080000F016F910BDC046E1
:100FF000F0B5CE46474680B5070099463B0C9C4667
:1010000013041B0C1D000E0061460004140C000CA0
:1010100045434B4360436143C0182C0C20188C4659
:10102000834203D980235B029846C44449467943EE
:101030007243030C63442D042D0CC918000440199D
:101040008918C0BCB946B046F0BDC046F0B5574699
:101050004E464546DE46E0B50F0019000023060067
:101060009846100083B0002F07DA33003C000027B9
:101070005E42A74101235B429846002907DA4346B6
:10108000DB430C009846030000215842A141340084
:101090003D0082468946B9426AD867D049465046E3
:1010A000FFF79AFF834639003000FFF795FF5B4654
:1010B0001B1A9C46203B9B466BD4584651468140A8
:1010C00060460B00514681400A00BB4200D972E0E5
:1010D000BB4200D179E034003D005946A41A9D413D
:1010E000002900DA74E0002100200126009001911F
:1010F00059468E400196614601268E406146009613
:1011000000295FD0D90756080E435F0861460122C7
:1011100000230CE0AF4201D1A6420AD8A41BBD4176
:1011200024196D410139A4185D41002906D0AF4250
:10113000F0D9013924196D410029F8D1009801999D
:101140005B4600196941002B4DDB2E002C00DE4070
:101150006346DC405B46002B55DB34009C4023009B
:101160006446A6403200801A994103E0B04295D906
:10117000002000214346002B04D003000C00002176
:101180005842A14103B0F0BCBB46B246A946A046B6
:10119000F0BD624648462023514690409B1AD940F4
:1011A00003000091009960460B43514681400A00BC
:1011B000BB4200D88CE700210020009001916146DD
:1011C00000299FD100980199D4E7B142F3D882E772
:1011D000614620260127761A00200021F740009062
:1011E0000191019787E7624620239B1A2A009A40C3
:1011F000260013006246D6402C001E436346DC40A6
:101200005B46002BA9DA62462023350094409B1AE6
:10121000DD4023002B43A3E71C2101231B0498423C
:1012200001D3000C10391B0A984201D3000A083977
:101230001B09984201D30009043902A2105C40182E
:101240007047C046040302020101010100000000D2
:101250000000000070B50C4D0C4E761BB61005D08A
:10126000002408CD01349847A642FAD1FFF70EFCBE
:10127000074D084E761BB61005D0002408CD01346A
:101280009847A642FAD170BD401B0000401B0000E9
:10129000401B0000401B0000F0B5C64600B50F2AF9
:1012A00041D903270D003E0005430C0003002E40EA
:1012B0002F423DD11500103D2D09A8462D01AC4609
:1012C000844427681D001F6067685F60A7689F608F
:1012D000E7681034DF6010336545F2D145460F23CF
:1012E0000C2401352D01491913404519144222D00F
:1012F0008C59AC5104369C1B032CF9D8043B9B0839
:1013000001339B00ED18C91803231A40561E002A0A
:1013100006D00023CC5C1A00EC5401339642F9D17C
:1013200080BCB846F0BD0500561E002AF1D1F7E793
:101330000500561EEDE71A00F6E7C046F0B50500B9
:10134000830749D0541E002A45D003000326CAB2A1
:1013500002E00135013C3ED301332A703342F8D11B
:10136000032C30D9FF220A40150215432A041543E5
:101370000F2C34D92700103F3F093E01B4461E0010
:101380001A0010366644156055609560D5601032BD
:10139000B242F8D101373F01DB190F270C22274059
:1013A00022403C00002A0ED03E1FB608B400A446DE
:1013B0001A001C1D644420C2A242FCD10324013641
:1013C000B6009B193C40002C05D0C9B21C191970FD
:1013D00001339C42FBD1F0BD03001400C0E727009D
:1013E000E2E7C04600000000F0B5DE46454657463D
:1013F0004E46E0B58BB0FFF7FDFAFEF7A1FF8C4D2E
:1014000068212A698B48FFF761F88B498B48FEF702
:1014100033FF8B498948FEF72FFFC0228021894B7B
:10142000520049049950196080218901995019602E
:10143000802149029950196001208349834A00267E
:101440008B58002703438B50814B28699B46814B67
:101450009A46814B9946FFF763F8FFF73BF904285A
:1014600027D02C7D002C01D102282CD0202406A8C6
:10147000FEF7AAFF00280FD006AB1B78A3435A2B18
:1014800036D0522B3DD0502BF1D1FEF79DFE06A851
:10149000FEF79AFF0028EFD12B7D8046013B012B00
:1014A00045D930BF2869FFF73BF8FFF713F9042847
:1014B000D7D12B7D032BD9D0032359465F482B75F9
:1014C000FEF7DAFED2E765495C48FEF7D5FEAE606E
:1014D000EF602C602B6951462B63012357482E6225
:1014E0006F62AE62EF62AC612B75FEF7C5FEBDE7C1
:1014F00049465248AE62EF62AE60EF60FEF7BCFE56
:10150000B5E72B7D013B012BB1D80023AE60EF6026
:101510002B60AB612B6951462B63012347482E6238
:101520006F62AE62EF622B75FEF7A6FE9FE706A81C
:10153000FFF7EEF800281DD1FFF7CCF80228B0D154
:101540002B692A6B98469C1A092CAAD9FFF7C8F870
:101550000028A6D0132C0AD92B6C0A21013B2000AD
:101560000593FFF795FA059B9C4660442864434623
:101570002B6396E706AB0C229B5EAB862B7D012B83
:1015800020D0AC8EAB6B24B2E41A2000FFF728F910
:10159000E317009401932860AB6AEC6A0098019904
:1015A000C018614183220023A862E962FFF7E6FBCD
:1015B0000B000200AA60EB60EB6B0133092B31D802
:1015C000EB63B9E7AB8E1BB20293DB170393029870
:1015D00003992B6A6C6AC0186141AB692862696221
:1015E0000133AB61C72BA7D9C8220023FFF7C6FB85
:1015F0004346A863EB631A49023310482B75AE6269
:10160000EF62AE60EF60FEF737FEA96B0B48FEF7A6
:1016100077FE14490948FEF72FFE13490748FEF7E5
:101620002BFE89E74346EB63FEF7CEFD84E7C04619
:101630000000202000000F4014190000000010409E
:101640003819000000E100E00040084004180000E4
:101650007C190000D0190000181A0000AC19000015
:10166000341A0000541A00005C1A0000831E043B68
:10167000C046FCD27047C0460C2330B5074C0A78F0
:1016800005596A4013406B4003510723043C055938
:101690004A786A4013406B40035130BD041000008B
:1016A000F0B5C646050000B5002A19D0F0270D4850
:1016B000002484461C38002380463F0108E046464B
:1016C000085D01330134A85198B2A3B29A4204D9FB
:1016D0006646AE5918003E42F1D104BC9046F0BDBA
:1016E0000020FAE73C12000080210A4A10B5835816
:1016F000094C0B438350F021802209011201035948
:101700000B409342FBD18021024A83588B43835084
:1017100010BDC046381200003C1200008023084A69
:101720001B0281580B4383500F22064943581A422B
:10173000FCD1034A044983580B4083507047C0468C
:10174000381200003C120000FF7FFFFF0A78044BB4
:10175000C2504A78083BC2508A78024BC250704748
:10176000081000000C1100001A4B4A6830B5C25036
:101770000B78222B08D8184A9B00D3589F46174A4B
:10178000174C8358234083500A69164B164DC2509C
:10179000164ACB68845863402B4063400F4C8350FB
:1017A0000359134A134003510B780A7A05591A4317
:1017B0003F236A4013406B40035130BD8023C02556
:1017C000064A9B058458AD0563402B406340835017
:1017D000DAE7C04608180000B01A0000041800003C
:1017E000FFFFFFCF101800007777020030180000CD
:1017F0007F00FFFF882230B5012452018358A343A4
:1018000083508D780B8884582B438D882B43094D4A
:1018100063402B4063408350CA798B79064C134355
:101820000A7A055913437E226B4013406B400351E3
:1018300030BDC04618670200041100000A78034B4F
:10184000C2504A78083BC2507047C046081000009A
:10185000802210B5064C03591A42FCD1892301227B
:101860005B01C150024943581A42FCD110BDC04629
:08187000081100000000000057
:1018780030313233343536373839414243444546BE
:10188800000000005E0700007C07000066070000FB
:10189800600700005E0700005E0700005E070000AA
:1018A8005E070000540700005E0700005E070000A6
:1018B800540700006B011A0319091B001C000000E3
:1018C80008001F00020000000F27000000000000B1
:1018D80000000000000000000800000008000000F0
:1018E80000001800000000300000000000000000A8
:1018F800475A3D00206470732C20416E676C653D2B
:1019080000000000206465670D0A00000D0A4D53B1
:10191800504D30204D505536303530206D6F6E6942
:10192800746F72207374617274696E672E0D0A0089
:1019380049324320696E74657272757074206D6FD8
:1019480064652C203130206D732074696D657220B8
:10195800747269676765722C2048432D30352061A1
:10196800742031313532303020626175642E0D0AB1
:10197800000000004552524F523A204D5055363023
:10198800353020696E697469616C697A6174696F50
:101998006E206F7220493243206661696C65642E3F
:1019A8000D0A00004D50553630353020636F6E6695
:1019B800696775726174696F6E20636F6D706C65AD
:1019C80074652E0D0A0000004B656570207468650B
:1019D80020636172207374696C6C3A20636F6C6C5D
:1019E800656374696E67203230302073616D706C86
:1019F800657320666F72205A2D6178697320636160
:101A08006C6962726174696F6E2E0D0A00000000C5
:101A1800416E676C6520726573657420746F203041
:101A28002E3030206465672E0D0A000043616C6912
:101A380062726174696F6E20636F6D706C65746536
:101A48002E205A206F66667365743D00204C534201
:101A58000D0A000053747265616D696E67206174C8
:101A68002031303020487A2E2053656E6420277A42
:101A78002720746F207A65726F20616E676C652C01
:101A88002027722720746F20726563616C69627207
:101A98006174652C2027702720746F207072696E1E
:101AA800742E0D0A000000007E1700008817000041
:101AB8007E170000881700008817000088170000AC
:101AC8008817000088170000881700008817000092
:101AD8008817000088170000881700008817000082
:101AE8008817000088170000BC170000881700003E
:101AF800BC1700008817000088170000881700002E
:101B08008817000088170000881700008817000051
:101B18008817000088170000881700008817000041
:101B28008817000088170000BC17000088170000FD
:081B3800BC17000000000000D2
:081B4000C4F2FF7F0100000068
:04000003000000C039
:00000001FF
