:1000000000802020854900008149000081490000CE
:1000100000000000000000000000000000000000E0
:100020000000000000000000000000008149000006
:10003000000000000000000081490000814900002C
:100040008149000081490000814900008149000088
:100050008149000081490000814900008149000078
:1000600000000000814900008149000000000000FC
:100070000000000081490000814900005526000071
:1000800029260000814900008149000081490000C3
:1000900081490000814900000000000000000000CC
:1000A00081490000814900000000000000000000BC
:1000B00081490000000000008149000081490000E2
:1000C00000B51C4A430083B05B08934219DDFF2250
:1000D000D205934204DB011C01F074FE03B000BDA5
:1000E000694600F015F903230199184001280CD046
:1000F000022817D0002811D00122009800F0E8FE55
:10010000ECE7002100F07EFAE8E70122009800F019
:10011000DFFE80231B069C466044DFE7009800F06A
:1001200071FADBE7009800F06DFA80231B069C460D
:100130006044D3E7D80F493F00B51D4A430083B060
:100140005B0893421CDDFF22D205934204DB011CB5
:1001500001F038FE03B000BD694600F0D9F8032372
:1001600001991840012810D0022817D0002810D07B
:10017000009800F047FA80231B069C466044E9E79C
:100180000022002100F0A4FEE4E7009800F03AFA13
:10019000E0E70122009800F09BFEDBE701220098D7
:1001A00000F096FE80231B069C466044D2E7C046C2
:1001B000D80F493F70B5051C0C1C00F021F80F4BFF
:1001C000061C1B785BB201330BD0211C281C01F0EC
:1001D000A7FF002805D10021201C01F021F90028EB
:1001E00001D1301C70BD02F07FF821230021036093
:1001F000081C01F0F9FA061CF3E7C04600002020B5
:10020000F8B54B00041C5D08002B58D0FF264300B6
:100210005B08F605B34252DAB54250DCAB4254DB20
:10022000C20FD207AB4251D0064258D17E271802E6
:100230007F42002803DD013F40000028FBDCFF2057
:10024000C005084253D128022E025AD47E26764297
:10025000013E4000FCD538007E3043DB8023640241
:10026000640A1B04234330007E3033DB80254902BF
:10027000490A2D040D43B91BB74208D05C1B5B0033
:10028000002C01DB22D0630001390029F6D15D1B6F
:1002900000D42B00002B19D08020000401008342E1
:1002A00003DA5B00013E8B42FBDB31007E3121DB58
:1002B00015497F365818F6051043304305E0201CD9
:1002C00001F05AFC011C01F08FFAF8BD0F4B520FE0
:1002D000D058FAE77E214942891B8D40CBE7DF15D4
:1002E0007F3FACE77E204042C01B8340BBE7EE155A
:1002F0007F3EB0E77E2149428E1B334113431800F5
:10030000E3E77E267642A6E7000080FFC84D0000A6
:10031000F0B54E46DE4657464546E0B5AC4B89B093
:1003200046000C00039076089E4200DC71E0A94B69
:100330009E4220DCA849002800DC1FE101F042FDBC
:100340000F239E43A54B051C9E426ED0A44901F08D
:1003500039FD011C2060281C01F034FDA04901F08A
:1003600031FD01256060280009B0F0BCBB46B246F3
:10037000A946A046F0BD9B4B9E4268DDFF23DB05EE
:100380009E424BDAF715863FFD05751B281C01F0D0
:10039000DDFE01F0FBFE011C0590281C01F012FDA2
:1003A0008721C90501F0E8FB804601F0CFFE01F08E
:1003B000EDFE011C0690051C404601F003FD87215F
:1003C000C90501F0D9FB0021079001F029F80028A8
:1003D00000D1B6E00021281C01F022F8434243413D
:1003E0000133814A21000192022205A800923A00BD
:1003F00000F0D0F9039B0500002BB4DA802212062E
:1004000094462368454263442360636863446360A1
:10041000A9E70023002508604B60A4E7011C01F058
:10042000D1FC0025606020609DE7704901F0CAFCA6
:100430006F49051C01F0C6FC011C2060281C01F05E
:10044000C1FC6B4901F0BEFC012560608BE700F048
:10045000B7FD6849071C01F08FFBFC21890501F0FD
:1004600025F801F073FE050001F090FE5A4982461E
:1004700001F082FB011C381C01F0A4FC58498146A4
:10048000504601F079FB80461F2D23DCFF2332000C
:1004900059499A436B1E9B005B589A421AD04146B9
:1004A000484601F08FFC071C2760391C484601F0C4
:1004B00089FC414601F086FC039B6060002B00DB59
:1004C00051E780231B069C466744604427606060B8
:1004D0006D4248E74146484601F074FCF3159B46DF
:1004E000FF22C30D13405A46071CD31A082BDBDD2D
:1004F0003E49504601F040FB071C011C484601F0F4
:1005000061FC011C061C484601F05CFC391C01F032
:1005100059FC3749071C504601F02EFB391C01F0ED
:1005200051FC011C8046301C01F04CFCFF22C30D25
:1005300013405A46071CD31A192B04DCB14620601D
:10054000B3E703234DE72D49504601F015FB071C87
:10055000011C301C01F036FC011C8146301C01F0EE
:1005600031FC391C01F02EFC2549071C504601F0D6
:1005700003FB391C01F026FC804690E700F096FF53
:100580000F239E43154B051C9E420ED0144900F0CC
:100590008DFF011C2060281C01F014FC104900F0A4
:1005A00085FF012560606D42DDE6104900F07EFFA9
:1005B0000F49051C00F07AFF011C2060281C01F087
:1005C00001FC0B4900F072FF012560606D42CAE634
:1005D000D80F493FE3CB1640800FC93FD00FC93F2A
:1005E00043443537800F4943504E000000443537AF
:1005F00008A3852E84F9223FD04D000000A3852E4C
:1006000032318D24F8B54746CE46C823460080B522
:10061000051C0F1C76089B059E4248DA01F096FDEA
:10062000002800D19FE0291C281C01F0A5FA4F49A1
:10063000041C01F0A1FA4E4900F038FF211C01F022
:100640009BFA4C4901F0BEFB211C01F095FA4A4986
:1006500000F02CFF211C01F08FFA484901F0B2FB99
:10066000211C01F089FA464900F020FF211C01F00D
:1006700083FA8046FC21201C890501F07DFA414661
:10068000061C201C01F078FA391C041C281C01F0FF
:1006900073FA011C201C01F095FB011C301C01F0B9
:1006A00091FB011CFE20800501F08CFB53E0011C36
:1006B00001F062FA2D49041C01F05EFA2C4900F0A9
:1006C000F5FE211C01F058FA2A4901F07BFB211CA0
:1006D00001F052FA284900F0E9FE211C01F04CFA21
:1006E000264901F06FFB211C01F046FA244900F075
:1006F000DDFE211C01F040FA224B80469E42B9DD0E
:10070000214B9E422BDCFF231B069C46FE206644A9
:10071000311C800501F056FB8146FC21201C890517
:1007200001F02AFA311C01F04DFB4146061C201C49
:1007300001F022FA391C041C281C01F01DFA011CCE
:10074000201C01F03FFB011C301C01F03BFB011C95
:10075000484601F037FBC0BCB946B046F8BD0B4B6C
:100760000B4E9946D9E7FE208005F4E74ED747ADFA
:10077000F6740F317CF29334010DD037610BB63A29
:10078000ABAA2A3D9999993E0000483F0000383FA6
:100790000000903EF0B5DE4657464E464546E0B571
:1007A000DFB0039018000B91689908938B00BF4944
:1007B0000D92C958130006910100013901911A1DCB
:1007C00000DAFEE2DA1E0723D1170B409B18DB107C
:1007D000591C0093CB000C930C9A0D9B9B1A05930C
:1007E000009A019BD41A069AD6180ED40136699F36
:1007F00022AD36190020002C03DBA300F85801F0CD
:10080000C5FC013401C5B442F4D1069B002B00DACB
:100810003CE3089A4AAB94469A460793019B9F0093
:10082000994622AB9846069BB84463449B46039B7B
:1008300004379C466744019B0024002B0EDB464690
:100840000024039D316801CD01F096F9011C201CA4
:1008500000F02CFE043E041CBD42F3D1534610C3ED
:100860009A4604239C46033BE0449C46E144D94518
:10087000E1D10EAB04219A46494251448C46069A76
:1008800093009C4461460A916999083B8C46534405
:100890000993009B08999B0063440293039B8F007C
:1008A000043BDF190492049B9A0093465946079A29
:1008B0005458002B28DD1E007D4BB9469C466644EB
:1008C000944690465746B6006644EE21201C8905A2
:1008D00001F052F901F03AFC01F058FC8721C905FA
:1008E000051C01F049F9011C201C01F06BFA01F014
:1008F0002DFC316801C7281C00F0D8FD3300041C12
:10090000043E9845E1D14F46059E201C310000F081
:10091000A7FBF8218905041C01F02EF900F054FB17
:100920008221C90501F028F9011C201C01F04AFAB6
:10093000041C01F00BFC814601F028FC011C201C6A
:1009400001F040FA051C002E7BDD049B08205A1E96
:10095000534692009B58801B1900014189448140F5
:100960005B1A51468B500722921B1341984643460F
:10097000002B74DC0021281C00F052FD002800D15F
:10098000CDE0049B069A591E8A420EDC484A0A981A
:100990009446002263449B0053441C68043B22435A
:1009A0008342FAD1002A00D00BE15246069B013B5C
:1009B0009B00D358002B00D0FEE00122099B196850
:1009C000043B01320029FAD0049B9C46591C8946FD
:1009D00062440092089B049E9C4622AB9846079B6B
:1009E00066449C46B600B044E3444B46029A9B00E2
:1009F000D05801F0CBFB43461860019B002B1EDB57
:100A000046460024039D01E030680435296801F062
:100A1000B3F8011C201C00F049FD043E041CBD423B
:100A2000F2D15B465C6001239C460333E1449C4663
:100A3000009BE044E3449945D7DD049333E7002469
:100A4000EFE7059B002B00D0ACE05246049B013B36
:100A50009B00D3581B1298464346002B8ADD012386
:100A60009C46049BE144002B00DCBFE153461C681C
:100A7000002C00D08CE0049B012B21D001220FAB75
:100A80001C68002C00D186E0531C802149000C1BFF
:100A9000514692008C50049A9A4210DD50469B00B9
:100AA000CA585844FF21534405E0C046685100002D
:100AB000FFFFFF3F1A688A1A04C38342FAD1012458
:100AC000059B002B0DDD012B00D175E1022B08D118
:100AD0003F22049B013B9B005146C9580A405146A6
:100AE000CA504346022B00D044E7FE20291C800553
:100AF00001F068F9051C002C00D13BE7FE200599A8
:100B0000800500F0ADFA011C281C01F05BF9051C02
:100B10000021281C00F084FC002800D031E7434667
:100B200001934B460D9A03930C9B281C991A00F0D5
:100B300097FA8721C905051C00F096FC002800D112
:100B400080E1EE21281C890501F016F801F0FEFA7B
:100B500001F01CFB8721C905041C01F00DF8011CE4
:100B6000281C01F02FF901F0F1FA53465A4698502B
:100B700001229446049B201C63449846059B08333D
:100B8000059343469D0001F0E1FA5346585135E084
:100B90000123002279E70499013204338A4200D00C
:100BA0006EE78DE7FC21890500F05EFC002800D08F
:100BB0000CE100239846DDE6049B0133994600933F
:100BC00008E74346884601934B4603934346524603
:100BD00005999B00D35808390591002B0ED1B84ACE
:100BE000049B9446424663449B0053441868043B6C
:100BF000013A08390028F9D090460591FE20059960
:100C0000800500F02DFA4346041C002B00DA40E179
:100C10009B009C46079A1D00624491461600029371
:100C20005544286801F0B2FA211C00F0A5FFEE211E
:100C300030608905201C00F09FFF043E2B00041C3F
:100C4000043D9A45EDD10C22944636AB9B469D4B14
:100C5000002763449A4643460093069B98464346C2
:100C60000024002B1ADB3B0000264F460024002501
:100C70009946954804E00436A9450CDB5346F058E4
:100C8000B95900F079FF011C201C00F00FFC013560
:100C9000041CA845EFDA4B46B9461F005A46BB0074
:100CA000D450042252429446009A7B1CE14497425D
:100CB00001D01F00D3E7009B9846689B022B21DCE4
:100CC000002B00DD94E013D100205D46029C5C44C3
:100CD000216800F0EBFB2300043C9D42F8D1019B0E
:100CE000002B03D080231B069C4660440B9B18609E
:100CF0000720039B18405FB0F0BCBB46B246A94634
:100D0000A046F0BD689B032BF2D14346002B00D1D7
:100D1000D3E05B46029A9E586C4B434499469D0033
:100D20005D442B68301C191C9A4600F0BFFB341C34
:100D3000011C061C504601F045F8211C00F0B6FBD2
:100D40002F0068602E60043DBB45EAD14346012B6D
:100D500000DCB2E05B46029A5D469E584B469B0023
:100D6000984645442F68301C391C00F09FFB341C0A
:100D7000011C061C381C01F025F8211C00F096FB14
:100D80002F0068602E60043DAB45EBD14446002047
:100D900004345C442168043C00F088FBA742F9D18C
:100DA000019B002B57D10B9B369A98601A605A46CC
:100DB000526800925A609BE7049B7F22013B9B0094
:100DC0008AE608230C930023009305E501239C4643
:100DD00001339846049BE144002B00DD46E6FE20EB
:100DE000291C800500F0EEFF051CC3E5002467E622
:100DF00000205D46029C5C44216800F057FB230004
:100E0000043C9D42F8D1019B002B32D10B9B011C6D
:100E10001860369800F0D6FF4346002B0FDD012402
:100E2000464637AD02CD013400F040FBA642F9DA68
:100E3000019B002B03D080231B069C4660440B9B28
:100E4000586055E7281C01F081F953465A469850DE
:100E5000049B9846D2E6802212069446369B0B9A53
:100E6000634413605B465B68604463445360906016
:100E70003EE780230B9A1B06C3181360011C3698AB
:100E800000F0A0FF4346002BC9DCD4E74AAB079330
:100E9000EFE4689B022B06DC002B0CDC0020002B0F
:100EA00000D11CE724E7689B032B00D020E736AB7A
:100EB00000209B4674E70020A5E7002070E7C046AD
:100EC000FEFFFF3F685100000000C93FFFFFFF3FEA
:100ED000F8B54746CE4680B51700C8224300041C2B
:100EE0000E1C5B089205934205DA01F02FF903000E
:100EF000201C002B32D0211C201C00F03DFE051CC4
:100F0000011C201C00F038FE27498046281C00F0F8
:100F100033FE264900F056FF291C00F02DFE24491F
:100F200000F0C4FA291C00F027FE224900F04AFF15
:100F3000291C00F021FE204900F0B8FA8146002F5C
:100F400010D1011C281C00F017FE1C4900F03AFFCC
:100F5000414600F011FE211C00F0A8FAC0BCB946C1
:100F6000B046F8BDFC21301C890500F005FE49465D
:100F7000071C404600F000FE011C381C00F022FF58
:100F8000291C00F0F9FD311C00F01CFF0B49051C69
:100F9000404600F0F1FD011C281C00F087FA011CFE
:100FA000201C00F00FFFD9E7D3C92E2F342FD732E2
:100FB0001BEF3836010D50398988083CABAA2A3E10
:100FC000400040087047C046F0B5C646440063087C
:100FD000240E7F3C0700984600B5051C162C2EDC1D
:100FE000002C1ADB1B4B061C23419846034210D0F1
:100FF000194900F05BFA002100F02CFA002808D013
:10100000002D03DA80273F0427417F1943469F4381
:101010003E00301C80BCB846F0BD0F4900F046FAD7
:10102000002100F017FA2E1C0028F2D00026002D17
:10103000EFDA43462E1C002BEBD0084EE9E7FF23E6
:10104000061CDB059845E4D3011C00F02FFA061CB2
:10105000DFE7C046FFFF7F00CAF24971000080BF92
:10106000420070B5031C0C0056080100002A1BD07A
:10107000FF25ED05AE4218D2284219D19821C905A5
:1010800000F07AFD1E4A031C94422ADB4200120E35
:10109000193A12190100FE2A0EDD1A48002B00DA57
:1010A0001948184900F068FD70BD00F0FFF9FBE732
:1010B000120E1219FE2AF0DC002A0DDC1000163088
:1010C00013DA124A9442E8DC1148002B00DA114886
:1010D0000F4900F051FDE7E70F480140D0050843F4
:1010E000E2E70B4900F048FDDEE71932D0050A4A75
:1010F00011400843CC21890500F03EFDD4E7C046ED
:10110000B03CFFFFCAF24971CAF249F150C3000076
:101110006042A20D6042A28DFFFF7F800022430843
:101120008B4274D303098B425FD3030A8B4244D3AF
:10113000030B8B4228D3030C8B420DD3FF220902F1
:1011400012BA030C8B4202D31212090265D0030BB0
:101150008B4219D300E0090AC30B8B4201D3CB03A6
:10116000C01A5241830B8B4201D38B03C01A5241E8
:10117000430B8B4201D34B03C01A5241030B8B42EA
:1011800001D30B03C01A5241C30A8B4201D3CB02D5
:10119000C01A5241830A8B4201D38B02C01A5241BA
:1011A000430A8B4201D34B02C01A5241030A8B42BD
:1011B00001D30B02C01A5241CDD2C3098B4201D3D5
:1011C000CB01C01A524183098B4201D38B01C01A53
:1011D000524143098B4201D34B01C01A52410309CA
:1011E0008B4201D30B01C01A5241C3088B4201D379
:1011F000CB00C01A524183088B4201D38B00C01A26
:10120000524143088B4201D34B00C01A5241411A4C
:1012100000D20146524110467047FFE701B5002059
:1012200000F0F0F802BDC0460029F7D076E770471D
:1012300003460B437FD4002243088B4274D3030937
:101240008B425FD3030A8B4244D3030B8B4228D3D8
:10125000030C8B420DD3FF22090212BA030C8B42FE
:1012600002D31212090265D0030B8B4219D300E09E
:10127000090AC30B8B4201D3CB03C01A5241830B23
:101280008B4201D38B03C01A5241430B8B4201D3D3
:101290004B03C01A5241030B8B4201D30B03C01AFC
:1012A0005241C30A8B4201D3CB02C01A5241830A76
:1012B0008B4201D38B02C01A5241430A8B4201D3A5
:1012C0004B02C01A5241030A8B4201D30B02C01ACF
:1012D0005241CDD2C3098B4201D3CB01C01A524136
:1012E00083098B4201D38B01C01A524143098B42BF
:1012F00001D34B01C01A524103098B4201D30B01A8
:10130000C01A5241C3088B4201D3CB00C01A5241CC
:1013100083088B4201D38B00C01A524143088B4291
:1013200001D34B00C01A5241411A00D2014652412A
:10133000104670475DE0CA0F00D04942031000D349
:101340004042534000229C4603098B422DD3030A9E
:101350008B4212D3FC22890112BA030A8B420CD3AE
:10136000890192118B4208D3890192118B4204D3D7
:1013700089013AD0921100E08909C3098B4201D357
:10138000CB01C01A524183098B4201D38B01C01A91
:10139000524143098B4201D34B01C01A5241030908
:1013A0008B4201D30B01C01A5241C3088B4201D3B7
:1013B000CB00C01A524183088B4201D38B00C01A64
:1013C0005241D9D243088B4201D34B00C01A52413B
:1013D000411A00D20146634652415B10104601D3C8
:1013E0004042002B00D54942704763465B1000D352
:1013F000404201B5002000F005F802BD0029F8D0F8
:1014000016E770477047C046844608006146FFE70C
:101410001FB500F06DFB002801D40021C8421FBD9C
:1014200010B500F0F9FA4042013010BD10B500F0DF
:101430005FFB002801DB002010BD012010BDC0466D
:1014400010B500F055FB002801DD002010BD012083
:1014500010BDC04610B500F005FB002801DC0020DF
:1014600010BD012010BDC04610B500F0FBFA0028E9
:1014700001DA002010BD012010BDC0469E2110B52C
:10148000C905041CFFF7F0FF002803D1201C00F061
:101490005DFE10BD9E21201CC90500F093FC00F0EC
:1014A00055FE80231B069C466044F2E7F0B5C64615
:1014B00043025B0A4E0245004F00DA00C40F9C460F
:1014C000700A904600B52D0E3F0EC90FB6098C422A
:1014D0004BD0EA1B002A36DD002F61D0FF2D00D152
:1014E000ADE08023DB041E431B2A00DCD3E0012097
:1014F0004346181A430100D48CE080018709380064
:1015000000F0D4FE05388740854200DCB6E02D1A95
:10151000B3483840430704D00F230340042B00D0C6
:101520000430430100D478E06A1CFE2D65D08001B0
:10153000430A9C46D2B26346D0051843E4072043D1
:1015400080BCB846F0BD002A35D07A1B002D00D0F3
:10155000AFE04346002B00D1A7E0531E012A00D183
:101560002FE1FF2A69D01A00AAE0E91B002970DDEB
:10157000002F37D0FF2D62D08023DB041E431B29B0
:1015800000DCB0E001204044430143D50135FF2D8C
:1015900033D00123934A0340400810401843B9E771
:1015A000002E00D183E0511E012A00D1D8E0FF2A8D
:1015B00045D00A0098E7FE276A1C174200D086E053
:1015C000002D00D0B7E04346002B00D1F3E000220D
:1015D000002EB0D0981B430100D4FAE043460C0023
:1015E000F01A97E7002E00D1C8E04A1E012900D169
:1015F000AEE0FF2923D01100C1E70023FF229C4663
:1016000099E7FE216A1C114277D0FF2AF5D0150018
:1016100046447008430700D07EE7C308FF2D0ED074
:101620005B025B0A9C46EAB285E7002E07D0802267
:10163000D203134203D0104201D10C000300002B4F
:10164000DBD08020C00318434002430A9C46FF229F
:1016500071E70029D5D07A1B002D60D14346002BBD
:1016600024D0531E012A73D0FF2AE7D01A001B2A68
:1016700000DC85E001203D00801985E720233A0049
:10168000451B38000135EA405D1BA840431E9841C8
:10169000002510433EE7202330009B1A310098407C
:1016A000D140431E9841084322E70C000300150077
:1016B000B4E7FF2FC1D080234046DB0418438046A7
:1016C0001B2A51DD01200C003D00301A12E7434671
:1016D0009F1B7B012BD4002F00D010E70023002498
:1016E00000229C4627E7202332003000CA40591AC6
:1016F0008840431E9841104345E7002D4AD1434698
:10170000002B63D00022002E00D114E730004044AB
:10171000430100D47EE7324B013518407AE7FF2FB2
:101720008CD080234146DB04194388469FE743461B
:101730000C00F71AE3E64246002A00D075E7002EB7
:1017400000D07AE78023DB0300249C46FF22F2E6E8
:10175000300040440125430100D45BE7022518E72F
:1017600043460125981BC5E6202344464046D44005
:101770009A1A9040431E98412043A4E70D004DE77C
:10178000202341464046D1409A1A9040431E98413A
:10179000084370E74246002A00D14FE7002E00D1EF
:1017A0004DE78022D203134200D148E7104200D017
:1017B00045E7030043E7002E90D00C00844600224A
:1017C000B9E643460C00F01A013593E68446002240
:1017D000B1E6002800D01DE7002300249C46AAE6BD
:1017E000FFFFFFFBFFFFFF7DF0B54F464646D646A5
:1017F0004502C0B547000C1C6D0A3F0EC60F002FF6
:1018000000D170E0FF2F00D175E0EB008025ED04E2
:101810001D43002399469A467F3F6002430A98463B
:1018200063001B0EE40F002B4ED0FF2B46D0424628
:10183000D0008022D2040243904600227F3B310038
:10184000FF1A4B466140C9B213430F2B00D9B5E0D4
:101850006E489B00C3589F46002398462600454685
:1018600092465346022B00D189E0032B00D19EE023
:10187000012B18D03B007F33002B69DD6A0704D0B1
:101880000F222A40042A00D004352A0103D5604BD8
:101890001D403B008033FE2B00DD70E0AD016D0A82
:1018A000D8B202E00E0000200025C0052843F6074C
:1018B0003043E0BCBA46B146A846F0BD4346002BD3
:1018C0003FD10222FF3F03E04346002B2DD10122EE
:1018D00031004B466140C9B213430F2B34D84D48F9
:1018E0009B00C3589F46002D13D104239946033B08
:1018F00000279A4691E7002D05D108239946063B1B
:10190000FF279A4689E70C239946093BFF279A4609
:1019100083E7280000F0CAFC7627431F9D40002380
:101920007F4299469A463F1A77E7404600F0BEFC50
:101930004246431F9A4076235B4290461B1A002280
:101940007DE7FF2303227AE70E00FF200025ACE7A6
:101950000120C01A1B28A6DC9E372A00BD40C240C9
:101960006B1E9D4115436B0704D00F232B40042BA6
:1019700000D004356B0144D50120002595E7FF20F8
:10198000002592E780250026FF20ED038DE7002348
:1019900098468020C003054209D04346034206D141
:1019A000454605436D022600FF206D0A7DE7802035
:1019B000C00305436D02FF206D0A76E742466B01C6
:1019C0005001834219D21B220025013F01261C0031
:1019D0006D005B00002C01DB984201D81B1A3543D7
:1019E000013A002AF3D15A1E93411D433B007F3335
:1019F0000E00002B00DD41E7AAE71A2201251B1A81
:101A0000E4E7AD0100206D0A4FE7C046A051000099
:101A1000FFFFFFF7E051000070B5420045024E02A3
:101A20004C00C30F6D0A0120120E760A240EC90F56
:101A3000FF2A06D0FF2C03D0A24201D1B54206D026
:101A400070BD002DFCD1FF2CFAD1002EF8D18B42B5
:101A500006D00120002AF3D12800431E9841EFE769
:101A60000020EDE770B5420045024E024C00C30F66
:101A70006D0A120E760A240EC80FFF2A1BD0FF2C07
:101A80000ED0002A1BD1002C01D1002E1CD0002D1D
:101A90000CD083421CD00221581E0840013870BD72
:101AA000002E22D1002AF4D1002DF2D10028F6D147
:101AB00001204042F3E7002D17D1FF2CF0D0002C7D
:101AC000E7D1002EE5D1E6E70020002DE7D0E2E7E0
:101AD000A24205DCEADBB54202D8E7D30020DEE70C
:101AE0004342584140000138D9E702204042D6E73E
:101AF00070B5420045024E024C00C30F6D0A120E33
:101B0000760A240EC80FFF2A0BD0FF2C0DD0002A16
:101B10001FD1002C16D1002E14D10020002D10D082
:101B200009E0002D0CD1FF2C13D1002E08D1002A82
:101B300008D0834212D00221581E0840013800E02C
:101B4000022070BD002DF4D10028FAD101204042BE
:101B5000F7E7002CEDD1002EEBD1ECE7A24205DC3B
:101B6000F2DBB54202D8EFD30020EAE74342584106
:101B700040000138E5E7C046F0B54F464646D64638
:101B800044024500C0B5640A0F1C2D0EC60F002D7F
:101B900000D18DE0FF2D00D192E0002380209946F6
:101BA0009A46E400C00404437F3D7802430A984605
:101BB0007B001B0EFF0F002B00D170E0FF2B00D12C
:101BC00086E04246D00080227F3BED180023D204FD
:101BD000024390469C4631004B467940681C0F2BCF
:101BE0001CD8764A9B00D3589F4639004446E246AB
:101BF0005346022B0FD0032B00D1D7E0012B37D156
:101C000000200024C0052043C9070843E0BCBA46B1
:101C1000B146A846F0BDFF200024F3E7260C2404BB
:101C2000220C44462404240C434627001B0C574333
:101C300074435A435E4312193B0C9B189C4203D9D0
:101C400080225202944666443F041A043F0CD21983
:101C50009401671EBC411B0C920E9B1914439B01FF
:101C60001C431B0100D49BE0012362081C40144369
:101C700002007F32002A64DD630704D00F23234073
:101C8000042B00D00434230103D502004C4B8032D6
:101C90001C40FE2ABFDCA401640AD0B2B2E743466E
:101CA000002B3DD14A4601331A4391469C4692E7A8
:101CB000002C29D104239946033B00259A4674E75A
:101CC000002C1BD108239946063BFF259A466CE75A
:101CD0004346FF35002B0BD102234A461A43914657
:101CE0009C4678E753463100022B00D083E792E709
:101CF00003234A461A4391469C466CE70C239946B7
:101D0000093BFF259A4650E7200000F0CFFA7625E0
:101D1000431F9C4000236D4299469A462D1A44E782
:101D2000404600F0C3FA4246431F9A4000232D1A52
:101D300090469C46763D4EE780240021FF20E40338
:101D400060E701239B1A1B2B00DD59E722009E3020
:101D5000DA4084401300621E94411C43630704D0A0
:101D60000F232340042B00D0043463011AD5012033
:101D7000002447E78020C003044209D043460342C1
:101D800006D14446044364023900FF20640A39E75F
:101D90008020C003044364023100FF20640A31E75D
:101DA000280065E7A4010020640A2BE78020C00317
:101DB00004436402FF20640A24E7C0462052000066
:101DC000FFFFFFF7F8B5CE46474643025B0A4E02D7
:101DD000DA009446720A914645004A0080B52D0EFD
:101DE0001F00C40F120EC90FB609FF2A5BD00120D5
:101DF00041408C4239D0A81A00285ADD002A6AD006
:101E0000FF2D00D1D9E08022D20416431B2800DC2C
:101E1000E9E001206346181A430100D4B4E08001D0
:101E20008709380000F042FA05388740854200DC17
:101E3000CCE02D1AB5483840430704D00F230340A7
:101E4000042B00D00430430100D4A0E06A1CFE2D16
:101E500000D18DE08001470AD2B2D0053843E407B3
:101E60002043C0BCB946B046F8BDA81A8046002839
:101E700045DD002A70D0FF2D00D19EE08023DB04D9
:101E80001E4343461B2B00DCD2E00120604443018B
:101E90007AD50135FF2D6BD001239D4A03404008C0
:101EA00010401843C8E7002E20D08C4223D02800D1
:101EB000FF38002839D0571B002D00D09DE0634625
:101EC000002B00D1DBE07B1E012F00D10DE1FF2FA5
:101ED00071D01F0098E0002E00D1A7E0421E01281B
:101EE00000D1E6E0FF2868D010008FE701204140D4
:101EF000A14200D07FE7FF2040428046A8444046F0
:101F0000002838D0511B002D00D1AEE0FF2A00D1AF
:101F1000DFE080236046DB04184384461B2900DC95
:101F2000D9E0012015008019B1E7FE206A1C10429B
:101F300071D1002D00D0A6E06346002B00D1D9E07E
:101F40000022002E00D188E7981B430100D4E1E075
:101F500063460C00F01A6FE7002E00D1B7E00200D4
:101F6000013A012800D19CE0FF2826D0904688E75E
:101F7000FF22002771E7FE206A1C104264D0FF2A6E
:101F8000F6D0150066447008430700D056E7C30832
:101F9000FF2D12D05B025F0AEAB25EE76246002ABA
:101FA00000D196E0002E08D08022D203134204D044
:101FB0004846104201D10C004B46002BD8D0802758
:101FC000FF031F437F02FF227F0A46E720233A00D8
:101FD000451B38000135EA405D1BA840431E98416F
:101FE0000025104328E720231B1A32009E40C240E0
:101FF0003000431E984110430CE7FF2ADBD08023BA
:102000006046DB04184384461B2F56DD01200C007C
:102010001500301A00E763469F1B7B013DD4002F5B
:1020200000D0FEE600240022002716E70500AFE7F7
:10203000320043464146DA4020235B1A9E4030007E
:10204000431E9841104321E7002DA7D16346002B82
:1020500059D00022002E00D1FFE630006044430139
:1020600092D52A4B013518408EE76346002B47D0A6
:102070004B1E012915D0FF292BD019004EE70C006B
:102080004B463D0084E76246002A8BD1002E92D158
:1020900080270024FF22FF03DFE663460C00F71AC7
:1020A000BFE6300060440125430100D46CE70225FF
:1020B000F2E663460125981BAEE62023644660469F
:1020C000FC40DF1BB840431E984120439FE70500BA
:1020D0005EE74B4671E7202365466046CD40591ABE
:1020E0008840431E984128431CE763460C000125A5
:1020F000F01A91E6002E95D00C004F460022ACE677
:102100004B460D0044E74F460022A6E6FFFFFFFBCB
:10211000FFFFFF7D002800D036E7002400279CE663
:1021200043024A02400049005B0A520A090E000EAF
:10213000FF2806D00020FF2902D1531E9A4110002B
:102140007047FE38002BFBD1F4E7C0464102420045
:10215000C30F490A0020120E7E2A03DD9D2A02DDEC
:10216000094A98187047802000040143952A07DC2B
:102170009620821AD1404842002BF3D10800F1E7A3
:10218000963A9140F7E7C046FFFFFF7FF8B5002879
:1021900013D0C317C6185E40C40F300000F086F895
:1021A0009E2305001B1A962B0FDC082801DD083D35
:1021B000AE407602760AD8B202E000240020002663
:1021C000C0053043E4072043F8BD992B0CDD052200
:1021D0003100121AD1400A00010030001B31884042
:1021E000411E884102431600052D12DC31000D4FBF
:1021F0003940720709D00F203040042805D004313F
:102200004A0102D59F2339405B1B89014E0AD8B28F
:10221000D6E76A1F96403100024F39407207F4D06A
:10222000E9E7C046FFFFFFFB70B5051E0ED000F0CA
:102230003DF89E2304001B1A962B0CDC082801DDB8
:10224000083CA5406D026D0AD8B201E000200025CF
:10225000C005284370BD992B09DD020029001B32FF
:1022600091404A1E91410522121AD5400D43052C7A
:1022700012DC29000C4E31406A0709D00F2028409B
:10228000042805D004314A0102D59F2331401B1B8D
:1022900089014D0AD8B2DBE7621F95402900024E42
:1022A00031406A07F4D0E9E7FFFFFFFB1C2101235F
:1022B0001B04984201D3000C10391B0A984201D329
:1022C000000A08391B09984201D30009043902A207
:1022D000105C40187047C04604030202010101016E
:1022E0000000000000000000014B18687047C04665
:1022F0000400202070B50C4D0C4E761BB61005D096
:10230000002408CD01349847A642FAD102F076FBAA
:10231000074D084E761BB61005D0002408CD0134B9
:102320009847A642FAD170BDC0570000C0570000C0
:10233000C0570000C0570000F0B5C64600B50F2AD0
:1023400041D903270D003E0005430C0003002E4039
:102350002F423DD11500103D2D09A8462D01AC4658
:10236000844427681D001F6067685F60A7689F60DE
:10237000E7681034DF6010336545F2D145460F231E
:102380000C2401352D01491913404519144222D05E
:102390008C59AC5104369C1B032CF9D8043B9B0888
:1023A00001339B00ED18C91803231A40561E002A5A
:1023B00006D00023CC5C1A00EC5401339642F9D1CC
:1023C00080BCB846F0BD0500561E002AF1D1F7E7E3
:1023D0000500561EEDE71A00F6E7C046F0B5050009
:1023E000830749D0541E002A45D003000326CAB2F1
:1023F00002E00135013C3ED301332A703342F8D16B
:10240000032C30D9FF220A40150215432A04154334
:102410000F2C34D92700103F3F093E01B4461E005F
:102420001A0010366644156055609560D56010320C
:10243000B242F8D101373F01DB190F270C222740A8
:1024400022403C00002A0ED03E1FB608B400A4462D
:102450001A001C1D644420C2A242FCD10324013690
:10246000B6009B193C40002C05D0C9B21C1919704C
:1024700001339C42FBD1F0BD03001400C0E72700EC
:10248000E2E7C04610B583070AD00300032102E04B
:1024900001330B4205D01A78002AF9D1181A10BD61
:1024A000030019680C4A0D4C8A188A4322420FD146
:1024B0005968094A04338A188A43224208D1596864
:1024C000054A04338A188A432242F1D000E00133DE
:1024D0001A78002AFBD1E1E7FFFEFEFE80808080B3
:1024E00030B5002A26D003000B439B0724D1032AD2
:1024F00022D9164D0BE0043A002A1BD0144C1C19AB
:102500009C432C4216D104300431032A14D90368A9
:102510000C68A342EFD004780D78AC4213D10123AC
:1025200006E0C45CCD5CAC420DD10133934201D0D6
:10253000002CF6D1002030BD04780D78A54202D1E0
:10254000012AECD1F6E7601BF5E7C0468080808069
:10255000FFFEFEFE00000000F8B502F0FBF900F0FF
:1025600005FD00F067F9040000F03CFD01F070FC8F
:10257000C0218022234B490012025A501A60802247
:1025800052025A501A6001201F49204A8B580343B7
:102590008B5062B61E4801F055FC1E48002C00D13D
:1025A0001D4801F04FFC00271C4D08E03378002B3C
:1025B00026D0002824D1043000F0FCFC30BF01F00C
:1025C000ADFCEFF3108372B62C682F60002B00D1A6
:1025D00062B6002CF2D001F0D3F8060000F0A6FDA0
:1025E000052CE3D82000FFF71FFE0D49FFF7FCF88C
:1025F000041C201C00F05EF9201C00F06DFEDDE7DD
:10260000084CF6E700E100E0004008400418000034
:10261000D452000060520000945200006800202054
:1026200000007A446F12833A8123084A5B01D25832
:10263000FF231340012B00D07047054B1A6801326D
:10264000FAD01A6801321A60F6E7C0460040084026
:102650006800202010B501F017FC10BDF0B5DE4673
:102660004E46454657460723E0B583B06B448B463C
:10267000150099461870002919D0022420216448B9
:10268000644F654A04E0194219D10138002804D08A
:102690002600BB581E401C42F5D000225D4C5F4B0B
:1026A0002000E25002F0EAF9200002F001FA0020D6
:1026B00003B0F0BCBB46B246A946A046F0BD574C9D
:1026C00054483E5102F0DAF9524802F0F1F9012281
:1026D0004946504802F0AEF9012824D16C23504AF3
:1026E0006420B9584B405B055B0D4B40BB503A59D9
:1026F0004C4B4D4953400B4053403B5102F080F945
:1027000001270221424A434C434804E01F4213D0B0
:10271000013A002A02D023581942F7D000223D4C3A
:102720003E4BE25000E03E513A4802F0A7F93948EA
:1027300002F0BEF90020BBE702212027344A354CC5
:10274000354804E01F4206D1013A002AE6D023585A
:102750001942F7D0E2E72F4802F0AAF96D230720CB
:102760002F4A324FA158324E4B405B055B0D4B4018
:10277000A3502A4A2B04A15803432B484B40034043
:102780004B40A350642002F03BF9234A204B924671
:1027900002229846914600231E4C52464946A258B2
:1027A00011422ED15A460F21D01800E00123E259E0
:1027B00011421CD0A25901339BB2027001309D42DC
:1027C000F4D89D4200D068E7642002F019F9012591
:1027D00002210F4A0F4C104805E01D4215D0013A66
:1027E000002A00D159E723581942F6D055E79D42F7
:1027F000E7D9012252429446E0444246002ACCD115
:102800004BE70022054BE2508EE7012050E7C0461F
:1028100000E2040000000F40181200001412000033
:1028200010120000070001000700FF0F3C1200001B
:102830001C12000030B51D4C83B01822002120006E
:10284000FFF7CCFD6B4601220B20D91CFFF706FFDA
:1028500000281DD002220C2001A9FFF7FFFE00284E
:1028600016D06B469888DD7840BA0005000D2571BA
:1028700020806080FFF7D8FC0D49FFF77DF9E0600C
:10288000206101206D0920722840607203B030BDC4
:102890006379FF2B06D00133DBB26371022B01D8C1
:1028A0000020F3E7002300206372EFE76C00202094
:1028B000DB0FC93AF0B54546DE4657464E46E0B511
:1028C0004400640883B0051C5549201CFFF728FC10
:1028D000002862D15249201CFEF7BCFD00285CD1C3
:1028E0000021281CFEF7ACFD002856D1022201A9C8
:1028F0000C30FFF7B3FE00284FD06B469E88494C42
:1029000076BA3605237A360D3000002B5AD0FFF701
:102910008BFC4549FFF730F92369804699468023AF
:1029200060881B01301A98425BDD404B9C46604436
:10293000FFF72CFC3C49FFF71FF96369291C9A46F5
:10294000071CFEF751FF5146FFF73CFA3849834612
:10295000281CFEF7ABFD011C281CFEF745FF011CDF
:102960005846FFF709F95146FEF7A0FD4946606158
:10297000381CFEF79BFD43460022E360E38820619C
:1029800001339BB2668026806271E380632B30D86E
:1029900020798006C00F607209E0224C6379FF2B1A
:1029A0000CD00133DBB26371022B07D8002003B0D7
:1029B000F0BCBB46B246A946A046F0BD00230020AD
:1029C0006372F4E7FFF730FC1749FFF7D5F80123EE
:1029D00080468146237230008023301A1B019842C2
:1029E000A3DC144B9842A3DA80235B019C4660442D
:1029F0009EE7E2800B20012201A9FFF72FFE0028AD
:102A000003D06B4618792071C3E76379FF2B04D09C
:102A10000133DBB26371022BC9D900236372C6E7AD
:102A2000FFFF7F7F6C002020DB0FC93A00F0FFFF23
:102A30000AD7233C00F8FFFF014B18697047C046D6
:102A40006C002020014B58697047C0466C00202064
:102A5000014B18887047C0466C002020014B187944
:102A60007047C0466C002020024B18798006C00FCA
:102A70007047C0466C002020064B187A002808D00A
:102A8000587A002805D0002002225B799A42404102
:102A9000C0B270476C00202070B544006408051C6B
:102AA0000F49201CFFF73CFB002805D10C49201CD6
:102AB000FEF7D0FC002802D00024201C70BD09497C
:102AC000281CFDF777FB0021041CFEF7AFFC002853
:102AD000F3D0201C0349FEF7E9FC041CEDE7C046D7
:102AE000FFFF7F7FDB0FC940064A002804D080210A
:102AF000054B4904D1507047952380215B0149045F
:102B0000D150F8E700000A4090120000304A314BE3
:102B100070B5D058FFF788FBFC218905051CFFF72D
:102B20002BF8041C011C281CFEF780FC002800D098
:102B30002C1CFC21201C8905FEF7B8FCFEF79EFC2E
:102B4000234C01000022200002F01EF8214BE05827
:102B5000FFF76AFBFC218905051CFFF70DF8041C33
:102B6000011C281CFEF762FC002800D02C1CFC2154
:102B7000201C8905FEF79AFCFEF780FC144C01002E
:102B80000122200002F000F8124BE058FFF74CFB46
:102B9000FC218905051CFEF7EFFF041C011C281C05
:102BA000FEF744FC002800D02C1CFC218905201CC9
:102BB000FEF77CFCFEF762FC03220100044801F0F2
:102BC000E3FF95238021044A5B014904D15070BD85
:102BD000000086400818000000000A40F0B5C64614
:102BE0004400640800B5051C0E1C201C9849171CE5
:102BF000FFF796FA002800D0FEE09549201CFEF76A
:102C000029FC002800D0F7E0740064089049201CDB
:102C1000FFF786FA002800D0EEE08D49201CFEF771
:102C200019FC002800D0E7E07C0064088849201CDB
:102C3000FFF776FA002800D0DEE08549201CFEF779
:102C400009FC002800D0D7E00021281CFEF7EEFB8D
:102C5000002800D0D0E0FE21281C8905FEF7FAFBF1
:102C6000002800D0C8E00021301CFEF7DFFB002860
:102C700000D0C1E0FE21301C8905FEF7EBFB0028E7
:102C800000D0B9E00021381CFEF7D0FB002800D0AE
:102C9000B2E0FE21381C8905FEF7DCFB002800D0DD
:102CA000AAE06C49281CFEF7C1FB002800D0AEE06A
:102CB0006949281CFEF7CEFB002800D0C2E0FE20A8
:102CC000291C8005FFF77EF8051C6249301CFEF7C1
:102CD000ADFB002800D097E05F49301CFEF7BAFB3F
:102CE000002800D0B0E0FE20311C8005FFF76AF814
:102CF00080465849381CFEF799FB002800D088E030
:102D00005549381CFEF7A6FB002800D098E0FE20AD
:102D1000391C8005FFF756F8071C504A504B002617
:102D2000D058FFF781FA011C041C281CFEF724FF71
:102D30000021051CFEF77AFB00280DD1291C201C60
:102D4000FEF774FBFC21890500286BD1281CFEF7D7
:102D5000ADFBFEF793FB0600414B404AD058FFF70E
:102D600063FA4146041CFEF707FF0021051CFEF72D
:102D70005DFB0023984600280DD1291C201CFEF77E
:102D800055FBFC218905002853D1281CFEF78EFB3A
:102D9000FEF774FB8046314A314BD058FFF744FAB6
:102DA000391C041CFEF7E8FE0021051CFEF73EFB63
:102DB000002700280DD1291C201CFEF737FBFC2121
:102DC0008905002827D1281CFEF770FBFEF756FB6B
:102DD000070000223100214801F0D6FE01224146C1
:102DE0001E4801F0D1FE032239001C4801F0CCFE40
:102DF00001221C4B1A7004E000221A4B1A70FFF7D4
:102E000085FE80BCB846F0BD134B984671E7124D65
:102E10005BE7114F81E7201CFEF748FBFEF72EFB16
:102E20000700D6E7201CFEF741FBFEF727FB060054
:102E300092E7201CFEF73AFBFEF720FB8046AAE74C
:102E4000094F6AE7084D40E7074B984651E7C046EF
:102E5000FFFF7F7F0AD7A33C48E17A3F000086400E
:102E6000081800008400202000D7A33CF8B54400D7
:102E70006408051C0E1C201C3849FFF751F9002876
:102E800013D13649201CFEF7E5FA00280DD1740055
:102E900064083249201CFFF743F9002805D12F4967
:102EA000201CFEF7D7FA002805D000222C4B1A7000
:102EB000FFF72CFEF8BD2B49301CFDF77BF90021F4
:102EC000041CFEF7B3FA002804D0201C2549FEF7A5
:102ED000EDFA041C201CFDF72FF980231B06011CB2
:102EE000E818FEF749FE061C201CFDF7E9F8BF2193
:102EF000071C0906301CFEF73FFE291C041C381C69
:102F0000FEF73AFE1849FEF737FE051C011C201C8F
:102F1000FEF758FFF8218905FEF72EFEFC218905F2
:102F2000FEF7C4FA291C071C201CFEF7BFFAF82183
:102F30008905FEF721FEFC218905FEF7B7FAF82185
:102F4000041C8905301CFEF717FEFC218905FEF7DD
:102F5000ADFA3A1C211CFFF741FEABE7FFFF7F7F74
:102F600084002020DB0FC940D7B35D3F10B501249A
:102F7000094B80211C70FC209523084A80055B01C9
:102F80004904D150021C011CFFF728FE0449054AE0
:102F90008B5823438B5010BD8400202000000A4032
:102FA0000000864004180000014B18787047C046A6
:102FB0008400202010B50400FFF7A8FD0022074B75
:102FC0001A60074B9A61DA6100221A7001321A7195
:102FD0002B32995C002900D19C5410BDBC002020EC
:102FE0008800202070B51E4C002130222000FFF701
:102FF000F5F901250723A5626362FFF73DFD9C23D8
:10300000184A5B01D35881225B0E9D43164BD205B3
:103010001A60164B164AA0701A60164B164AA06A20
:103020001A60164B164AE5701A608022154BD205BD
:103030001A600022144B1A70FFF7A8F8051CFFF75E
:10304000FBFC011C281CFEF797FD104B104A186072
:1030500000231360A361E361FFF758FD70BDC04614
:103060008800202000000A40B8002020C400202052
:10307000CDCC4C3EC0002020CDCC4C3FCC002020FD
:10308000CDCCCC3EC800202085002020D0002020C0
:10309000BC00202070B5FFF7EFFC9C23154A5B01B4
:1030A000D3588022920413405A425A41124D0400D0
:1030B000EA706A78A870002A06D0002804D0002B95
:1030C00002D02B79002B06D0FFF720FD002300242F
:1030D0002B70200070BD0023084AAB611360EB61C8
:1030E0002B690120EB60FFF7FFFC0123044A2B70E2
:1030F0001370EEE700000A4088002020BC0020206A
:103100008500202010B5041E02D0FFF7C3FF10BDBC
:10311000FFF7FCFC0022034B1A60034B9A61DA6153
:103120001C70F4E7BC002020880020200022024B05
:1031300018781A707047C04685002020F0B5D64632
:103140004F464646C0B5FFF7E1FC002600235A4D26
:103150005A4F2B703E60AE61EE61FFF78DFC584B0D
:10316000A87098469C2342465B01D35801225B0E0F
:1031700091469A43EA70002809D0FFF775FC0028B1
:1031800005D0EB78002B02D12B79002B19D0FFF75B
:10319000BDFC00233B60AB61EB6100232B7001336E
:1031A0002B712B33EB5C002B07D000239A46504643
:1031B000E0BCBA46B146A846F0BD2C230722EA542B
:1031C000F3E70120AE60EE603E60AE61EE61FFF7B6
:1031D0008BFC3C493C48FFF749FEFFF7E5FE002425
:1031E0008246002805D156E0AF2301349B009C4263
:1031F00015D0FA20C00101F003FC0A212000FEF7DF
:1032000013F80029F0D13148FFF754FB0028BED055
:103210009C2342465B01D3589B01E5D4B7E72C4879
:10322000FFF748FB0028B2D0FFF71EFC82460028BB
:10323000ADD09C23224A5B01D3589B01A7D5FFF751
:10324000FBFB041C686AFEF7A1FF80231B06C6185F
:10325000A86AFEF79BFF011C301CFEF78DFC211CA9
:10326000FEF78AFCFFF718FC2862A86AFEF78EFFBB
:10327000211CFEF781FC174B186000200123011C64
:1032800028616861A860E8606B70FFF7EFFD0020BF
:10329000FFF72AFC8BE7FFF739FC53462B704B46B0
:1032A0002B712C233E60AE61EE61EA5C002A00D0F7
:1032B0007BE70632EA547AE788002020BC00202011
:1032C00000000A40E4CB96403333B33E0AD7233C98
:1032D0006F12833AD0002020F8B54546DE465746A7
:1032E0004E46E0B5061CFFF7C7FB9C23D94A5B019D
:1032F000D25880239B041A40904653425341D64CE7
:1033000075006D080700A070D449E370281CFEF713
:1033100007FF002800D030E1D049281CFEF79AF8BA
:10332000002800D029E10025301C291CFEF788F870
:10333000002800D021E1002F00D131E14346002BCD
:1033400000D141E1A06AFEF721FF051CFFF774FBE5
:10335000011C281CFEF710FCC14B1968FEF732FD5A
:103360002061A06AFEF712FF051CFFF76BFB011C32
:10337000281CFEF701FC2369071C5D006D086061D5
:10338000B649281C9846FEF7CBFE002800D0F4E092
:10339000B249281CFEF75EF8002800D0EDE07D0061
:1033A0006D08AE49281CFEF7BBFE002800D0E4E003
:1033B000AA49281CFEF74EF8002800D0DDE023784B
:1033C000002B00D111E16378002B00D10DE12379AE
:1033D000002B00D009E1A349301CFEF7CDFBE368C8
:1033E0008146191CA0689A46FEF7ECFC80231B0658
:1033F0004B44191C9B46051CFEF718F8002800D00A
:10340000FBE04946281CFEF725F8002800D04D4671
:10341000291C5046FEF74AF84146E060FEF7D2FC10
:10342000914B1968FEF7A8FB904B051C1B6898464A
:1034300080231B064344191C9946FDF7F7FF00281B
:1034400000D0E1E04146281CFEF704F8002800D037
:103450004546391CA561281CFEF7B4FC844B071CAB
:103460001B680021181C9946FDF7F4FF002800D1C5
:10347000C5E0391C301CFEF77FFB7E4B1968FEF758
:1034800015F87D4B49461B68061C181C9846FEF72C
:10349000ABF980231B069C468444051C311C604606
:1034A000E246FDF7D7FF002800D0D0E0291C301CF1
:1034B000FDF7D0FF002800D02E1C704B381C196877
:1034C000FEF75AFB311C051C4846FEF755FB011C54
:1034D000281CFDF7EBFF80231B064344051C011C41
:1034E000181C9946FDF7B6FF002800D08EE0414633
:1034F000281CFDF7AFFF002800D097E0E561291CEC
:10350000281CFDF78DFF002800D1B9E0594B1E6043
:10351000606AFEF73BFE051CA06AFEF737FE011C41
:10352000281CFEF729FB051CFFF786FA011C281C46
:10353000FEF722FB216AFDF7B9FFFFF7ADFA011C88
:10354000E069FFF793FCFFF72FFD051E0FD1FFF792
:10355000DDFA0023474AA3611360E361012325706C
:1035600023712B33E25C002A01D10632E254F0BC15
:10357000BB46B246A946A046F8BDFFF7C7FA0023EE
:103580003C4AA3611360E36100232370013323717C
:103590002B33E35C002BEAD12C230522E254E6E72F
:1035A000FFF762FA43425841461CFFF7AFFA314B2E
:1035B000A5611D600123E561237127702B33E25C57
:1035C000002AD4D1E654D2E7FFF7A0FA294BA5612F
:1035D0001D60434623700123E56123712B33E25CB8
:1035E000002AC4D10332E254C1E70023214AE36137
:1035F0001360A361FFF78AFAB9E75D4608E71E4B3F
:1036000000261B68984658E74D4622E74B46414640
:10361000E361281CFDF71EFF002809D10021381C9A
:10362000FDF718FF002800D070E771E74346E3611B
:103630000021381CFDF7FAFE002800D066E7484656
:10364000291CFDF707FF002800D161E7E6E7564691
:1036500033E7C04600000A4088002020FFFF7F7F3C
:10366000D0002020920A063FB8002020C800202069
:10367000C0002020BC002020CC002020C40020203E
:103680004146281CFDF7E6FE0028D8D0D0E7C0460A
:1036900070B545006D08041C1049281CFEF740FD5C
:1036A000002819D10D49281CFDF7D4FE002813D19C
:1036B0000B49201CFDF7BAFE00280DD10949201C3A
:1036C000FDF7C8FE002807D10749201CFEF754FA71
:1036D000064B9860012000E0002070BDFFFF7F7F57
:1036E0000000A0C10000A04135FA8E3C88002020D7
:1036F00070B50B4CA06AFEF749FD051CFFF79CF95D
:10370000011C281CFEF738FA064B074A18600023F4
:10371000A360E36023611360A361E36170BDC046F1
:1037200088002020D0002020BC00202070B5114D42
:103730002E78002E05D19C230F4A5B01D3589B01A4
:1037400002D40024200070BDFFF796F90028F8D0BD
:10375000FFF78AF9041EF4D001236B802B33EE545B
:103760000023064A2E711360AB61EB61FFF7CEF9BF
:10377000E8E7C0468800202000000A40BC00202066
:103780000048704788002020014B18687047C046E9
:10379000CC00202070B545006D08041C0E49281C83
:1037A000FEF7BEFC002815D10B49281CFDF752FE80
:1037B00000280FD10021201CFDF738FE002809D178
:1037C0000649201CFDF746FE002803D1044B0130BA
:1037D0001C6000E0002070BDFFFF7F7F0000C8423A
:1037E000B800202070B545006D08041C0E49281C47
:1037F000FEF796FC002815D10B49281CFDF72AFE80
:1038000000280FD10021201CFDF710FE002809D14F
:103810000649201CFDF71EFE002803D1044B013091
:103820001C6000E0002070BDFFFF7F7F0000A04112
:10383000C400202070B545006D08041C1049281CE8
:10384000FEF76EFC002818D10D49281CFDF702FE7A
:10385000002812D10025201C291CFDF7E7FD0028B7
:103860000BD10849201CFDF7F5FD002805D1064BBA
:1038700001301C60054B1D6000E0002070BDC0469B
:10388000FFFF7F7F0000C842C0002020BC00202036
:1038900070B545006D08041C1049281CFEF740FC5B
:1038A000002819D10D49281CFDF7D4FD002813D19B
:1038B0000B49201CFDF7BAFD00280DD18121201CE9
:1038C000C905FDF7C7FD002806D10022054B0130D0
:1038D0001C60054B1A6000E0002070BDFFFF7F7F79
:1038E000CDCC4C3DCC002020BC00202070B5450044
:1038F0006D08041C0E49281CFEF712FC002815D187
:103900000B49281CFDF7A6FD00280FD10021201C23
:10391000FDF796FD002809D10649201CFDF79AFD08
:10392000002803D1044B01301C6000E0002070BD72
:10393000FFFF7F7F0000A041C8002020431E1D2BF9
:1039400007D8054B1A78002A03D158625A70012013
:1039500000E000207047C046880020200222431C5F
:1039600070B5934304000020002B03D1094B1A7853
:10397000002A00D070BD9C625870FFF75DF8051CEE
:103980002000FEF703FC291CFEF7F6F8024B186036
:103990000120EFE788002020D0002020072803D84E
:1039A000024B8000C05870470148FCE75C530000A0
:1039B00014530000F0B5C64600B5037888461900D8
:1039C000FD222B3904000027114205D12D3B5A421C
:1039D0005341DFB2437801340025002113E02B4925
:1039E000281CFEF7C9F8051C3000FEF7CFFB291C88
:1039F000FDF75CFD26490134051CFDF72BFD002871
:103A000040D1012123781E00303EF2B2092AE6D9C6
:103A10002E2B23D16378621C18003038C4B2092CD5
:103A200032D814001B4EFEF7B1FB311CFEF7A4F890
:103A3000011C281CFDF73AFD1649051C301CFEF739
:103A40009BF86378061C18003038C2B20134092A8A
:103A5000E9D90121202B03D163780134202BFBD03D
:103A6000092BF9D0002909D0002B0BD1002F03D04E
:103A700080231B069C46654443461D60080080BCAD
:103A8000B846F0BD0021F9E71400E7E70000204147
:103A900000247449CDCCCC3DF0B504780200200060
:103AA0000025FD232B38AC46184206D12D3C63423D
:103AB0005C41E3B29C4654780132FA27002300208F
:103AC000BF0008E09800C3185B00EB180132BB424E
:103AD00017DC012014782500303DEEB2092EF1D913
:103AE00001E054780132202CFBD0092CF9D00028B9
:103AF00006D0002C05D16246002A00D05B420B6044
:103B0000F0BD0020FCE7C04670B50500FEF7BAFC2A
:103B10000C4E0400020029003000FEF7E1FC0028F2
:103B200007D1335D3019002B04D0202B03D0092B93
:103B300003D0002070BD43780130202BFBD0092B2F
:103B4000F9D0F7E7D4002020F0B54E464546DE46D2
:103B50005746E0B503788046994683B0002B3DD0A8
:103B60000022924689225201944642460027C846C6
:103B70009146214B21491888214B224E01931B88E5
:103B800001229346D94483420ED01F4C7F3208E075
:103B90006746F55C01339B05CD519B0D01278342A0
:103BA00002D00D592A42F3D0421C9205920D934245
:103BB0000BD0444634544846007880460120824663
:103BC0004046002811D01000DAE7002F01D0019AFA
:103BD00013805346002B01D0074B188003B0F0BC74
:103BE000BB46B246A946A046F0BD002F01D00199C0
:103BF0000B80014B1A80F1E7AE01202000801040BD
:103C0000B0052020B00120200811000010B50400EC
:103C10000848FFF799FF2378002B03D10648FFF7E8
:103C200093FF10BD0548FFF78FFF2000FFF78CFFC3
:103C3000F4E7C0467C53000090520000805300001F
:103C400010B504000448FFF77FFF2000FFF77CFF5A
:103C50000248FFF779FF10BD845300009052000026
:103C6000204AF0B5D6464F46464614889046002274
:103C70001D4B844699461B889246C0B5A34217D077
:103C800089278025194A1A4E1A487F0108E0C15C2D
:103C90000133D15101219B058A469B0D9C4217D0CF
:103CA00091590D42F3D05246002A01D04A46138062
:103CB000621C9205920D9A4211D061460D4B012073
:103CC000195543461A80E0BCBA46B146A846F0BD35
:103CD0004A461480621C9205920D9A42EDD1002052
:103CE000F1E7C046AE012020B00520200080104042
:103CF00008110000B0012020F0B5C64600B507004D
:103D000084B0002828D06B460024DE1C38000A212D
:103D1000FDF78AFAB8463031CDB2013438000A21B5
:103D20003555FDF7FBF943460700092B0AD90A2C44
:103D3000ECD101AB5D7A013C2800FFF791FF002C2C
:103D400006D0355D013C2800FFF78AFF002CF8D132
:103D500004B080BCB846F0BD3020FFF781FFF7E724
:103D600070B5011C041CFDF75BFB00285BD0002133
:103D7000201CFDF75BFB002844D12D49201CFDF7DA
:103D800069FB00284BD1201CFDF778FB0500FEF7EE
:103D90004BFA011C201CFEF715F82649FDF7ECFE36
:103DA000FC218905FDF782FBFDF768FBFA2304007F
:103DB0009B00984221D22800FFF79EFF2E20FFF79C
:103DC0004FFF64212000FDF7A9F93030C0B2FFF7A2
:103DD00047FF0A212000FDF7A1F90A21FDF724FA87
:103DE0003031C8B2FFF73CFF0A212000FDF71CFA72
:103DF0003031C8B2FFF734FF70BD0F4B01359C4620
:103E00006444D8E72D20FFF72BFF80231B069C4638
:103E100064440749201CFDF71DFB0028B3D0074868
:103E2000FFF792FEE8E70648FFF78EFEE4E7C0469C
:103E30006C12034A00007A4418FCFFFF9053000004
:103E40008C53000010B5002801D0FFF77DFE10BD97
:103E500000230021064A1380064A1380064A117087
:103E6000064A1380064A1380064A13807047C046EC
:103E700026012020AC01202028012020AE01202096
:103E8000B0052020240120208123F0B5DE465746CE
:103E90004E4645461A481B4C5B01C3580359E0B5D2
:103EA0005B0726D4184B19499C46194B194F984665
:103EB000194B9A46012399460BE00D88D2B2ADB258
:103EC000AB4645465E46AA5504220B8003591A426A
:103ED0000FD17F25C2590B8801332B4065462D88B1
:103EE0009D42EAD153464A461A70042203591A42A7
:103EF000EFD0F0BCBB46B246A946A046F0BDC046D6
:103F00000080104008110000AC0120202601202074
:103F10002C0120202411000028012020F0B5DE46CD
:103F20004E4657464546C94AE0B59346108800229A
:103F3000C74B944699461B8885B0834217D0892683
:103F40008024C44AC44DC54F760108E0F95C0133B2
:103F5000915101219B058C469B0D834205D05159FF
:103F60000C42F3D06246002A01D04A461380BC4B73
:103F70001A78002A00D036E1BA4DBB4C22882B8833
:103F80009A4226D0B94BBA4E9846BA4F23889BB274
:103F9000F15C7F232288C8B20132134023800D29AF
:103FA0003DD00A283BD0082800D17DE07F2800D1F1
:103FB0007AE020385E2808D8AC4A13884E2B00D906
:103FC00024E1581C1080AB4AD15422882B889A4295
:103FD000DCD14B465A461B8810880024834217D0F8
:103FE00089279E4980258C469A4A9B4E7F0108E08E
:103FF0006146C95C01339B050124D1519B0D83426D
:1040000004D091590D42F3D0002C01D04A461380C0
:1040100005B0F0BCBB46B246A946A046F0BD43463B
:104020001B88002BD1D00022FA543B78002B37D0CC
:10403000914B3A689A4249D0904B3A689A423BD0A9
:104040008F4A3B68934200D173E18E4A934200D17C
:10405000E8E08D4B3A689A4200D14BE18B48FFF77C
:1040600053FD002800D1B5E103A9FFF715FD002895
:1040700000D154E1039B012B00D950E1002B00D06B
:10408000ECE10020FFF73EF88148FFF75DFD814835
:10409000FFF75AFD8048FFF757FD8048FFF754FDB2
:1040A00000234246138090E7704A1388002B00D10A
:1040B0008BE7013B138088E73B79002BC0D1784820
:1040C000FFF742FD0023424613807EE7754BBA8816
:1040D0009A42B1D1BB79002BAED1FFF751FB82469A
:1040E0007148FFF731FD53461878FFF705FE6F481A
:1040F000FFF72AFD53465878FFF7FEFD6C48FFF79F
:1041000023FD53466B499868FDF736FDFFF728FEFF
:104110006948FFF719FD534666491869FDF72CFDFC
:10412000FFF71EFE6548FFF70FFD53465869FFF77E
:1041300017FE6348FFF708FD5346D869FFF710FEE6
:104140006048FFF701FDFEF783FCFFF7D5FD5E48F1
:10415000FFF7FAFCFEF782FC5C4A0309DBB2019030
:10416000D05CFFF77DFD0F20019B1840574B185C7A
:10417000FFF776FD5648FFF7E7FC5346D878FFF780
:10418000BBFD5448FFF7E0FC2C235246D05CFFF700
:1041900005FC002801D0FFF7D7FC4F48FFF7D4FCFF
:1041A00053465B6A0193002B00DAF8E00198FFF7B1
:1041B000A3FD4A48FFF7C8FC53469B6A9A46002B6A
:1041C00000DAE5E05046FFF797FD4548FFF7BCFCF5
:1041D000FFF7DAFAFFF7C4FD3048FFF7B5FC00231C
:1041E00042461380F1E600221E4D1A702B881E4CA9
:1041F0009BB223801D4B3B481A80FFF7A5FC3A4831
:10420000FFF7A2FC2548FFF79FFCB7E600233548DF
:104210001380FFF799FC3548FFF796FC1F48FFF71E
:1042200093FCD2E63B79002B00D012E7FFF760FA4F
:104230001748FFF789FC1748FFF786FC2C48FFF763
:1042400083FC1648FFF780FC2AE7C046AE01202019
:10425000B00520200080104008110000B00120208F
:104260002801202026012020AC012020240120202C
:104270002C012020D40020205354415448454C5058
:1042800043414C005A45524F434C45416C55000048
:104290007C530000805300008455000090520000C1
:1042A0007854000055530000A8530000B853000094
:1042B000C8530000E02E6542D8530000E8530000C8
:1042C000FC5300000454000010540000E4560000A9
:1042D00024540000345400003C5400004C540000AE
:1042E00060540000845300009C530000D45600002A
:1042F00038550000BB88522B00D0AFE6FFF716FA06
:1043000000285DD0B148FFF71FFCB148FFF71CFC47
:10431000B048FFF719FCB048FFF716FCC0E6AF48FD
:10432000FFF712FCAE48FFF70FFCAB48FFF70CFCA1
:10433000B6E6FEF703FF002838D0FFF721FA8246E1
:10434000A848FFF701FCFEF777FBFFF709FDA64839
:10435000FFF7FAFB5346186AFFF702FDA348FFF781
:10436000F3FB53465B6A0193002B55DB0198FFF783
:10437000C3FC9F48FFF7E8FB53469B6A9A46002B15
:1043800043DB5046FFF7B8FC9348FFF7DDFB87E6B9
:104390002D20FFF765FC53465B429A4612E72D201D
:1043A000FFF75EFC019B5B420193FFE68B48FFF742
:1043B000CBFB9048FFF7C8FB8748FFF7C5FB6FE6CC
:1043C0008648FFF7C1FB8C48FFF7BEFB8248FFF72A
:1043D000BBFB65E6894B18009A46FFF795FB002862
:1043E00021D003A9FFF7E6FA002804D00398FFF7CD
:1043F0004FF900284DD17948FFF7A6FB8048FFF719
:10440000A3FB7548FFF7A0FB4AE62D20FFF728FC29
:1044100053465B429A46B4E72D20FFF721FC019BEF
:104420005B420193A2E7774B18009A46FFF76CFBBB
:1044300000283BD003A9FFF7BDFA002804D0039859
:10444000FFF7A8F900284CD16448FFF77DFB6E48C0
:10445000FFF77AFB6048FFF777FB21E6FEF71AFECD
:1044600000280CD05948FFF76FFB5948FFF76CFB49
:104470006648FFF769FB5848FFF766FB10E65748A8
:10448000FFF762FB6248FFF75FFB5348FFF75CFBF7
:1044900006E64E48FFF758FB4D48FFF755FB5046E0
:1044A000FFF752FB4C48FFF74FFBF9E5594B18005B
:1044B0009A46FFF729FB002817D003A9FFF77AFADD
:1044C000002804D00398FFF78DF9002809D143484C
:1044D000FFF73AFB5048FFF737FB3F48FFF734FB45
:1044E000DEE55046FFF792FBDAE54C4B18009A46A2
:1044F000FFF70AFB00280DD003A9FFF75BFA00289D
:1045000004D00398FFF796F90028EAD14448FFF752
:1045100097FBC5E5434B18009A46FFF7F5FA0028CC
:104520000DD003A9FFF746FA002804D00398FFF73F
:10453000AFF90028D5D13C48FFF782FBB0E53B4BF3
:1045400018009A46FFF7E0FA00280DD003A9FFF7FC
:1045500031FA002804D00398FFF7C8F90028C0D129
:104560003348FFF76DFB9BE53248FFF7CDFA002893
:104570000DD003A9FFF790FA002804D00398FFF7A5
:10458000DDF900281AD12C48FFF75AFB88E52B48A3
:10459000FFF7BAFA00280DD003A9FFF77DFA00282B
:1045A00004D00398FFF7DAF900280BD12448FFF76D
:1045B00047FB75E52348FFF743FB71E52248FFF70A
:1045C00025FB6DE52148FFF721FB69E57C530000E1
:1045D00080530000405500009052000084530000BA
:1045E00070550000E4540000FC5400003C540000EE
:1045F000105500001C55000048550000BC55000037
:10460000C0550000DC550000E05500008C5500004E
:1046100094550000EC550000F0550000FC550000DA
:10462000005600000C5600001456000020560000F2
:104630002856000034560000545600007056000002
:1046400090560000B856000038560000745600001E
:10465000F8B50D4A0D4B0E4F0E4E0F4D0F49104C35
:104660001048FA50F250EA50E250C250CA500E4A76
:10467000043BFA50F250EA50E250C2501020CA50A7
:1046800000F0BEF9F8BDC046030000B10408000008
:1046900000000A4000200A400000864000801040D0
:1046A0000040084000000F40010000268520B8228D
:1046B00010B58024194B1A4998501A4AA403545033
:1046C000BC2418518020C0035050D420383C1C50CA
:1046D000802000045050144858605C685C6098600A
:1046E0009868986080205C68800404435C609C68E3
:1046F00020439860822058650C4881249865D82012
:104700001C500B4C04301C501C581C50802395200E
:104710005B0440011350535010BDC046008042401E
:10472000D012000000000A4083000C008200040048
:1047300081000E000021094A094BD150094A03317A
:1047400013688B431360084B2D311A688A431A6033
:104750001A6821398A431A607047C04600F00A403F
:104760000813000000010B4004010B40F0B5274C7A
:1047700083B02000264900F0B3F92000254900F05D
:104780002BFA254A2549A35880260B40A350002325
:10479000C82501270093F60220000022002100F026
:1047A0000DFA6D0031002000002200F0F7F9290019
:1047B0002000002200F0E8F9002320000022002160
:1047C000009700F0FBF931002000012200F0E6F92B
:1047D00029002000012200F0D7F9032320000093D4
:1047E00000220023002100F0E9F93100200003221B
:1047F00000F0D4F903222900200000F0C5F90B22B3
:10480000074BE750083BE25003B0F0BD0000864084
:104810002457000028570000041800007F00FFFF05
:104820000811000010B5084C0849200000F058F9A4
:104830002000074900F062F901220649635813433A
:104840006350054BE25010BD004008400C5700007B
:1048500010570000281000000811000010B5144C7B
:104860001449200000F0D2F89023C0225B01E158E7
:10487000D2000A43E2508022E15852000A43E2503B
:10488000002207210C4BE2500C4BE1500C4BE2583C
:104890008A43E250E2580B490A400421E2500A4B95
:1048A000E2580A43E250E25803390A43E25010BD8D
:1048B00000000F40F85600001412000024120000FF
:1048C00038120000FFF8FFFF2812000070B5194CE5
:1048D0001949200000F06CFA2000184900F044FA51
:1048E00088225201A35816490B40A35011231549A1
:1048F000605843401B041B0C4340635017213F2367
:104900001148255869400B4001216B4023500F4846
:10491000235825580B406B400B406B40235080239D
:104920000B48DB0025582B432350A3580B43A350BF
:1049300070BDC04600801040FC56000000570000CB
:10494000FF7FFEFF10110000141100000411000091
:104950002810000010B5FFF77BFEFFF7A7FEFFF75A
:10496000E9FEFFF703FFFFF75DFFFFF777FFFFF7B4
:10497000ADFFB8230021014AD15410BDB405202059
:10498000FEE7C0461548164B10B5984207D2013BCA
:104990001A1A9208013213499200FDF7CDFC124811
:1049A000124B984207D2013B1A1A92080132104961
:1049B0009200FDF7C1FC0F480F4B984207D2013B14
:1049C0001A1A9208013200219200FDF707FDFDF747
:1049D00091FCFDF7C1FDFFF7D3FF10BD00002020C3
:1049E00068002020C0570000000020200000202088
:1049F000C84D000068002020700620207047C04687
:104A0000831E043BC046FCD27047C0460C2330B521
:104A1000074C0A7805596A4013406B40035107233D
:104A2000043C05594A786A4013406B40035130BD3D
:104A300004100000F0B5C646050000B5002A19D0E4
:104A4000F0270D48002484461C38002380463F018F
:104A500008E04646085D01330134A85198B2A3B27C
:104A60009A4204D96646AE5918003E42F1D104BCC0
:104A70009046F0BD0020FAE73C12000080210A4A6F
:104A800010B58358094C0B438350F0218022090153
:104A9000120103590B409342FBD18021024A8358F3
:104AA0008B43835010BDC046381200003C120000FA
:104AB0008023084A1B0281580B4383500F2206496A
:104AC00043581A42FCD1034A044983580B4083508F
:104AD0007047C046381200003C120000FF7FFFFF05
:104AE0000A78044BC2504A78083BC2508A78024B7D
:104AF000C2507047081000000C1100001A4B4A68A1
:104B000030B5C2500B78222B08D8184A9B00D358D6
:104B10009F46174A174C8358234083500A69164B07
:104B2000164DC250164ACB68845863402B406340F0
:104B30000F4C83500359134A134003510B780A7AE0
:104B400005591A433F236A4013406B40035130BD5F
:104B50008023C025064A9B058458AD0563402B4041
:104B600063408350DAE7C046081800003057000061
:104B700004180000FFFFFFCF101800007777020035
:104B8000301800007F00FFFF034B92009C466044FA
:104B9000801801607047C04610180000064B920054
:104BA0009C4660448218E02013684003594001404D
:104BB000594011607047C0463018000030B5054DAF
:104BC00003ACAC4624786044A4001A4300190A439D
:104BD000026030BD50180000F0B54B79002B2CD08E
:104BE0000B79002B00D18FE0202B00D087E0494CBF
:104BF000494B06591A007240484D2A4072400251F2
:104C0000474A845863402B4063408350454B464C91
:104C1000C2582240C250454A835823408350002343
:104C20008F24434A8350434A8350434A8358A343C3
:104C30008350424A8358A34383500B790A688C7986
:104C4000002B53D0202B13D03D4952084250A022B4
:104C5000920011003B4D47597940304E3140794028
:104C60004151394945586A4032406A4042501BE040
:104C70003349013A4250284A324D11004759274ED4
:104C800079403140794041512F4945586A4032407E
:104C90006A4042508022C0262C4992054558B605EC
:104CA0006A4032406A404250294A1F4D815823438E
:104CB0002940815027490224425823432A40425028
:104CC00000228F252449254C4250254942502C3141
:104CD0004258AA43425023494258AA4342501B4AD1
:104CE00081584B4023404B408350F0BD1449013A5A
:104CF000144D42504759882239005140ADE7A02356
:104D0000044C9B00065975E7024C88230659320073
:104D10005A4071E77818000001040000DBB6C1FFBB
:104D20007C180000381800008888FDFF3C1800003F
:104D3000581800005C180000881800008C1800004B
:104D40000818000070180000741800000418000013
:104D5000301800003418000050180000BFFF003069
:104D60005418000084180000882230B50124520134
:104D70008358A34383508D780B8884582B438D88A8
:104D80002B43094D63402B4063408350CA798B7994
:104D9000064C13430A7A055913437E226B40134095
:104DA0006B40035130BDC04618670200041100007B
:104DB0000A78034BC2504A78083BC2507047C0463D
:084DC0000810000000000000D3
:104DC8000000000000000080000FC93F000F4940AC
:104DD80000CB9640000FC9400053FB4000CB164162
:104DE80000ED2F41000F49410031624100537B41E2
:104DF800003A8A4100CB9641005CA34100EDAF41E7
:104E0800007EBC41000FC94100A0D5410031E241FC
:104E180000C2EE410053FB4100F20342003A0A424D
:104E28000083104200CB164200141D42005C23424E
:104E380000A5294200ED2F4200363642007E3C4252
:104E480000C74242000F4942A2000000F9000000DA
:104E5800830000006E0000004E00000044000000C7
:104E68001500000029000000FC00000027000000D9
:104E780057000000D1000000F500000034000000D9
:104E8800DD000000C0000000DB0000006200000040
:104E980095000000990000003C000000430000005D
:104EA8009000000041000000FE00000051000000DA
:104EB80063000000AB000000DE000000BB00000043
:104EC800C500000061000000B700000024000000D9
:104ED8006E0000003A000000420000004D00000093
:104EE800D2000000E00000000600000049000000B9
:104EF8002E000000EA00000009000000D1000000B8
:104F0800920000001C000000FE0000001D000000D0
:104F1800EB0000001C000000B100000029000000A8
:104F2800A70000003E000000E8000000820000002A
:104F380035000000F50000002E000000BB00000056
:104F48004400000084000000E90000009C0000000C
:104F58007000000026000000B40000005F000000A0
:104F68007E000000410000003900000091000000B0
:104F7800D600000039000000830000005300000044
:104F880039000000F40000009C00000084000000CC
:104F98005F0000008B000000BD000000F900000069
:104FA800280000003B0000001F000000F80000007F
:104FB80097000000FF000000DE0000000500000070
:104FC800980000000F000000EF0000002F00000014
:104FD800110000008B0000005A0000000A000000C9
:104FE8006D0000001F0000006D000000360000008A
:104FF8007E000000CF00000027000000CB0000006A
:1050080009000000B70000004F0000004600000043
:105018003F000000660000009E0000005F000000E6
:10502800EA0000002D0000007500000027000000C5
:10503800BA000000C7000000EB000000E500000017
:10504800F10000007B0000003D00000007000000A8
:1050580039000000F70000008A000000520000003C
:1050680092000000EA0000006B000000FB00000056
:105078005F000000B10000001F0000008D0000006C
:105088005D0000000800000056000000030000005A
:105098003000000046000000FC0000007B0000001B
:1050A8006B000000AB000000F0000000CF00000023
:1050B800BC000000200000009A000000F40000007E
:1050C800360000001D000000A9000000E3000000F9
:1050D80091000000610000005E000000E600000092
:1050E8001B00000008000000650000009900000097
:1050F800850000005F00000014000000A000000010
:1051080068000000400000008D000000FF00000063
:10511800D8000000800000004D000000730000006F
:105128002700000031000000060000000600000013
:105138001500000056000000CA00000073000000BF
:10514800A8000000C900000060000000E2000000A4
:105158007B000000C00000008C0000006B00000015
:105168000400000007000000090000000000C93F1B
:105178000000F0390000DA370000A2330000842E66
:105188000000502B0000C2270000D0220000C41FDE
:105198000000C61B00004417BC1900004819000095
:1051A800A41800005C180000A4180000841900006E
:1051B800A41800005C1800004819000048190000F5
:1051C800841900005C1800006218000062180000D2
:1051D80062180000921900004819000048190000E0
:1051E800A418000058180000A41800008419000032
:1051F800A4180000581800004819000048190000B9
:105208008419000058180000621800006218000095
:10521800621800008E1900001C1C0000EC1B000026
:10522800EC1B0000EA1B0000F01B0000F01B000054
:10523800381D0000EA1B0000F01B0000381D0000AC
:10524800F01B0000EA1B0000E41C0000E41C000046
:10525800E41C0000741D00004153353630302072C4
:10526800656164792E2053656E642053544154550A
:10527800532C207468656E2043414C2C205A4552AB
:105288004F2C20454E20312E0D0A00004153353653
:105298003030206E6F742072656164792E20436807
:1052A80065636B20776972696E672F6D61676E65DC
:1052B800742C207468656E205354415455532061F2
:1052C8006E6420434C4541522E0D0A000D0A42617E
:1052D8006C6C2D616E642D6265616D206D6F746FED
:1052E8007220636F6E74726F6C6C65722072656188
:1052F80064792E204D6F746F72206973204449536E
:1053080041424C45442E0D0A00000000756E6B6E3C
:105318006F776E006E6F6E650000000073656E73C8
:105328006F7200006D61676E657400006472697663
:10533800657200006F76657272756E006D617468D3
:105348000000000070776D0063616C6962726174BF
:10535800696F6E001C530000245300002C5300009A
:10536800345300003C530000445300004C530000E9
:10537800505300004F4B00002000000045525220BF
:10538800000000006E616E006F766572666C6F7764
:10539800000000005258206F766572666C6F7700C7
:1053A80053544154555320656E61626C653D00004D
:1053B8002063616C696272617465643D000000007D
:1053C800207461726765745F6465673D0000000062
:1053D8002061637475616C5F6465673D000000005F
:1053E8002076656C6F636974795F7261645F733D81
:1053F800000000002075713D0000000020726177F8
:105408005F616E676C653D00206D61676E65745FF6
:105418007374617475733D3078000000206472699C
:105428007665725F6661756C743D00002066617513
:105438006C743D0020706F6C655F70616972733DBC
:10544800000000002073656E736F725F6469726597
:105458006374696F6E3D000020766F6C74616765D8
:105468005F6C696D69743D0048454C500000000050
:105478004F4B20454E20307C312C2043414C2C2072
:105488005A45524F2C2041206465672C20535441C3
:105498005455532C204B5020782C20565020782CD3
:1054A80020564920782C20564C494D20782C2056DF
:1054B800454C494D20782C205050206E2C204449D2
:1054C8005220317C2D312C20434C4541522C204810
:1054D800454C500D0A00000043414C004F4B2043FF
:1054E800414C206D656368616E6963616C5F7261D0
:1054F800643D000020656C656374726963616C5F6C
:105508007A65726F3D000000206469726563746992
:105518006F6E3D0043414C206661696C65643B20B9
:10552800696E737065637420535441545553000079
:105538005A45524F00000000434C454152000000BC
:105548006861726477617265206661756C74206F3A
:10555800722073656E736F72206E6F74207265614E
:1055680064790000454E0000454E206578706563FB
:1055780074732030206F722031000000454E2030B7
:1055880000000000454E2031000000006E6F7420BE
:1055980063616C696272617465642C2073656E73F3
:1055A8006F722F6661756C74206E6F7420726561FE
:1055B8006479000041000000616E676C65206F75BA
:1055C800747369646520736166652072616E6765CE
:1055D800000000004B5000004B502072616E676560
:1055E800000000005650000056502072616E67653A
:1055F800000000005649000056492072616E676538
:1056080000000000564C494D00000000564C494D22
:105618002072616E6765000056454C494D000000D8
:1056280056454C494D2072616E6765005050000028
:1056380050503B20726563616C69627261746520C9
:1056480072657175697265640000000050502072BF
:10565800616E6765206F72206D6F746F7220656E62
:1056680061626C6564000000444952004449523B41
:1056780020726563616C696272617465207265711C
:105688007569726564000000444952206578706548
:105698006374732031206F72202D3120776974680C
:1056A800206D6F746F722064697361626C65640049
:1056B800756E6B6E6F776E20636F6D6D616E643B98
:1056C800207573652048454C500000006C696E6574
:1056D80020746F6F206C6F6E6700000030313233BA
:1056E80034353637383941424344454600000000D6
:1056F800080000000800000000001800000000304A
:105708000000000008001F0002000000E70300007E
:105718000000000000000000000000000800000079
:105728004006000010010000124B00001C4B000056
:10573800124B00001C4B00001C4B00001C4B0000CF
:105748001C4B00001C4B00001C4B00001C4B0000B5
:105758001C4B00001C4B00001C4B00001C4B0000A5
:105768001C4B00001C4B0000504B00001C4B000061
:10577800504B00001C4B00001C4B00001C4B000051
:105788001C4B00001C4B00001C4B00001C4B000075
:105798001C4B00001C4B00001C4B00001C4B000065
:1057A8001C4B00001C4B0000504B00001C4B000021
:0857B800504B0000000000004E
:1057C000FF00000008002020000000000000000092
:1057D00000000000000000000000000000000000C9
:1057E00000000000000000000000000000000000B9
:1057F00000000000000000000000000000000000A9
:105800000000000000000000000000000000000098
:105810000000000000000000000000000000000088
:08582000000000000000000080
:04000003000000C039
:00000001FF
