:1000000000802020410400003D0400003D04000069
:1000100000000000000000000000000000000000E0
:100020000000000000000000000000003D0400008F
:1000300000000000000000003D040000C1000000BE
:100040003D0400003D0400003D0400003D040000AC
:100050003D0400003D0400003D0400003D0400009C
:10006000000000003D0400003D040000000000000E
:10007000000000003D0400003D0400003D040000BD
:100080003D0400003D0400003D0400003D0400006C
:100090003D0400003D0400000000000000000000DE
:1000A0003D0400003D0400000000000000000000CE
:1000B0003D040000000000003D0400003D0400007D
:1000C000024A1368013313607047C04600002020C5
:1000D00080220C495200435810B5134343500A493B
:1000E00043581342FCD0094B0124C1580A438821CC
:1000F000C250074B4901C35842582243425098B25C
:1001000010BDC0460411000030100000481000006F
:100110008062550010B54843014900F0CFF910BD89
:10012000FF0F000010B500F0D3FB10BD70B5060046
:1001300000290AD0002A08D00C008D182178300040
:10014000013400F0C5FBAC42F8D170BD70B50500BC
:100150000C1E04D106E0280000F0BAFB013421781F
:100160000029F8D170BDC046F0B5CE46474680B5EF
:1001700081460E0085B0002927D003236B44012758
:10018000984630000A2100F01FFA43463031CCB2C5
:10019000DC5530000A2100F091F935003B000600E3
:1001A0000137092DEDD89D1E01AB9C46654401E049
:1001B0002C78013D2100484600F08AFBA845F7D184
:1001C00005B0C0BCB946B046F0BD302100F080FBA0
:1001D000F6E7C04670B505000C1E04DB28002100C0
:1001E000FFF7C2FF70BD2D2100F072FB6442F5E7FE
:1001F00070B5074E0B090D00F15C040000F068FBC0
:100200000F210D40715D200000F062FB70BDC04603
:10021000F80800000022024B1A805A801A717047B9
:100220000C00202081235B01F0B5C258C646FF2395
:1002300000B513400B2B02D080BCB846F0BD0F4D6B
:1002400043595B07F8D40E4B3F279C4601230426F5
:1002500098460C4A07E01488C9B214192172138019
:1002600043591E42E8D16346C1581388548801336C
:100270003B409C42EFD143461371F1E70811000067
:10028000241100000C002020034B18885B88C01A42
:10029000431E9841C0B270470C00202000280FD0A8
:1002A000084B19885A8891420AD05A889A18127AAB
:1002B000598802703F22012001310A405A8070475C
:1002C0000020FCE70C002020014B1879C0B27047D9
:1002D0000C0020200022014B1A7170470C002020D6
:1002E000802170B5094B0A4A0A4D0B4C0B48C905D1
:1002F000EA50E250C250CA50094A043BEA50E25068
:10030000C2501020CA5000F0AFFA70BD04080000BF
:10031000030000B100000A4000200A400000104025
:10032000010000268222024BDA64024A1A657047F5
:1003300000804240820004000021094A094BD1504C
:10034000094A033113688B431360084B2D311A6837
:100350008A431A601A6821398A431A607047C04676
:1003600000F00A400813000000010B4004010B409C
:1003700070B5164C164D2000290000F09FFA2000A1
:10038000291D00F077FA88225201A35811490B4029
:10039000A35011231049605843401B041B0C4340D9
:1003A000635017213F230D48255869400B40012118
:1003B0006B4023500A48235825580B406B400B4094
:1003C0006B402350A3580B43A35070BD0000104056
:1003D0000C090000FF7FFEFF101100001411000047
:1003E0000411000010B580240C49E40520001031F0
:1003F00000F01AFA8C2300225B01E2508022803B3D
:10040000E15852020A43FA21E250054A4900A1503C
:10041000E258F439FF390A43E25010BD0C090000DC
:100420001411000010B5FFF75BFFFFF77BFFFFF72C
:1004300083FFFFF79DFFFFF7D5FF10BDFEE7C04626
:100440001548164B10B5984207D2013B1A1A92086C
:1004500001321349920000F0DFF81248124B984223
:1004600007D2013B1A1A920801321049920000F09B
:10047000D3F80F480F4B984207D2013B1A1A920843
:1004800001320021920000F019F900F0A3F800F009
:100490006BF9FFF7D3FF10BD0000202000002020E3
:1004A000680900000000202000002020F80800005B
:1004B00000002020580020207047C046002243083A
:1004C0008B4274D303098B425FD3030A8B4244D31C
:1004D000030B8B4228D3030C8B420DD3FF2209025E
:1004E00012BA030C8B4202D31212090265D0030B1D
:1004F0008B4219D300E0090AC30B8B4201D3CB0313
:10050000C01A5241830B8B4201D38B03C01A524154
:10051000430B8B4201D34B03C01A5241030B8B4256
:1005200001D30B03C01A5241C30A8B4201D3CB0241
:10053000C01A5241830A8B4201D38B02C01A524126
:10054000430A8B4201D34B02C01A5241030A8B4229
:1005500001D30B02C01A5241CDD2C3098B4201D341
:10056000CB01C01A524183098B4201D38B01C01ABF
:10057000524143098B4201D34B01C01A5241030936
:100580008B4201D30B01C01A5241C3088B4201D3E5
:10059000CB00C01A524183088B4201D38B00C01A92
:1005A000524143088B4201D34B00C01A5241411AB9
:1005B00000D20146524110467047FFE701B50020C6
:1005C00000F006F802BDC0460029F7D076E7704774
:1005D0007047C04670B50C4D0C4E761BB61005D05A
:1005E000002408CD01349847A642FAD1FFF764FFF2
:1005F000074D084E761BB61005D0002408CD0134F7
:100600009847A642FAD170BD680900006809000049
:100610006809000068090000F0B5C64600B50F2A59
:1006200041D903270D003E0005430C0003002E4076
:100630002F423DD11500103D2D09A8462D01AC4695
:10064000844427681D001F6067685F60A7689F601B
:10065000E7681034DF6010336545F2D145460F235B
:100660000C2401352D01491913404519144222D09B
:100670008C59AC5104369C1B032CF9D8043B9B08C5
:1006800001339B00ED18C91803231A40561E002A97
:1006900006D00023CC5C1A00EC5401339642F9D109
:1006A00080BCB846F0BD0500561E002AF1D1F7E720
:1006B0000500561EEDE71A00F6E7C046F0B5050046
:1006C000830749D0541E002A45D003000326CAB22E
:1006D00002E00135013C3ED301332A703342F8D1A8
:1006E000032C30D9FF220A40150215432A04154372
:1006F0000F2C34D92700103F3F093E01B4461E009D
:100700001A0010366644156055609560D560103249
:10071000B242F8D101373F01DB190F270C222740E5
:1007200022403C00002A0ED03E1FB608B400A4466A
:100730001A001C1D644420C2A242FCD103240136CD
:10074000B6009B193C40002C05D0C9B21C19197089
:1007500001339C42FBD1F0BD03001400C0E7270029
:10076000E2E7C04600000000F0B5C64600B5FFF75E
:1007700059FE0422234B02211A60234A23485A605F
:1007800000229A601A680A431A601A6803310A4301
:100790001A601F49FFF7DAFC1E4B002198461E4CD9
:1007A0001E4F1F4EFA2325685B006A1A9A4206D232
:1007B00030BFFA2325685B006A1A9A42F8D380207A
:1007C000C005FFF785FCA080A088164980B2FFF71E
:1007D000A1FC4146A0600D48FFF7B8FCA1880B487A
:1007E00089B2FFF7C1FC39000848FFF7AFFCA168E8
:1007F0000648FFF7B9FC31000448FFF7A7FC2900C1
:10080000D0E7C04610E000E0FF7C00000000104090
:1008100028090000480900000000202050090000BD
:100820005C090000E40C0000A9230C4A30B50D78E7
:1008300084581B062B430A4D63402B406340835072
:100840008822E025520184584B68ED0463402B4018
:10085000634083504A78034BC25030BD0808000003
:10086000030000FF10110000831E043BC046FCD2B1
:100870007047C046882230B5012452018358A343F3
:1008800083508D780B8884582B438D882B43094DDA
:1008900063402B4063408350CA798B79064C1343E5
:1008A0000A7A055913437E226B4013406B40035173
:1008B00030BDC04618670200041100000A78034BDF
:1008C000C2504A78083BC2507047C046081000002A
:1008D000802210B5064C03591A42FCD1892301220B
:1008E0005B01C150024943581A42FCD110BDC046B9
:0808F0000811000000000000E7
:1008F800303132333435363738394142434445464E
:10090800000000000800000000001800000000308F
:1009180000000000000500000000000300000000C7
:100928000D0A4D53504D3020414443206D6F6E6980
:10093800746F722072656164792E0D0A00000000E0
:100948004144433D000000002C20566F6C746167E1
:10095800653D0000206D560D0A00000000000000F3
:04000003000000C039
:00000001FF
